
frogger.elf:     file format elf32-avr

Sections:
Idx Name          Size      VMA       LMA       File off  Algn
  0 .data         00000030  00800100  000024ec  00002580  2**0
                  CONTENTS, ALLOC, LOAD, DATA
  1 .text         000024ec  00000000  00000000  00000094  2**1
                  CONTENTS, ALLOC, LOAD, READONLY, CODE
  2 .bss          0000018b  00800130  00800130  000025b0  2**0
                  ALLOC
  3 .comment      0000005c  00000000  00000000  000025b0  2**0
                  CONTENTS, READONLY
  4 .debug_aranges 000003c0  00000000  00000000  0000260c  2**0
                  CONTENTS, READONLY, DEBUGGING
  5 .debug_info   0000330f  00000000  00000000  000029cc  2**0
                  CONTENTS, READONLY, DEBUGGING
  6 .debug_abbrev 00001009  00000000  00000000  00005cdb  2**0
                  CONTENTS, READONLY, DEBUGGING
  7 .debug_line   00001319  00000000  00000000  00006ce4  2**0
                  CONTENTS, READONLY, DEBUGGING
  8 .debug_frame  00000ad4  00000000  00000000  00008000  2**2
                  CONTENTS, READONLY, DEBUGGING
  9 .debug_str    00000c6a  00000000  00000000  00008ad4  2**0
                  CONTENTS, READONLY, DEBUGGING
 10 .debug_loc    00002387  00000000  00000000  0000973e  2**0
                  CONTENTS, READONLY, DEBUGGING
 11 .debug_ranges 00000368  00000000  00000000  0000bac5  2**0
                  CONTENTS, READONLY, DEBUGGING

Disassembly of section .text:

00000000 <__vectors>:
       0:	0c 94 29 01 	jmp	0x252	; 0x252 <__ctors_end>
       4:	0c 94 46 01 	jmp	0x28c	; 0x28c <__bad_interrupt>
       8:	0c 94 46 01 	jmp	0x28c	; 0x28c <__bad_interrupt>
       c:	0c 94 46 01 	jmp	0x28c	; 0x28c <__bad_interrupt>
      10:	0c 94 46 01 	jmp	0x28c	; 0x28c <__bad_interrupt>
      14:	0c 94 84 01 	jmp	0x308	; 0x308 <__vector_5>
      18:	0c 94 46 01 	jmp	0x28c	; 0x28c <__bad_interrupt>
      1c:	0c 94 46 01 	jmp	0x28c	; 0x28c <__bad_interrupt>
      20:	0c 94 46 01 	jmp	0x28c	; 0x28c <__bad_interrupt>
      24:	0c 94 46 01 	jmp	0x28c	; 0x28c <__bad_interrupt>
      28:	0c 94 46 01 	jmp	0x28c	; 0x28c <__bad_interrupt>
      2c:	0c 94 46 01 	jmp	0x28c	; 0x28c <__bad_interrupt>
      30:	0c 94 46 01 	jmp	0x28c	; 0x28c <__bad_interrupt>
      34:	0c 94 46 01 	jmp	0x28c	; 0x28c <__bad_interrupt>
      38:	0c 94 46 01 	jmp	0x28c	; 0x28c <__bad_interrupt>
      3c:	0c 94 46 01 	jmp	0x28c	; 0x28c <__bad_interrupt>
      40:	0c 94 3c 0e 	jmp	0x1c78	; 0x1c78 <__vector_16>
      44:	0c 94 46 01 	jmp	0x28c	; 0x28c <__bad_interrupt>
      48:	0c 94 46 01 	jmp	0x28c	; 0x28c <__bad_interrupt>
      4c:	0c 94 46 01 	jmp	0x28c	; 0x28c <__bad_interrupt>
      50:	0c 94 ce 0b 	jmp	0x179c	; 0x179c <__vector_20>
      54:	0c 94 8c 0b 	jmp	0x1718	; 0x1718 <__vector_21>
      58:	0c 94 46 01 	jmp	0x28c	; 0x28c <__bad_interrupt>
      5c:	0c 94 46 01 	jmp	0x28c	; 0x28c <__bad_interrupt>
      60:	0c 94 46 01 	jmp	0x28c	; 0x28c <__bad_interrupt>
      64:	0c 94 46 01 	jmp	0x28c	; 0x28c <__bad_interrupt>
      68:	0c 94 46 01 	jmp	0x28c	; 0x28c <__bad_interrupt>
      6c:	0c 94 46 01 	jmp	0x28c	; 0x28c <__bad_interrupt>
      70:	0c 94 46 01 	jmp	0x28c	; 0x28c <__bad_interrupt>
      74:	0c 94 46 01 	jmp	0x28c	; 0x28c <__bad_interrupt>
      78:	0c 94 46 01 	jmp	0x28c	; 0x28c <__bad_interrupt>
      7c:	e0 01       	movw	r28, r0
      7e:	e2 01       	movw	r28, r4
      80:	e2 01       	movw	r28, r4
      82:	e2 01       	movw	r28, r4
      84:	e0 01       	movw	r28, r0
      86:	08 02       	muls	r16, r24
      88:	08 02       	muls	r16, r24
      8a:	2c 02       	muls	r18, r28
      8c:	6c 03       	fmul	r22, r20
      8e:	6f 03       	fmul	r22, r23
      90:	6f 03       	fmul	r22, r23
      92:	6f 03       	fmul	r22, r23
      94:	6c 03       	fmul	r22, r20
      96:	73 03       	mulsu	r23, r19
      98:	73 03       	mulsu	r23, r19
      9a:	77 03       	mulsu	r23, r23

0000009c <__trampolines_end>:
      9c:	25 63       	ori	r18, 0x35	; 53
	...

0000009f <__c.1905>:
      9f:	59 6f 75 72 20 4e 61 6d 65 3a 20 5f 5f 5f 00        Your Name: ___.

000000ae <__c.1903>:
      ae:	25 64 3a 20 4e 65 77 20 48 69 67 68 20 53 63 6f     %d: New High Sco
      be:	72 65 21 00                                         re!.

000000c2 <__c.1892>:
      c2:	25 64 00                                            %d.

000000c5 <__c.1890>:
      c5:	25 73 00                                            %s.

000000c8 <__c.1887>:
      c8:	48 69 67 68 20 53 63 6f 72 65 73 00                 High Scores.

000000d4 <__c.2257>:
      d4:	50 72 65 73 73 20 61 20 62 75 74 74 6f 6e 20 74     Press a button t
      e4:	6f 20 73 74 61 72 74 20 61 67 61 69 6e 00           o start again.

000000f2 <__c.2255>:
      f2:	47 41 4d 45 20 4f 56 45 52 00                       GAME OVER.

000000fc <__c.2216>:
      fc:	43 53 53 45 32 30 31 30 2f 37 32 30 31 20 70 72     CSSE2010/7201 pr
     10c:	6f 6a 65 63 74 20 62 79 20 54 68 6f 6d 61 73 20     oject by Thomas 
     11c:	48 69 6e 65 73 20 34 33 31 37 34 32 31 00           Hines 4317421.

0000012a <__c.2214>:
     12a:	46 72 6f 67 67 65 72 00                             Frogger.

00000132 <numbers>:
     132:	9d 01 9a 01 96 01 92 01 8e 01 8a 01 86 01 82 01     ................
     142:	7e 01 7a 01                                         ~.z.

00000146 <letters>:
     146:	0c 02 08 02 04 02 00 02 fc 01 f8 01 f4 01 f0 01     ................
     156:	ed 01 e9 01 e5 01 e1 01 dc 01 d8 01 d4 01 d0 01     ................
     166:	cb 01 c7 01 c3 01 be 01 ba 01 b5 01 b0 01 ab 01     ................
     176:	a6 01 a1 01                                         ....

0000017a <cols_9>:
     17a:	64 92 92 7d                                         d..}

0000017e <cols_8>:
     17e:	6c 92 92 6d                                         l..m

00000182 <cols_7>:
     182:	80 9e a0 c1                                         ....

00000186 <cols_6>:
     186:	7c 92 92 4d                                         |..M

0000018a <cols_5>:
     18a:	e4 a2 a2 9d                                         ....

0000018e <cols_4>:
     18e:	18 28 48 ff                                         .(H.

00000192 <cols_3>:
     192:	44 92 92 6d                                         D..m

00000196 <cols_2>:
     196:	46 8a 92 63                                         F..c

0000019a <cols_1>:
     19a:	42 fe 03                                            B..

0000019d <cols_0>:
     19d:	7c 92 a2 7d                                         |..}

000001a1 <cols_z>:
     1a1:	86 8a 92 a2 c3                                      .....

000001a6 <cols_y>:
     1a6:	e0 10 0e 10 e1                                      .....

000001ab <cols_x>:
     1ab:	c6 28 10 28 c7                                      .(.(.

000001b0 <cols_w>:
     1b0:	fc 02 1c 02 fd                                      .....

000001b5 <cols_v>:
     1b5:	f8 04 02 04 f9                                      .....

000001ba <cols_u>:
     1ba:	fc 02 02 fd                                         ....

000001be <cols_t>:
     1be:	80 80 fe 80 81                                      .....

000001c3 <cols_s>:
     1c3:	64 92 92 4d                                         d..M

000001c7 <cols_r>:
     1c7:	fe 90 98 67                                         ...g

000001cb <cols_q>:
     1cb:	7c 82 8a 7c 03                                      |..|.

000001d0 <cols_p>:
     1d0:	fe 90 90 61                                         ...a

000001d4 <cols_o>:
     1d4:	7c 82 82 7d                                         |..}

000001d8 <cols_n>:
     1d8:	fe 20 10 ff                                         . ..

000001dc <cols_m>:
     1dc:	fe 40 30 40 ff                                      .@0@.

000001e1 <cols_l>:
     1e1:	fe 02 02 03                                         ....

000001e5 <cols_k>:
     1e5:	fe 10 28 c7                                         ..(.

000001e9 <cols_j>:
     1e9:	04 02 02 fd                                         ....

000001ed <cols_i>:
     1ed:	82 fe 83                                            ...

000001f0 <cols_h>:
     1f0:	fe 10 10 ff                                         ....

000001f4 <cols_g>:
     1f4:	7c 82 92 5d                                         |..]

000001f8 <cols_f>:
     1f8:	fe 90 90 81                                         ....

000001fc <cols_e>:
     1fc:	fe 92 92 83                                         ....

00000200 <cols_d>:
     200:	fe 82 82 7d                                         ...}

00000204 <cols_c>:
     204:	7c 82 82 45                                         |..E

00000208 <cols_b>:
     208:	fe 92 92 6d                                         ...m

0000020c <cols_a>:
     20c:	7e 90 90 7f                                         ~...

00000210 <__c.1889>:
     210:	54 69 6d 65 3a 20 25 30 32 64 00                    Time: %02d.

0000021b <__c.1854>:
     21b:	53 70 65 65 64 3a 20 25 64 00                       Speed: %d.

00000225 <__c.1852>:
     225:	4c 65 76 65 6c 3a 20 25 64 00                       Level: %d.

0000022f <__c.1850>:
     22f:	4c 69 76 65 73 3a 20 25 64 00                       Lives: %d.

00000239 <__c.1848>:
     239:	53 63 6f 72 65 3a 20 25 64 00                       Score: %d.

00000243 <__c.1797>:
     243:	1b 5b 32 4a 00                                      .[2J.

00000248 <__c.1782>:
     248:	1b 5b 25 64 3b 25 64 48 00 00                       .[%d;%dH..

00000252 <__ctors_end>:
     252:	11 24       	eor	r1, r1
     254:	1f be       	out	0x3f, r1	; 63
     256:	cf ef       	ldi	r28, 0xFF	; 255
     258:	d8 e0       	ldi	r29, 0x08	; 8
     25a:	de bf       	out	0x3e, r29	; 62
     25c:	cd bf       	out	0x3d, r28	; 61

0000025e <__do_copy_data>:
     25e:	11 e0       	ldi	r17, 0x01	; 1
     260:	a0 e0       	ldi	r26, 0x00	; 0
     262:	b1 e0       	ldi	r27, 0x01	; 1
     264:	ec ee       	ldi	r30, 0xEC	; 236
     266:	f4 e2       	ldi	r31, 0x24	; 36
     268:	02 c0       	rjmp	.+4      	; 0x26e <__do_copy_data+0x10>
     26a:	05 90       	lpm	r0, Z+
     26c:	0d 92       	st	X+, r0
     26e:	a0 33       	cpi	r26, 0x30	; 48
     270:	b1 07       	cpc	r27, r17
     272:	d9 f7       	brne	.-10     	; 0x26a <__do_copy_data+0xc>

00000274 <__do_clear_bss>:
     274:	22 e0       	ldi	r18, 0x02	; 2
     276:	a0 e3       	ldi	r26, 0x30	; 48
     278:	b1 e0       	ldi	r27, 0x01	; 1
     27a:	01 c0       	rjmp	.+2      	; 0x27e <.do_clear_bss_start>

0000027c <.do_clear_bss_loop>:
     27c:	1d 92       	st	X+, r1

0000027e <.do_clear_bss_start>:
     27e:	ab 3b       	cpi	r26, 0xBB	; 187
     280:	b2 07       	cpc	r27, r18
     282:	e1 f7       	brne	.-8      	; 0x27c <.do_clear_bss_loop>
     284:	0e 94 f5 09 	call	0x13ea	; 0x13ea <main>
     288:	0c 94 74 12 	jmp	0x24e8	; 0x24e8 <_exit>

0000028c <__bad_interrupt>:
     28c:	0c 94 00 00 	jmp	0	; 0x0 <__vectors>

00000290 <init_button_interrupts>:
// using a pin change interrupt. These pins correspond to pin
// change interrupts PCINT8 to PCINT11 which are covered by
// Pin change interrupt 1.
void init_button_interrupts(void) {
	// Enable the interrupt (see datasheet page 69)
	PCICR |= (1<<PCIE1);
     290:	e8 e6       	ldi	r30, 0x68	; 104
     292:	f0 e0       	ldi	r31, 0x00	; 0
     294:	80 81       	ld	r24, Z
     296:	82 60       	ori	r24, 0x02	; 2
     298:	80 83       	st	Z, r24
	
	// Make sure the interrupt flag is cleared (by writing a 
	// 1 to it) (see datasheet page 69)
	PCIFR |= (1<<PCIF1);
     29a:	d9 9a       	sbi	0x1b, 1	; 27
	
	// Choose which pins we're interested in by setting
	// the relevant bits in the mask register (see datasheet page 70)
	PCMSK1 |= (1<<PCINT8)|(1<<PCINT9)|(1<<PCINT10)|(1<<PCINT11);	
     29c:	ec e6       	ldi	r30, 0x6C	; 108
     29e:	f0 e0       	ldi	r31, 0x00	; 0
     2a0:	80 81       	ld	r24, Z
     2a2:	8f 60       	ori	r24, 0x0F	; 15
     2a4:	80 83       	st	Z, r24
	
	// Empty the button push queue
	queue_length = 0;
     2a6:	10 92 30 01 	sts	0x0130, r1
     2aa:	08 95       	ret

000002ac <button_pushed>:
}

int8_t button_pushed(void) {
	int8_t return_value = -1;	// Assume no button pushed
	if(queue_length > 0) {
     2ac:	80 91 30 01 	lds	r24, 0x0130
     2b0:	18 16       	cp	r1, r24
     2b2:	44 f5       	brge	.+80     	; 0x304 <button_pushed+0x58>
		// Remove the first element off the queue and move all the other
		// entries closer to the front of the queue. We turn off interrupts (if on)
		// before we make any changes to the queue. If interrupts were on
		// we turn them back on when done.
		return_value = button_queue[0];
     2b4:	80 91 31 01 	lds	r24, 0x0131
		
		// Save whether interrupts were enabled and turn them off
		int8_t interrupts_were_enabled = bit_is_set(SREG, SREG_I);
     2b8:	6f b7       	in	r22, 0x3f	; 63
     2ba:	60 78       	andi	r22, 0x80	; 128
		cli();
     2bc:	f8 94       	cli
		
		for(uint8_t i = 1; i < queue_length; i++) {
     2be:	90 91 30 01 	lds	r25, 0x0130
     2c2:	92 30       	cpi	r25, 0x02	; 2
     2c4:	b4 f0       	brlt	.+44     	; 0x2f2 <button_pushed+0x46>
     2c6:	21 e0       	ldi	r18, 0x01	; 1
     2c8:	30 e0       	ldi	r19, 0x00	; 0
     2ca:	91 e0       	ldi	r25, 0x01	; 1
			button_queue[i-1] = button_queue[i];
     2cc:	f9 01       	movw	r30, r18
     2ce:	ef 5c       	subi	r30, 0xCF	; 207
     2d0:	fe 4f       	sbci	r31, 0xFE	; 254
     2d2:	40 81       	ld	r20, Z
     2d4:	f9 01       	movw	r30, r18
     2d6:	e0 5d       	subi	r30, 0xD0	; 208
     2d8:	fe 4f       	sbci	r31, 0xFE	; 254
     2da:	40 83       	st	Z, r20
		
		// Save whether interrupts were enabled and turn them off
		int8_t interrupts_were_enabled = bit_is_set(SREG, SREG_I);
		cli();
		
		for(uint8_t i = 1; i < queue_length; i++) {
     2dc:	9f 5f       	subi	r25, 0xFF	; 255
     2de:	29 2f       	mov	r18, r25
     2e0:	30 e0       	ldi	r19, 0x00	; 0
     2e2:	40 91 30 01 	lds	r20, 0x0130
     2e6:	55 27       	eor	r21, r21
     2e8:	47 fd       	sbrc	r20, 7
     2ea:	50 95       	com	r21
     2ec:	24 17       	cp	r18, r20
     2ee:	35 07       	cpc	r19, r21
     2f0:	6c f3       	brlt	.-38     	; 0x2cc <button_pushed+0x20>
			button_queue[i-1] = button_queue[i];
		}
		queue_length--;
     2f2:	90 91 30 01 	lds	r25, 0x0130
     2f6:	91 50       	subi	r25, 0x01	; 1
     2f8:	90 93 30 01 	sts	0x0130, r25
		
		if(interrupts_were_enabled) {
     2fc:	66 23       	and	r22, r22
     2fe:	19 f0       	breq	.+6      	; 0x306 <button_pushed+0x5a>
			// Turn them back on again
			sei();
     300:	78 94       	sei
     302:	08 95       	ret
	// Empty the button push queue
	queue_length = 0;
}

int8_t button_pushed(void) {
	int8_t return_value = -1;	// Assume no button pushed
     304:	8f ef       	ldi	r24, 0xFF	; 255
			// Turn them back on again
			sei();
		}
	}
	return return_value;
}
     306:	08 95       	ret

00000308 <__vector_5>:

// Interrupt handler for a change on buttons
ISR(PCINT1_vect) {
     308:	1f 92       	push	r1
     30a:	0f 92       	push	r0
     30c:	0f b6       	in	r0, 0x3f	; 63
     30e:	0f 92       	push	r0
     310:	11 24       	eor	r1, r1
     312:	2f 93       	push	r18
     314:	3f 93       	push	r19
     316:	4f 93       	push	r20
     318:	5f 93       	push	r21
     31a:	6f 93       	push	r22
     31c:	7f 93       	push	r23
     31e:	8f 93       	push	r24
     320:	9f 93       	push	r25
     322:	ef 93       	push	r30
     324:	ff 93       	push	r31
	// Get the current state of the buttons. We'll compare this with
	// the last state to see what has changed.
	uint8_t button_state = PINB & 0x0F;
     326:	73 b1       	in	r23, 0x03	; 3
     328:	7f 70       	andi	r23, 0x0F	; 15
     32a:	80 e0       	ldi	r24, 0x00	; 0
     32c:	90 e0       	ldi	r25, 0x00	; 0
	// Any button pushes are added to the queue of button pushes (if
	// there is space). We ignore button releases so we're just looking
	// for a transition from 0 in the last_button_state bit to a 1 in the 
	// button_state.
	for(uint8_t pin=0; pin<=3; pin++) {
		if(queue_length < BUTTON_QUEUE_SIZE && 
     32e:	47 2f       	mov	r20, r23
     330:	50 e0       	ldi	r21, 0x00	; 0
     332:	20 91 30 01 	lds	r18, 0x0130
     336:	24 30       	cpi	r18, 0x04	; 4
     338:	04 f5       	brge	.+64     	; 0x37a <__vector_5+0x72>
     33a:	9a 01       	movw	r18, r20
     33c:	08 2e       	mov	r0, r24
     33e:	02 c0       	rjmp	.+4      	; 0x344 <__vector_5+0x3c>
     340:	35 95       	asr	r19
     342:	27 95       	ror	r18
     344:	0a 94       	dec	r0
     346:	e2 f7       	brpl	.-8      	; 0x340 <__vector_5+0x38>
     348:	20 ff       	sbrs	r18, 0
     34a:	17 c0       	rjmp	.+46     	; 0x37a <__vector_5+0x72>
				(button_state & (1<<pin)) && 
				!(last_button_state & (1<<pin))) {
     34c:	20 91 35 01 	lds	r18, 0x0135
     350:	30 e0       	ldi	r19, 0x00	; 0
     352:	08 2e       	mov	r0, r24
     354:	02 c0       	rjmp	.+4      	; 0x35a <__vector_5+0x52>
     356:	35 95       	asr	r19
     358:	27 95       	ror	r18
     35a:	0a 94       	dec	r0
     35c:	e2 f7       	brpl	.-8      	; 0x356 <__vector_5+0x4e>
	// there is space). We ignore button releases so we're just looking
	// for a transition from 0 in the last_button_state bit to a 1 in the 
	// button_state.
	for(uint8_t pin=0; pin<=3; pin++) {
		if(queue_length < BUTTON_QUEUE_SIZE && 
				(button_state & (1<<pin)) && 
     35e:	20 fd       	sbrc	r18, 0
     360:	0c c0       	rjmp	.+24     	; 0x37a <__vector_5+0x72>
				!(last_button_state & (1<<pin))) {
			// Add the button push to the queue (and update the
			// length of the queue
			button_queue[queue_length++] = pin;
     362:	e0 91 30 01 	lds	r30, 0x0130
     366:	21 e0       	ldi	r18, 0x01	; 1
     368:	2e 0f       	add	r18, r30
     36a:	20 93 30 01 	sts	0x0130, r18
     36e:	ff 27       	eor	r31, r31
     370:	e7 fd       	sbrc	r30, 7
     372:	f0 95       	com	r31
     374:	ef 5c       	subi	r30, 0xCF	; 207
     376:	fe 4f       	sbci	r31, 0xFE	; 254
     378:	80 83       	st	Z, r24
     37a:	01 96       	adiw	r24, 0x01	; 1
	// Iterate over all the buttons and see which ones have changed.
	// Any button pushes are added to the queue of button pushes (if
	// there is space). We ignore button releases so we're just looking
	// for a transition from 0 in the last_button_state bit to a 1 in the 
	// button_state.
	for(uint8_t pin=0; pin<=3; pin++) {
     37c:	84 30       	cpi	r24, 0x04	; 4
     37e:	91 05       	cpc	r25, r1
     380:	c1 f6       	brne	.-80     	; 0x332 <__vector_5+0x2a>
			button_queue[queue_length++] = pin;
		}
	}
	
	// Remember this button state
	last_button_state = button_state;
     382:	70 93 35 01 	sts	0x0135, r23
     386:	ff 91       	pop	r31
     388:	ef 91       	pop	r30
     38a:	9f 91       	pop	r25
     38c:	8f 91       	pop	r24
     38e:	7f 91       	pop	r23
     390:	6f 91       	pop	r22
     392:	5f 91       	pop	r21
     394:	4f 91       	pop	r20
     396:	3f 91       	pop	r19
     398:	2f 91       	pop	r18
     39a:	0f 90       	pop	r0
     39c:	0f be       	out	0x3f, r0	; 63
     39e:	0f 90       	pop	r0
     3a0:	1f 90       	pop	r1
     3a2:	18 95       	reti

000003a4 <frog_alive_at>:
/////////////////////////////// Private (Helper) Functions /////////////////////

// Return 1 if the frog can jump to the given position (i.e. it is not occupied by 
// a vehicle), or, if in the river, then it IS occupied by a log, or, if the final
// riverbank then that space is free.
static uint8_t frog_alive_at(uint8_t row, uint8_t column) {
     3a4:	0f 93       	push	r16
     3a6:	1f 93       	push	r17
     3a8:	a6 2f       	mov	r26, r22
	uint8_t lane, channel, bit_position;
	switch(row) {
     3aa:	48 2f       	mov	r20, r24
     3ac:	50 e0       	ldi	r21, 0x00	; 0
     3ae:	48 30       	cpi	r20, 0x08	; 8
     3b0:	51 05       	cpc	r21, r1
     3b2:	08 f0       	brcs	.+2      	; 0x3b6 <frog_alive_at+0x12>
     3b4:	5f c0       	rjmp	.+190    	; 0x474 <frog_alive_at+0xd0>
     3b6:	fa 01       	movw	r30, r20
     3b8:	e2 5c       	subi	r30, 0xC2	; 194
     3ba:	ff 4f       	sbci	r31, 0xFF	; 255
     3bc:	0c 94 a2 0e 	jmp	0x1d44	; 0x1d44 <__tablejump2__>
		case 0: // always safe
		case 4: // always safe
			return 1;
     3c0:	81 e0       	ldi	r24, 0x01	; 1
     3c2:	59 c0       	rjmp	.+178    	; 0x476 <frog_alive_at+0xd2>
			break;
		case 1:
		case 2:
		case 3:
			lane = row - 1;
     3c4:	2f ef       	ldi	r18, 0xFF	; 255
     3c6:	28 0f       	add	r18, r24
			bit_position = lane_position[lane] + column;
     3c8:	30 e0       	ldi	r19, 0x00	; 0
     3ca:	f9 01       	movw	r30, r18
     3cc:	e4 5c       	subi	r30, 0xC4	; 196
     3ce:	fe 4f       	sbci	r31, 0xFE	; 254
     3d0:	90 81       	ld	r25, Z
     3d2:	8a 2f       	mov	r24, r26
     3d4:	89 0f       	add	r24, r25
			if(bit_position >= LANE_DATA_WIDTH) {
     3d6:	80 32       	cpi	r24, 0x20	; 32
     3d8:	08 f0       	brcs	.+2      	; 0x3dc <frog_alive_at+0x38>
				bit_position -= LANE_DATA_WIDTH;
     3da:	80 52       	subi	r24, 0x20	; 32
			}
			return !((lane_data[lane] >> bit_position) & 1);
     3dc:	f9 01       	movw	r30, r18
     3de:	ee 0f       	add	r30, r30
     3e0:	ff 1f       	adc	r31, r31
     3e2:	ee 0f       	add	r30, r30
     3e4:	ff 1f       	adc	r31, r31
     3e6:	e2 5b       	subi	r30, 0xB2	; 178
     3e8:	fe 4f       	sbci	r31, 0xFE	; 254
     3ea:	40 81       	ld	r20, Z
     3ec:	51 81       	ldd	r21, Z+1	; 0x01
     3ee:	62 81       	ldd	r22, Z+2	; 0x02
     3f0:	73 81       	ldd	r23, Z+3	; 0x03
     3f2:	8a 01       	movw	r16, r20
     3f4:	9b 01       	movw	r18, r22
     3f6:	04 c0       	rjmp	.+8      	; 0x400 <frog_alive_at+0x5c>
     3f8:	36 95       	lsr	r19
     3fa:	27 95       	ror	r18
     3fc:	17 95       	ror	r17
     3fe:	07 95       	ror	r16
     400:	8a 95       	dec	r24
     402:	d2 f7       	brpl	.-12     	; 0x3f8 <frog_alive_at+0x54>
     404:	d9 01       	movw	r26, r18
     406:	c8 01       	movw	r24, r16
     408:	11 e0       	ldi	r17, 0x01	; 1
     40a:	81 27       	eor	r24, r17
     40c:	81 70       	andi	r24, 0x01	; 1
     40e:	33 c0       	rjmp	.+102    	; 0x476 <frog_alive_at+0xd2>
			break;
		case 5:
		case 6:
			channel = row - 5;
     410:	2b ef       	ldi	r18, 0xFB	; 251
     412:	28 0f       	add	r18, r24
			bit_position = log_position[channel] + column;
     414:	30 e0       	ldi	r19, 0x00	; 0
     416:	f9 01       	movw	r30, r18
     418:	e6 5c       	subi	r30, 0xC6	; 198
     41a:	fe 4f       	sbci	r31, 0xFE	; 254
     41c:	90 81       	ld	r25, Z
     41e:	8a 2f       	mov	r24, r26
     420:	89 0f       	add	r24, r25
			if(bit_position >= LOG_DATA_WIDTH) {
     422:	80 32       	cpi	r24, 0x20	; 32
     424:	08 f0       	brcs	.+2      	; 0x428 <frog_alive_at+0x84>
				bit_position -= LOG_DATA_WIDTH;
     426:	80 52       	subi	r24, 0x20	; 32
			}
			return (log_data[channel] >> bit_position) & 1;
     428:	f9 01       	movw	r30, r18
     42a:	ee 0f       	add	r30, r30
     42c:	ff 1f       	adc	r31, r31
     42e:	ee 0f       	add	r30, r30
     430:	ff 1f       	adc	r31, r31
     432:	e6 5a       	subi	r30, 0xA6	; 166
     434:	fe 4f       	sbci	r31, 0xFE	; 254
     436:	40 81       	ld	r20, Z
     438:	51 81       	ldd	r21, Z+1	; 0x01
     43a:	62 81       	ldd	r22, Z+2	; 0x02
     43c:	73 81       	ldd	r23, Z+3	; 0x03
     43e:	8a 01       	movw	r16, r20
     440:	9b 01       	movw	r18, r22
     442:	04 c0       	rjmp	.+8      	; 0x44c <frog_alive_at+0xa8>
     444:	36 95       	lsr	r19
     446:	27 95       	ror	r18
     448:	17 95       	ror	r17
     44a:	07 95       	ror	r16
     44c:	8a 95       	dec	r24
     44e:	d2 f7       	brpl	.-12     	; 0x444 <frog_alive_at+0xa0>
     450:	d9 01       	movw	r26, r18
     452:	c8 01       	movw	r24, r16
     454:	81 70       	andi	r24, 0x01	; 1
     456:	0f c0       	rjmp	.+30     	; 0x476 <frog_alive_at+0xd2>
			break;
		case 7:
			return !((riverbank_status >> column) & 1);
     458:	20 91 36 01 	lds	r18, 0x0136
     45c:	30 91 37 01 	lds	r19, 0x0137
     460:	c9 01       	movw	r24, r18
     462:	02 c0       	rjmp	.+4      	; 0x468 <frog_alive_at+0xc4>
     464:	96 95       	lsr	r25
     466:	87 95       	ror	r24
     468:	aa 95       	dec	r26
     46a:	e2 f7       	brpl	.-8      	; 0x464 <frog_alive_at+0xc0>
     46c:	11 e0       	ldi	r17, 0x01	; 1
     46e:	81 27       	eor	r24, r17
     470:	81 70       	andi	r24, 0x01	; 1
     472:	01 c0       	rjmp	.+2      	; 0x476 <frog_alive_at+0xd2>
			break;	
	}
	// Should never get here (unless row invalid)
	return 0;
     474:	80 e0       	ldi	r24, 0x00	; 0
}
     476:	1f 91       	pop	r17
     478:	0f 91       	pop	r16
     47a:	08 95       	ret

0000047c <redraw_roadside>:
	}
}


// Redraw the given roadside row (0 or 4). The frog is not redrawn.
static void redraw_roadside(uint8_t row) {
     47c:	cf 93       	push	r28
     47e:	df 93       	push	r29
     480:	cd b7       	in	r28, 0x3d	; 61
     482:	de b7       	in	r29, 0x3e	; 62
     484:	60 97       	sbiw	r28, 0x10	; 16
     486:	0f b6       	in	r0, 0x3f	; 63
     488:	f8 94       	cli
     48a:	de bf       	out	0x3e, r29	; 62
     48c:	0f be       	out	0x3f, r0	; 63
     48e:	cd bf       	out	0x3d, r28	; 61
     490:	fe 01       	movw	r30, r28
     492:	31 96       	adiw	r30, 0x01	; 1
     494:	9e 01       	movw	r18, r28
     496:	2f 5e       	subi	r18, 0xEF	; 239
     498:	3f 4f       	sbci	r19, 0xFF	; 255
	MatrixRow row_display_data;
	uint8_t i;
	for(i=0;i<=15;i++) {
		row_display_data[i] = COLOUR_EDGES;
     49a:	92 e1       	ldi	r25, 0x12	; 18
     49c:	91 93       	st	Z+, r25

// Redraw the given roadside row (0 or 4). The frog is not redrawn.
static void redraw_roadside(uint8_t row) {
	MatrixRow row_display_data;
	uint8_t i;
	for(i=0;i<=15;i++) {
     49e:	e2 17       	cp	r30, r18
     4a0:	f3 07       	cpc	r31, r19
     4a2:	e1 f7       	brne	.-8      	; 0x49c <redraw_roadside+0x20>
		row_display_data[i] = COLOUR_EDGES;
	}
	ledmatrix_update_row(row, row_display_data);
     4a4:	be 01       	movw	r22, r28
     4a6:	6f 5f       	subi	r22, 0xFF	; 255
     4a8:	7f 4f       	sbci	r23, 0xFF	; 255
     4aa:	0e 94 66 07 	call	0xecc	; 0xecc <ledmatrix_update_row>
}
     4ae:	60 96       	adiw	r28, 0x10	; 16
     4b0:	0f b6       	in	r0, 0x3f	; 63
     4b2:	f8 94       	cli
     4b4:	de bf       	out	0x3e, r29	; 62
     4b6:	0f be       	out	0x3f, r0	; 63
     4b8:	cd bf       	out	0x3d, r28	; 61
     4ba:	df 91       	pop	r29
     4bc:	cf 91       	pop	r28
     4be:	08 95       	ret

000004c0 <redraw_traffic_lane>:

// Redraw the given traffic lane (0, 1, 2). The frog is not redrawn.
static void redraw_traffic_lane(uint8_t lane) {
     4c0:	af 92       	push	r10
     4c2:	bf 92       	push	r11
     4c4:	df 92       	push	r13
     4c6:	ef 92       	push	r14
     4c8:	ff 92       	push	r15
     4ca:	0f 93       	push	r16
     4cc:	1f 93       	push	r17
     4ce:	cf 93       	push	r28
     4d0:	df 93       	push	r29
     4d2:	cd b7       	in	r28, 0x3d	; 61
     4d4:	de b7       	in	r29, 0x3e	; 62
     4d6:	60 97       	sbiw	r28, 0x10	; 16
     4d8:	0f b6       	in	r0, 0x3f	; 63
     4da:	f8 94       	cli
     4dc:	de bf       	out	0x3e, r29	; 62
     4de:	0f be       	out	0x3f, r0	; 63
     4e0:	cd bf       	out	0x3d, r28	; 61
	MatrixRow row_display_data;
	uint8_t i;
	uint8_t bit_position = lane_position[lane];
     4e2:	48 2f       	mov	r20, r24
     4e4:	50 e0       	ldi	r21, 0x00	; 0
     4e6:	fa 01       	movw	r30, r20
     4e8:	e4 5c       	subi	r30, 0xC4	; 196
     4ea:	fe 4f       	sbci	r31, 0xFE	; 254
     4ec:	90 81       	ld	r25, Z
	for(i=0; i<=15; i++) {
		if((lane_data[lane] >> bit_position) & 1) {
     4ee:	fa 01       	movw	r30, r20
     4f0:	ee 0f       	add	r30, r30
     4f2:	ff 1f       	adc	r31, r31
     4f4:	ee 0f       	add	r30, r30
     4f6:	ff 1f       	adc	r31, r31
     4f8:	e2 5b       	subi	r30, 0xB2	; 178
     4fa:	fe 4f       	sbci	r31, 0xFE	; 254
     4fc:	00 81       	ld	r16, Z
     4fe:	11 81       	ldd	r17, Z+1	; 0x01
     500:	22 81       	ldd	r18, Z+2	; 0x02
     502:	33 81       	ldd	r19, Z+3	; 0x03
     504:	fe 01       	movw	r30, r28
     506:	31 96       	adiw	r30, 0x01	; 1
     508:	5e 01       	movw	r10, r28
     50a:	61 e1       	ldi	r22, 0x11	; 17
     50c:	a6 0e       	add	r10, r22
     50e:	b1 1c       	adc	r11, r1
			row_display_data[i] = vehicle_colours[lane];
     510:	da 01       	movw	r26, r20
     512:	ac 5f       	subi	r26, 0xFC	; 252
     514:	be 4f       	sbci	r27, 0xFE	; 254
     516:	7d 01       	movw	r14, r26
			row_display_data[i] = COLOUR_ROAD;
		}
		bit_position++;
		if(bit_position >= LANE_DATA_WIDTH) {
			// Wrap around in our lane data
			bit_position = 0;
     518:	d1 2c       	mov	r13, r1
static void redraw_traffic_lane(uint8_t lane) {
	MatrixRow row_display_data;
	uint8_t i;
	uint8_t bit_position = lane_position[lane];
	for(i=0; i<=15; i++) {
		if((lane_data[lane] >> bit_position) & 1) {
     51a:	b9 01       	movw	r22, r18
     51c:	a8 01       	movw	r20, r16
     51e:	09 2e       	mov	r0, r25
     520:	04 c0       	rjmp	.+8      	; 0x52a <redraw_traffic_lane+0x6a>
     522:	76 95       	lsr	r23
     524:	67 95       	ror	r22
     526:	57 95       	ror	r21
     528:	47 95       	ror	r20
     52a:	0a 94       	dec	r0
     52c:	d2 f7       	brpl	.-12     	; 0x522 <redraw_traffic_lane+0x62>
     52e:	40 ff       	sbrs	r20, 0
     530:	04 c0       	rjmp	.+8      	; 0x53a <redraw_traffic_lane+0x7a>
			row_display_data[i] = vehicle_colours[lane];
     532:	d7 01       	movw	r26, r14
     534:	4c 91       	ld	r20, X
     536:	40 83       	st	Z, r20
     538:	01 c0       	rjmp	.+2      	; 0x53c <redraw_traffic_lane+0x7c>
			} else {
			row_display_data[i] = COLOUR_ROAD;
     53a:	10 82       	st	Z, r1
		}
		bit_position++;
     53c:	9f 5f       	subi	r25, 0xFF	; 255
		if(bit_position >= LANE_DATA_WIDTH) {
     53e:	90 32       	cpi	r25, 0x20	; 32
     540:	08 f0       	brcs	.+2      	; 0x544 <redraw_traffic_lane+0x84>
			// Wrap around in our lane data
			bit_position = 0;
     542:	9d 2d       	mov	r25, r13
     544:	31 96       	adiw	r30, 0x01	; 1
// Redraw the given traffic lane (0, 1, 2). The frog is not redrawn.
static void redraw_traffic_lane(uint8_t lane) {
	MatrixRow row_display_data;
	uint8_t i;
	uint8_t bit_position = lane_position[lane];
	for(i=0; i<=15; i++) {
     546:	ea 15       	cp	r30, r10
     548:	fb 05       	cpc	r31, r11
     54a:	39 f7       	brne	.-50     	; 0x51a <redraw_traffic_lane+0x5a>
		if(bit_position >= LANE_DATA_WIDTH) {
			// Wrap around in our lane data
			bit_position = 0;
		}
	}
	ledmatrix_update_row(lane+FIRST_VEHICLE_ROW, row_display_data);
     54c:	be 01       	movw	r22, r28
     54e:	6f 5f       	subi	r22, 0xFF	; 255
     550:	7f 4f       	sbci	r23, 0xFF	; 255
     552:	8f 5f       	subi	r24, 0xFF	; 255
     554:	0e 94 66 07 	call	0xecc	; 0xecc <ledmatrix_update_row>
}
     558:	60 96       	adiw	r28, 0x10	; 16
     55a:	0f b6       	in	r0, 0x3f	; 63
     55c:	f8 94       	cli
     55e:	de bf       	out	0x3e, r29	; 62
     560:	0f be       	out	0x3f, r0	; 63
     562:	cd bf       	out	0x3d, r28	; 61
     564:	df 91       	pop	r29
     566:	cf 91       	pop	r28
     568:	1f 91       	pop	r17
     56a:	0f 91       	pop	r16
     56c:	ff 90       	pop	r15
     56e:	ef 90       	pop	r14
     570:	df 90       	pop	r13
     572:	bf 90       	pop	r11
     574:	af 90       	pop	r10
     576:	08 95       	ret

00000578 <redraw_river_channel>:

// Redraw the given river channel (0 or 1). The frog is not redrawn.
static void redraw_river_channel(uint8_t channel) {
     578:	ef 92       	push	r14
     57a:	ff 92       	push	r15
     57c:	0f 93       	push	r16
     57e:	1f 93       	push	r17
     580:	cf 93       	push	r28
     582:	df 93       	push	r29
     584:	cd b7       	in	r28, 0x3d	; 61
     586:	de b7       	in	r29, 0x3e	; 62
     588:	60 97       	sbiw	r28, 0x10	; 16
     58a:	0f b6       	in	r0, 0x3f	; 63
     58c:	f8 94       	cli
     58e:	de bf       	out	0x3e, r29	; 62
     590:	0f be       	out	0x3f, r0	; 63
     592:	cd bf       	out	0x3d, r28	; 61
	MatrixRow row_display_data;
	uint8_t i;
	uint8_t bit_position = log_position[channel];
     594:	28 2f       	mov	r18, r24
     596:	30 e0       	ldi	r19, 0x00	; 0
     598:	f9 01       	movw	r30, r18
     59a:	e6 5c       	subi	r30, 0xC6	; 198
     59c:	fe 4f       	sbci	r31, 0xFE	; 254
     59e:	90 81       	ld	r25, Z
	for(i=0; i<=15; i++) {
		if((log_data[channel] >> bit_position) & 1) {
     5a0:	f9 01       	movw	r30, r18
     5a2:	ee 0f       	add	r30, r30
     5a4:	ff 1f       	adc	r31, r31
     5a6:	ee 0f       	add	r30, r30
     5a8:	ff 1f       	adc	r31, r31
     5aa:	e6 5a       	subi	r30, 0xA6	; 166
     5ac:	fe 4f       	sbci	r31, 0xFE	; 254
     5ae:	00 81       	ld	r16, Z
     5b0:	11 81       	ldd	r17, Z+1	; 0x01
     5b2:	22 81       	ldd	r18, Z+2	; 0x02
     5b4:	33 81       	ldd	r19, Z+3	; 0x03
     5b6:	fe 01       	movw	r30, r28
     5b8:	31 96       	adiw	r30, 0x01	; 1
     5ba:	de 01       	movw	r26, r28
     5bc:	51 96       	adiw	r26, 0x11	; 17
			row_display_data[i] = COLOUR_LOGS;
     5be:	0f 2e       	mov	r0, r31
     5c0:	fc e3       	ldi	r31, 0x3C	; 60
     5c2:	ef 2e       	mov	r14, r31
     5c4:	f0 2d       	mov	r31, r0
			} else {
			row_display_data[i] = COLOUR_WATER;
		}
		bit_position++;
		if(bit_position >= LOG_DATA_WIDTH) {
			bit_position = 0;
     5c6:	f1 2c       	mov	r15, r1
static void redraw_river_channel(uint8_t channel) {
	MatrixRow row_display_data;
	uint8_t i;
	uint8_t bit_position = log_position[channel];
	for(i=0; i<=15; i++) {
		if((log_data[channel] >> bit_position) & 1) {
     5c8:	b9 01       	movw	r22, r18
     5ca:	a8 01       	movw	r20, r16
     5cc:	09 2e       	mov	r0, r25
     5ce:	04 c0       	rjmp	.+8      	; 0x5d8 <redraw_river_channel+0x60>
     5d0:	76 95       	lsr	r23
     5d2:	67 95       	ror	r22
     5d4:	57 95       	ror	r21
     5d6:	47 95       	ror	r20
     5d8:	0a 94       	dec	r0
     5da:	d2 f7       	brpl	.-12     	; 0x5d0 <redraw_river_channel+0x58>
     5dc:	40 ff       	sbrs	r20, 0
     5de:	02 c0       	rjmp	.+4      	; 0x5e4 <redraw_river_channel+0x6c>
			row_display_data[i] = COLOUR_LOGS;
     5e0:	e0 82       	st	Z, r14
     5e2:	01 c0       	rjmp	.+2      	; 0x5e6 <redraw_river_channel+0x6e>
			} else {
			row_display_data[i] = COLOUR_WATER;
     5e4:	10 82       	st	Z, r1
		}
		bit_position++;
     5e6:	9f 5f       	subi	r25, 0xFF	; 255
		if(bit_position >= LOG_DATA_WIDTH) {
     5e8:	90 32       	cpi	r25, 0x20	; 32
     5ea:	08 f0       	brcs	.+2      	; 0x5ee <redraw_river_channel+0x76>
			bit_position = 0;
     5ec:	9f 2d       	mov	r25, r15
     5ee:	31 96       	adiw	r30, 0x01	; 1
// Redraw the given river channel (0 or 1). The frog is not redrawn.
static void redraw_river_channel(uint8_t channel) {
	MatrixRow row_display_data;
	uint8_t i;
	uint8_t bit_position = log_position[channel];
	for(i=0; i<=15; i++) {
     5f0:	ea 17       	cp	r30, r26
     5f2:	fb 07       	cpc	r31, r27
     5f4:	49 f7       	brne	.-46     	; 0x5c8 <redraw_river_channel+0x50>
		bit_position++;
		if(bit_position >= LOG_DATA_WIDTH) {
			bit_position = 0;
		}
	}
	ledmatrix_update_row(channel+FIRST_RIVER_ROW, row_display_data);
     5f6:	be 01       	movw	r22, r28
     5f8:	6f 5f       	subi	r22, 0xFF	; 255
     5fa:	7f 4f       	sbci	r23, 0xFF	; 255
     5fc:	8b 5f       	subi	r24, 0xFB	; 251
     5fe:	0e 94 66 07 	call	0xecc	; 0xecc <ledmatrix_update_row>
}
     602:	60 96       	adiw	r28, 0x10	; 16
     604:	0f b6       	in	r0, 0x3f	; 63
     606:	f8 94       	cli
     608:	de bf       	out	0x3e, r29	; 62
     60a:	0f be       	out	0x3f, r0	; 63
     60c:	cd bf       	out	0x3d, r28	; 61
     60e:	df 91       	pop	r29
     610:	cf 91       	pop	r28
     612:	1f 91       	pop	r17
     614:	0f 91       	pop	r16
     616:	ff 90       	pop	r15
     618:	ef 90       	pop	r14
     61a:	08 95       	ret

0000061c <redraw_riverbank>:

// Redraw the riverbank (top row). Previous frogs which have made it to a hole
// at the top are shown.
static void redraw_riverbank(void) {
     61c:	ef 92       	push	r14
     61e:	ff 92       	push	r15
     620:	0f 93       	push	r16
     622:	1f 93       	push	r17
     624:	cf 93       	push	r28
     626:	df 93       	push	r29
     628:	cd b7       	in	r28, 0x3d	; 61
     62a:	de b7       	in	r29, 0x3e	; 62
     62c:	60 97       	sbiw	r28, 0x10	; 16
     62e:	0f b6       	in	r0, 0x3f	; 63
     630:	f8 94       	cli
     632:	de bf       	out	0x3e, r29	; 62
     634:	0f be       	out	0x3f, r0	; 63
     636:	cd bf       	out	0x3d, r28	; 61
	MatrixRow row_display_data;
	uint8_t i;
	// Blank out spaces in our rowdata where there are holes in the riverbank
	for(i=0; i<= 15; i++) {
		if((riverbank >> i) & 1) {
     638:	a0 91 38 01 	lds	r26, 0x0138
     63c:	b0 91 39 01 	lds	r27, 0x0139
			// Riverbank edge
			row_display_data[i] = COLOUR_EDGES;
		} else if ((riverbank_status >> i) & 1) {
     640:	00 91 36 01 	lds	r16, 0x0136
     644:	10 91 37 01 	lds	r17, 0x0137
     648:	fe 01       	movw	r30, r28
     64a:	31 96       	adiw	r30, 0x01	; 1
     64c:	bf 01       	movw	r22, r30
     64e:	ae 01       	movw	r20, r28
     650:	4f 5e       	subi	r20, 0xEF	; 239
     652:	5f 4f       	sbci	r21, 0xFF	; 255
			// Frog occupying a hole
			row_display_data[i] = COLOUR_FROG;
     654:	0f 2e       	mov	r0, r31
     656:	f0 ef       	ldi	r31, 0xF0	; 240
     658:	ef 2e       	mov	r14, r31
     65a:	f0 2d       	mov	r31, r0
	uint8_t i;
	// Blank out spaces in our rowdata where there are holes in the riverbank
	for(i=0; i<= 15; i++) {
		if((riverbank >> i) & 1) {
			// Riverbank edge
			row_display_data[i] = COLOUR_EDGES;
     65c:	0f 2e       	mov	r0, r31
     65e:	f2 e1       	ldi	r31, 0x12	; 18
     660:	ff 2e       	mov	r15, r31
     662:	f0 2d       	mov	r31, r0
     664:	cf 01       	movw	r24, r30
     666:	86 1b       	sub	r24, r22
     668:	97 0b       	sbc	r25, r23
static void redraw_riverbank(void) {
	MatrixRow row_display_data;
	uint8_t i;
	// Blank out spaces in our rowdata where there are holes in the riverbank
	for(i=0; i<= 15; i++) {
		if((riverbank >> i) & 1) {
     66a:	9d 01       	movw	r18, r26
     66c:	08 2e       	mov	r0, r24
     66e:	02 c0       	rjmp	.+4      	; 0x674 <redraw_riverbank+0x58>
     670:	36 95       	lsr	r19
     672:	27 95       	ror	r18
     674:	0a 94       	dec	r0
     676:	e2 f7       	brpl	.-8      	; 0x670 <redraw_riverbank+0x54>
     678:	20 ff       	sbrs	r18, 0
     67a:	02 c0       	rjmp	.+4      	; 0x680 <redraw_riverbank+0x64>
			// Riverbank edge
			row_display_data[i] = COLOUR_EDGES;
     67c:	f0 82       	st	Z, r15
     67e:	0b c0       	rjmp	.+22     	; 0x696 <redraw_riverbank+0x7a>
		} else if ((riverbank_status >> i) & 1) {
     680:	98 01       	movw	r18, r16
     682:	02 c0       	rjmp	.+4      	; 0x688 <redraw_riverbank+0x6c>
     684:	36 95       	lsr	r19
     686:	27 95       	ror	r18
     688:	8a 95       	dec	r24
     68a:	e2 f7       	brpl	.-8      	; 0x684 <redraw_riverbank+0x68>
     68c:	20 ff       	sbrs	r18, 0
     68e:	02 c0       	rjmp	.+4      	; 0x694 <redraw_riverbank+0x78>
			// Frog occupying a hole
			row_display_data[i] = COLOUR_FROG;
     690:	e0 82       	st	Z, r14
     692:	01 c0       	rjmp	.+2      	; 0x696 <redraw_riverbank+0x7a>
		} else {
			// Empty hole
			row_display_data[i] = 0;
     694:	10 82       	st	Z, r1
     696:	31 96       	adiw	r30, 0x01	; 1
// at the top are shown.
static void redraw_riverbank(void) {
	MatrixRow row_display_data;
	uint8_t i;
	// Blank out spaces in our rowdata where there are holes in the riverbank
	for(i=0; i<= 15; i++) {
     698:	e4 17       	cp	r30, r20
     69a:	f5 07       	cpc	r31, r21
     69c:	19 f7       	brne	.-58     	; 0x664 <redraw_riverbank+0x48>
			// Empty hole
			row_display_data[i] = 0;
		}
	}
	// Output our riverbank to the display
	ledmatrix_update_row(RIVERBANK_ROW, row_display_data);
     69e:	be 01       	movw	r22, r28
     6a0:	6f 5f       	subi	r22, 0xFF	; 255
     6a2:	7f 4f       	sbci	r23, 0xFF	; 255
     6a4:	87 e0       	ldi	r24, 0x07	; 7
     6a6:	0e 94 66 07 	call	0xecc	; 0xecc <ledmatrix_update_row>
}
     6aa:	60 96       	adiw	r28, 0x10	; 16
     6ac:	0f b6       	in	r0, 0x3f	; 63
     6ae:	f8 94       	cli
     6b0:	de bf       	out	0x3e, r29	; 62
     6b2:	0f be       	out	0x3f, r0	; 63
     6b4:	cd bf       	out	0x3d, r28	; 61
     6b6:	df 91       	pop	r29
     6b8:	cf 91       	pop	r28
     6ba:	1f 91       	pop	r17
     6bc:	0f 91       	pop	r16
     6be:	ff 90       	pop	r15
     6c0:	ef 90       	pop	r14
     6c2:	08 95       	ret

000006c4 <redraw_row>:
// Redraw the row with the given number (0 to 7). The frog is not redrawn.
static void redraw_row(uint8_t row) {	
	// Remove frog from current position (we need to update the display
	// so it shows the right colour pixel in its place). We know the frog
	// must be either on a road edge, on the road or on a log.
	switch(row) {
     6c4:	48 2f       	mov	r20, r24
     6c6:	50 e0       	ldi	r21, 0x00	; 0
     6c8:	48 30       	cpi	r20, 0x08	; 8
     6ca:	51 05       	cpc	r21, r1
     6cc:	90 f4       	brcc	.+36     	; 0x6f2 <redraw_row+0x2e>
     6ce:	fa 01       	movw	r30, r20
     6d0:	ea 5b       	subi	r30, 0xBA	; 186
     6d2:	ff 4f       	sbci	r31, 0xFF	; 255
     6d4:	0c 94 a2 0e 	jmp	0x1d44	; 0x1d44 <__tablejump2__>
		case START_ROW:
		case HALFWAY_ROW:
			redraw_roadside(row);
     6d8:	0e 94 3e 02 	call	0x47c	; 0x47c <redraw_roadside>
			break;
     6dc:	08 95       	ret
		case FIRST_VEHICLE_ROW:
		case SECOND_VEHICLE_ROW:
		case THIRD_VEHICLE_ROW:
			redraw_traffic_lane(row-1);
     6de:	81 50       	subi	r24, 0x01	; 1
     6e0:	0e 94 60 02 	call	0x4c0	; 0x4c0 <redraw_traffic_lane>
			break;
     6e4:	08 95       	ret
		case FIRST_RIVER_ROW:
		case SECOND_RIVER_ROW:
			redraw_river_channel(row-5);
     6e6:	85 50       	subi	r24, 0x05	; 5
     6e8:	0e 94 bc 02 	call	0x578	; 0x578 <redraw_river_channel>
			break;
     6ec:	08 95       	ret
		case RIVERBANK_ROW:
			redraw_riverbank();
     6ee:	0e 94 0e 03 	call	0x61c	; 0x61c <redraw_riverbank>
     6f2:	08 95       	ret

000006f4 <redraw_frog>:
	ledmatrix_update_row(RIVERBANK_ROW, row_display_data);
}

// Redraw the frog in its current position.
static void redraw_frog(void) {
	if(frog_alive) {
     6f4:	80 91 3f 01 	lds	r24, 0x013F
     6f8:	88 23       	and	r24, r24
     6fa:	41 f0       	breq	.+16     	; 0x70c <redraw_frog+0x18>
		ledmatrix_update_pixel(frog_column, frog_row, COLOUR_FROG);
     6fc:	40 ef       	ldi	r20, 0xF0	; 240
     6fe:	60 91 41 01 	lds	r22, 0x0141
     702:	80 91 40 01 	lds	r24, 0x0140
     706:	0e 94 4c 07 	call	0xe98	; 0xe98 <ledmatrix_update_pixel>
     70a:	08 95       	ret
	} else {
		ledmatrix_update_pixel(frog_column, frog_row, COLOUR_DEAD_FROG);
     70c:	40 e3       	ldi	r20, 0x30	; 48
     70e:	60 91 41 01 	lds	r22, 0x0141
     712:	80 91 40 01 	lds	r24, 0x0140
     716:	0e 94 4c 07 	call	0xe98	; 0xe98 <ledmatrix_update_pixel>
     71a:	08 95       	ret

0000071c <generate_maps>:
		
/////////////////////////////// Public Functions ///////////////////////////////
// These functions are defined in the same order as declared in game.h

// Generate random maps
void generate_maps(void) {
     71c:	ef 92       	push	r14
     71e:	ff 92       	push	r15
     720:	0f 93       	push	r16
     722:	1f 93       	push	r17
     724:	cf 93       	push	r28
     726:	df 93       	push	r29
	// Logs
	for(int row = 0; row < 2; row++) {
		log_data[row] = (rand() & 0xFFFF) | ((uint32_t)rand() & 0xFFFF) << 16;
     728:	0e 94 f6 0e 	call	0x1dec	; 0x1dec <rand>
     72c:	ec 01       	movw	r28, r24
     72e:	0e 94 f6 0e 	call	0x1dec	; 0x1dec <rand>
     732:	aa 27       	eor	r26, r26
     734:	97 fd       	sbrc	r25, 7
     736:	a0 95       	com	r26
     738:	ba 2f       	mov	r27, r26
     73a:	dc 01       	movw	r26, r24
     73c:	99 27       	eor	r25, r25
     73e:	88 27       	eor	r24, r24
     740:	ae 01       	movw	r20, r28
     742:	60 e0       	ldi	r22, 0x00	; 0
     744:	70 e0       	ldi	r23, 0x00	; 0
     746:	84 2b       	or	r24, r20
     748:	95 2b       	or	r25, r21
     74a:	a6 2b       	or	r26, r22
     74c:	b7 2b       	or	r27, r23
     74e:	80 93 5a 01 	sts	0x015A, r24
     752:	90 93 5b 01 	sts	0x015B, r25
     756:	a0 93 5c 01 	sts	0x015C, r26
     75a:	b0 93 5d 01 	sts	0x015D, r27
     75e:	0e 94 f6 0e 	call	0x1dec	; 0x1dec <rand>
     762:	ec 01       	movw	r28, r24
     764:	0e 94 f6 0e 	call	0x1dec	; 0x1dec <rand>
     768:	aa 27       	eor	r26, r26
     76a:	97 fd       	sbrc	r25, 7
     76c:	a0 95       	com	r26
     76e:	ba 2f       	mov	r27, r26
     770:	dc 01       	movw	r26, r24
     772:	99 27       	eor	r25, r25
     774:	88 27       	eor	r24, r24
     776:	ae 01       	movw	r20, r28
     778:	60 e0       	ldi	r22, 0x00	; 0
     77a:	70 e0       	ldi	r23, 0x00	; 0
     77c:	84 2b       	or	r24, r20
     77e:	95 2b       	or	r25, r21
     780:	a6 2b       	or	r26, r22
     782:	b7 2b       	or	r27, r23
     784:	80 93 5e 01 	sts	0x015E, r24
     788:	90 93 5f 01 	sts	0x015F, r25
     78c:	a0 93 60 01 	sts	0x0160, r26
     790:	b0 93 61 01 	sts	0x0161, r27
     794:	ce e4       	ldi	r28, 0x4E	; 78
     796:	d1 e0       	ldi	r29, 0x01	; 1
     798:	0a e5       	ldi	r16, 0x5A	; 90
     79a:	11 e0       	ldi	r17, 0x01	; 1
	}
	// Lanes
	for(int row = 0; row < 3; row++) {
		lane_data[row] = (rand() & 0xFFFF) | ((uint32_t)rand() & 0xFFFF) << 16;
     79c:	0e 94 f6 0e 	call	0x1dec	; 0x1dec <rand>
     7a0:	7c 01       	movw	r14, r24
     7a2:	0e 94 f6 0e 	call	0x1dec	; 0x1dec <rand>
     7a6:	aa 27       	eor	r26, r26
     7a8:	97 fd       	sbrc	r25, 7
     7aa:	a0 95       	com	r26
     7ac:	ba 2f       	mov	r27, r26
     7ae:	dc 01       	movw	r26, r24
     7b0:	99 27       	eor	r25, r25
     7b2:	88 27       	eor	r24, r24
     7b4:	a7 01       	movw	r20, r14
     7b6:	60 e0       	ldi	r22, 0x00	; 0
     7b8:	70 e0       	ldi	r23, 0x00	; 0
     7ba:	84 2b       	or	r24, r20
     7bc:	95 2b       	or	r25, r21
     7be:	a6 2b       	or	r26, r22
     7c0:	b7 2b       	or	r27, r23
     7c2:	89 93       	st	Y+, r24
     7c4:	99 93       	st	Y+, r25
     7c6:	a9 93       	st	Y+, r26
     7c8:	b9 93       	st	Y+, r27
	// Logs
	for(int row = 0; row < 2; row++) {
		log_data[row] = (rand() & 0xFFFF) | ((uint32_t)rand() & 0xFFFF) << 16;
	}
	// Lanes
	for(int row = 0; row < 3; row++) {
     7ca:	c0 17       	cp	r28, r16
     7cc:	d1 07       	cpc	r29, r17
     7ce:	31 f7       	brne	.-52     	; 0x79c <generate_maps+0x80>
		lane_data[row] = (rand() & 0xFFFF) | ((uint32_t)rand() & 0xFFFF) << 16;
	}
}
     7d0:	df 91       	pop	r29
     7d2:	cf 91       	pop	r28
     7d4:	1f 91       	pop	r17
     7d6:	0f 91       	pop	r16
     7d8:	ff 90       	pop	r15
     7da:	ef 90       	pop	r14
     7dc:	08 95       	ret

000007de <put_frog_at_start>:
}

// Add a frog to the game
void put_frog_at_start(void) {
	// Initial starting position of frog (8,0)
	frog_row = 0;
     7de:	10 92 41 01 	sts	0x0141, r1
	frog_column = 8;
     7e2:	88 e0       	ldi	r24, 0x08	; 8
     7e4:	80 93 40 01 	sts	0x0140, r24
	
	// Frog is initially alive
	frog_alive = 1;
     7e8:	81 e0       	ldi	r24, 0x01	; 1
     7ea:	80 93 3f 01 	sts	0x013F, r24
	
	// Show the frog
	redraw_frog();
     7ee:	0e 94 7a 03 	call	0x6f4	; 0x6f4 <redraw_frog>
     7f2:	08 95       	ret

000007f4 <init_game>:
}

// Reset the game
void init_game(void) {
	// Generate random maps
	generate_maps();
     7f4:	0e 94 8e 03 	call	0x71c	; 0x71c <generate_maps>

	// Initial lane and log positions
	lane_position[0] = lane_position[1] = lane_position[2] = 0;
     7f8:	10 92 3e 01 	sts	0x013E, r1
     7fc:	10 92 3d 01 	sts	0x013D, r1
     800:	10 92 3c 01 	sts	0x013C, r1
	log_position[0] = log_position[1] = 0;
     804:	10 92 3b 01 	sts	0x013B, r1
     808:	10 92 3a 01 	sts	0x013A, r1
	
	// Initial riverbank pattern
	riverbank = RIVERBANK;
     80c:	8b ed       	ldi	r24, 0xDB	; 219
     80e:	96 eb       	ldi	r25, 0xB6	; 182
     810:	90 93 39 01 	sts	0x0139, r25
     814:	80 93 38 01 	sts	0x0138, r24
	riverbank_status = RIVERBANK;
     818:	90 93 37 01 	sts	0x0137, r25
     81c:	80 93 36 01 	sts	0x0136, r24
}

// Redraw the rows on the game field. The frog is not redrawn.
static void redraw_whole_display(void) {
	// Clear the display
	ledmatrix_clear();
     820:	0e 94 a5 07 	call	0xf4a	; 0xf4a <ledmatrix_clear>
	
	// Start with the starting and halfway rows
	redraw_roadside(START_ROW);
     824:	80 e0       	ldi	r24, 0x00	; 0
     826:	0e 94 3e 02 	call	0x47c	; 0x47c <redraw_roadside>
	redraw_roadside(HALFWAY_ROW);
     82a:	84 e0       	ldi	r24, 0x04	; 4
     82c:	0e 94 3e 02 	call	0x47c	; 0x47c <redraw_roadside>

	// Redraw traffic lanes
	for(uint8_t lane=0; lane<=2; lane++) {
		redraw_traffic_lane(lane);
     830:	80 e0       	ldi	r24, 0x00	; 0
     832:	0e 94 60 02 	call	0x4c0	; 0x4c0 <redraw_traffic_lane>
     836:	81 e0       	ldi	r24, 0x01	; 1
     838:	0e 94 60 02 	call	0x4c0	; 0x4c0 <redraw_traffic_lane>
     83c:	82 e0       	ldi	r24, 0x02	; 2
     83e:	0e 94 60 02 	call	0x4c0	; 0x4c0 <redraw_traffic_lane>
	}
	// Redraw river
	for(uint8_t channel=0; channel<=1; channel++) {
		redraw_river_channel(channel);
     842:	80 e0       	ldi	r24, 0x00	; 0
     844:	0e 94 bc 02 	call	0x578	; 0x578 <redraw_river_channel>
     848:	81 e0       	ldi	r24, 0x01	; 1
     84a:	0e 94 bc 02 	call	0x578	; 0x578 <redraw_river_channel>
	}
	// Redraw riverbank
	redraw_riverbank();
     84e:	0e 94 0e 03 	call	0x61c	; 0x61c <redraw_riverbank>
	riverbank_status = RIVERBANK;
	
	redraw_whole_display();
	
	// Add a frog to the roadside - this will redraw the frog
	put_frog_at_start();
     852:	0e 94 ef 03 	call	0x7de	; 0x7de <put_frog_at_start>
     856:	08 95       	ret

00000858 <move_frog_forward>:
	redraw_frog();
}

// This function assumes that the frog is not in row 7 (the top row). A frog in row 7 is out
// of the game.
void move_frog_forward(void) {
     858:	cf 93       	push	r28
	// Redraw the row the frog is currently on (this will remove the frog)
	redraw_row(frog_row);
     85a:	80 91 41 01 	lds	r24, 0x0141
     85e:	0e 94 62 03 	call	0x6c4	; 0x6c4 <redraw_row>
	
	// Check whether this move will cause the frog to die or not
	frog_alive = frog_alive_at(frog_row+1, frog_column);
     862:	c0 91 41 01 	lds	r28, 0x0141
     866:	cf 5f       	subi	r28, 0xFF	; 255
     868:	60 91 40 01 	lds	r22, 0x0140
     86c:	8c 2f       	mov	r24, r28
     86e:	0e 94 d2 01 	call	0x3a4	; 0x3a4 <frog_alive_at>
     872:	80 93 3f 01 	sts	0x013F, r24
	
	// Move the frog position forward and show the frog. 
	// We do this whether the frog is alive or not. 
	frog_row++;
     876:	c0 93 41 01 	sts	0x0141, r28
	redraw_frog();
     87a:	0e 94 7a 03 	call	0x6f4	; 0x6f4 <redraw_frog>
	
	// If the frog has ended up successfully in row 7 - add it to the riverbank_status flag
	if(frog_alive && frog_row == RIVERBANK_ROW) {
     87e:	80 91 3f 01 	lds	r24, 0x013F
     882:	88 23       	and	r24, r24
     884:	b9 f0       	breq	.+46     	; 0x8b4 <move_frog_forward+0x5c>
     886:	80 91 41 01 	lds	r24, 0x0141
     88a:	87 30       	cpi	r24, 0x07	; 7
     88c:	99 f4       	brne	.+38     	; 0x8b4 <move_frog_forward+0x5c>
		riverbank_status |= (1<<frog_column);
     88e:	81 e0       	ldi	r24, 0x01	; 1
     890:	90 e0       	ldi	r25, 0x00	; 0
     892:	00 90 40 01 	lds	r0, 0x0140
     896:	02 c0       	rjmp	.+4      	; 0x89c <move_frog_forward+0x44>
     898:	88 0f       	add	r24, r24
     89a:	99 1f       	adc	r25, r25
     89c:	0a 94       	dec	r0
     89e:	e2 f7       	brpl	.-8      	; 0x898 <move_frog_forward+0x40>
     8a0:	20 91 36 01 	lds	r18, 0x0136
     8a4:	30 91 37 01 	lds	r19, 0x0137
     8a8:	82 2b       	or	r24, r18
     8aa:	93 2b       	or	r25, r19
     8ac:	90 93 37 01 	sts	0x0137, r25
     8b0:	80 93 36 01 	sts	0x0136, r24
	}
}
     8b4:	cf 91       	pop	r28
     8b6:	08 95       	ret

000008b8 <move_frog_backward>:

void move_frog_backward(void) {
     8b8:	cf 93       	push	r28
	// Check whether this move is possible or not
	if(frog_row > 0) {
     8ba:	80 91 41 01 	lds	r24, 0x0141
     8be:	18 16       	cp	r1, r24
     8c0:	84 f4       	brge	.+32     	; 0x8e2 <move_frog_backward+0x2a>
		// Redraw the row the frog is currently on (this will remove the frog)
		redraw_row(frog_row);
     8c2:	0e 94 62 03 	call	0x6c4	; 0x6c4 <redraw_row>

		// Check whether this move will cause the frog to die or not
		frog_alive = frog_alive_at(frog_row-1, frog_column);
     8c6:	c0 91 41 01 	lds	r28, 0x0141
     8ca:	c1 50       	subi	r28, 0x01	; 1
     8cc:	60 91 40 01 	lds	r22, 0x0140
     8d0:	8c 2f       	mov	r24, r28
     8d2:	0e 94 d2 01 	call	0x3a4	; 0x3a4 <frog_alive_at>
     8d6:	80 93 3f 01 	sts	0x013F, r24
		
		// Move the frog position forward and show the frog. 
		// We do this whether the frog is alive or not. 
		frog_row--;
     8da:	c0 93 41 01 	sts	0x0141, r28
		redraw_frog();
     8de:	0e 94 7a 03 	call	0x6f4	; 0x6f4 <redraw_frog>
		
		// Frog can't reach riverbank going backward
	}
}
     8e2:	cf 91       	pop	r28
     8e4:	08 95       	ret

000008e6 <move_frog_left>:

void move_frog_left(void) {
     8e6:	cf 93       	push	r28
	// If the frog is already at the left hand side then do nothing (can't move further)
	// Otherwise redraw the row the frog is currently on (i.e. without the frog), check 
	// whether the frog will live or not, update the frog position and redraw the frog.

	// Check whether this move is possible or not
	if(frog_column > 0) {
     8e8:	80 91 40 01 	lds	r24, 0x0140
     8ec:	18 16       	cp	r1, r24
     8ee:	94 f4       	brge	.+36     	; 0x914 <__stack+0x15>
		// Redraw the row the frog is currently on (this will remove the frog)
		redraw_row(frog_row);
     8f0:	80 91 41 01 	lds	r24, 0x0141
     8f4:	0e 94 62 03 	call	0x6c4	; 0x6c4 <redraw_row>

		// Check whether this move will cause the frog to die or not
		frog_alive = frog_alive_at(frog_row, frog_column-1);
     8f8:	c0 91 40 01 	lds	r28, 0x0140
     8fc:	c1 50       	subi	r28, 0x01	; 1
     8fe:	6c 2f       	mov	r22, r28
     900:	80 91 41 01 	lds	r24, 0x0141
     904:	0e 94 d2 01 	call	0x3a4	; 0x3a4 <frog_alive_at>
     908:	80 93 3f 01 	sts	0x013F, r24
		
		// Move the frog position forward and show the frog. 
		// We do this whether the frog is alive or not. 
		frog_column--;
     90c:	c0 93 40 01 	sts	0x0140, r28
		redraw_frog();
     910:	0e 94 7a 03 	call	0x6f4	; 0x6f4 <redraw_frog>
		
		// Frog can't reach riverbank going left
	}
}
     914:	cf 91       	pop	r28
     916:	08 95       	ret

00000918 <move_frog_right>:

void move_frog_right(void) {
     918:	cf 93       	push	r28
	// Unimplemented

	// Check whether this move is possible or not
	if(frog_column < 15) {
     91a:	80 91 40 01 	lds	r24, 0x0140
     91e:	8f 30       	cpi	r24, 0x0F	; 15
     920:	94 f4       	brge	.+36     	; 0x946 <move_frog_right+0x2e>
		// Redraw the row the frog is currently on (this will remove the frog)
		redraw_row(frog_row);
     922:	80 91 41 01 	lds	r24, 0x0141
     926:	0e 94 62 03 	call	0x6c4	; 0x6c4 <redraw_row>

		// Check whether this move will cause the frog to die or not
		frog_alive = frog_alive_at(frog_row, frog_column+1);
     92a:	c0 91 40 01 	lds	r28, 0x0140
     92e:	cf 5f       	subi	r28, 0xFF	; 255
     930:	6c 2f       	mov	r22, r28
     932:	80 91 41 01 	lds	r24, 0x0141
     936:	0e 94 d2 01 	call	0x3a4	; 0x3a4 <frog_alive_at>
     93a:	80 93 3f 01 	sts	0x013F, r24
		
		// Move the frog position forward and show the frog. 
		// We do this whether the frog is alive or not. 
		frog_column++;
     93e:	c0 93 40 01 	sts	0x0140, r28
		redraw_frog();
     942:	0e 94 7a 03 	call	0x6f4	; 0x6f4 <redraw_frog>
		
		// Frog can't reach riverbank going left
	}
}
     946:	cf 91       	pop	r28
     948:	08 95       	ret

0000094a <is_riverbank_full>:
uint8_t get_frog_column(void) {
	return frog_column;
}

uint8_t is_riverbank_full(void) {
	return (riverbank_status == 0xFFFF);
     94a:	81 e0       	ldi	r24, 0x01	; 1
     94c:	20 91 36 01 	lds	r18, 0x0136
     950:	30 91 37 01 	lds	r19, 0x0137
     954:	2f 3f       	cpi	r18, 0xFF	; 255
     956:	3f 4f       	sbci	r19, 0xFF	; 255
     958:	09 f0       	breq	.+2      	; 0x95c <is_riverbank_full+0x12>
     95a:	80 e0       	ldi	r24, 0x00	; 0
}
     95c:	08 95       	ret

0000095e <frog_has_reached_riverbank>:

uint8_t frog_has_reached_riverbank(void) {
	return (frog_row == RIVERBANK_ROW);
     95e:	81 e0       	ldi	r24, 0x01	; 1
     960:	90 91 41 01 	lds	r25, 0x0141
     964:	97 30       	cpi	r25, 0x07	; 7
     966:	09 f0       	breq	.+2      	; 0x96a <frog_has_reached_riverbank+0xc>
     968:	80 e0       	ldi	r24, 0x00	; 0
}
     96a:	08 95       	ret

0000096c <is_frog_alive>:

uint8_t is_frog_alive(void) {
	return frog_alive;
}
     96c:	80 91 3f 01 	lds	r24, 0x013F
     970:	08 95       	ret

00000972 <scroll_lane>:

// Scroll the given lane of traffic. (lane value must be 0 to 2)
void scroll_lane(uint8_t lane, int8_t direction) {
     972:	ff 92       	push	r15
     974:	0f 93       	push	r16
     976:	1f 93       	push	r17
     978:	cf 93       	push	r28
     97a:	df 93       	push	r29
     97c:	f8 2e       	mov	r15, r24
	uint8_t frog_is_in_this_row = (frog_row == lane + FIRST_VEHICLE_ROW);
     97e:	80 91 41 01 	lds	r24, 0x0141
     982:	08 2f       	mov	r16, r24
     984:	11 27       	eor	r17, r17
     986:	07 fd       	sbrc	r16, 7
     988:	10 95       	com	r17
     98a:	2f 2d       	mov	r18, r15
     98c:	30 e0       	ldi	r19, 0x00	; 0
     98e:	e9 01       	movw	r28, r18
     990:	21 96       	adiw	r28, 0x01	; 1
	
	// Work out the new lane position.
	// Wrap numbers around if they go out of range
	// A direction of -1 indicates movement to the left which means we
	// start from a higher bit position in column 0
	lane_position[lane] -= direction;
     992:	f9 01       	movw	r30, r18
     994:	e4 5c       	subi	r30, 0xC4	; 196
     996:	fe 4f       	sbci	r31, 0xFE	; 254
     998:	90 81       	ld	r25, Z
     99a:	96 1b       	sub	r25, r22
	if(lane_position[lane] < 0) {
     99c:	32 f4       	brpl	.+12     	; 0x9aa <scroll_lane+0x38>
		lane_position[lane] = LANE_DATA_WIDTH-1;
     99e:	f9 01       	movw	r30, r18
     9a0:	e4 5c       	subi	r30, 0xC4	; 196
     9a2:	fe 4f       	sbci	r31, 0xFE	; 254
     9a4:	9f e1       	ldi	r25, 0x1F	; 31
     9a6:	90 83       	st	Z, r25
     9a8:	0b c0       	rjmp	.+22     	; 0x9c0 <scroll_lane+0x4e>
	} else if(lane_position[lane] >= LANE_DATA_WIDTH) {
     9aa:	90 32       	cpi	r25, 0x20	; 32
     9ac:	2c f4       	brge	.+10     	; 0x9b8 <scroll_lane+0x46>
	
	// Work out the new lane position.
	// Wrap numbers around if they go out of range
	// A direction of -1 indicates movement to the left which means we
	// start from a higher bit position in column 0
	lane_position[lane] -= direction;
     9ae:	f9 01       	movw	r30, r18
     9b0:	e4 5c       	subi	r30, 0xC4	; 196
     9b2:	fe 4f       	sbci	r31, 0xFE	; 254
     9b4:	90 83       	st	Z, r25
     9b6:	04 c0       	rjmp	.+8      	; 0x9c0 <scroll_lane+0x4e>
	if(lane_position[lane] < 0) {
		lane_position[lane] = LANE_DATA_WIDTH-1;
	} else if(lane_position[lane] >= LANE_DATA_WIDTH) {
		lane_position[lane] = 0;
     9b8:	f9 01       	movw	r30, r18
     9ba:	e4 5c       	subi	r30, 0xC4	; 196
     9bc:	fe 4f       	sbci	r31, 0xFE	; 254
     9be:	10 82       	st	Z, r1
	}
	// Update whether the frog will be alive or not. (The frog hasn't moved but
	// it may have been hit by a vehicle.)
	frog_alive = frog_alive_at(frog_row, frog_column);
     9c0:	60 91 40 01 	lds	r22, 0x0140
     9c4:	0e 94 d2 01 	call	0x3a4	; 0x3a4 <frog_alive_at>
     9c8:	80 93 3f 01 	sts	0x013F, r24
	
	// Show the lane on the display
	redraw_traffic_lane(lane);
     9cc:	8f 2d       	mov	r24, r15
     9ce:	0e 94 60 02 	call	0x4c0	; 0x4c0 <redraw_traffic_lane>
	
	// If the frog is in this row, show it
	if(frog_is_in_this_row) {
     9d2:	0c 17       	cp	r16, r28
     9d4:	1d 07       	cpc	r17, r29
     9d6:	11 f4       	brne	.+4      	; 0x9dc <scroll_lane+0x6a>
		redraw_frog();
     9d8:	0e 94 7a 03 	call	0x6f4	; 0x6f4 <redraw_frog>
	}
}
     9dc:	df 91       	pop	r29
     9de:	cf 91       	pop	r28
     9e0:	1f 91       	pop	r17
     9e2:	0f 91       	pop	r16
     9e4:	ff 90       	pop	r15
     9e6:	08 95       	ret

000009e8 <scroll_log_channel>:


void scroll_log_channel(uint8_t channel, int8_t direction) {
     9e8:	cf 93       	push	r28
	uint8_t frog_is_in_this_row = (frog_row == channel + FIRST_RIVER_ROW);
     9ea:	28 2f       	mov	r18, r24
     9ec:	30 e0       	ldi	r19, 0x00	; 0
     9ee:	e0 91 41 01 	lds	r30, 0x0141
     9f2:	ff 27       	eor	r31, r31
     9f4:	e7 fd       	sbrc	r30, 7
     9f6:	f0 95       	com	r31
     9f8:	a9 01       	movw	r20, r18
     9fa:	4b 5f       	subi	r20, 0xFB	; 251
     9fc:	5f 4f       	sbci	r21, 0xFF	; 255
     9fe:	c1 e0       	ldi	r28, 0x01	; 1
     a00:	e4 17       	cp	r30, r20
     a02:	f5 07       	cpc	r31, r21
     a04:	09 f0       	breq	.+2      	; 0xa08 <scroll_log_channel+0x20>
     a06:	c0 e0       	ldi	r28, 0x00	; 0
	// Note, if the frog is in this row then it will be on a log
	
	if(frog_is_in_this_row) {
     a08:	cc 23       	and	r28, r28
     a0a:	b9 f0       	breq	.+46     	; 0xa3a <scroll_log_channel+0x52>
		// Check if they're going to hit the edge - don't let the frog
		// go beyond the edge
		if(direction == 1 && frog_column == 15) {
     a0c:	61 30       	cpi	r22, 0x01	; 1
     a0e:	39 f4       	brne	.+14     	; 0xa1e <scroll_log_channel+0x36>
     a10:	90 91 40 01 	lds	r25, 0x0140
     a14:	9f 30       	cpi	r25, 0x0F	; 15
     a16:	61 f4       	brne	.+24     	; 0xa30 <scroll_log_channel+0x48>
			frog_alive = 0; // hit right edge
     a18:	10 92 3f 01 	sts	0x013F, r1
     a1c:	0e c0       	rjmp	.+28     	; 0xa3a <scroll_log_channel+0x52>
		} else if(direction == -1 && frog_column == 0) {
     a1e:	6f 3f       	cpi	r22, 0xFF	; 255
     a20:	39 f4       	brne	.+14     	; 0xa30 <scroll_log_channel+0x48>
     a22:	90 91 40 01 	lds	r25, 0x0140
     a26:	91 11       	cpse	r25, r1
     a28:	03 c0       	rjmp	.+6      	; 0xa30 <scroll_log_channel+0x48>
			frog_alive = 0; // hit left edge
     a2a:	10 92 3f 01 	sts	0x013F, r1
     a2e:	05 c0       	rjmp	.+10     	; 0xa3a <scroll_log_channel+0x52>
		} else {
			// Move the frog with the log - they're not going to hit the edge
			frog_column += direction;
     a30:	90 91 40 01 	lds	r25, 0x0140
     a34:	96 0f       	add	r25, r22
     a36:	90 93 40 01 	sts	0x0140, r25
		}
	}
		
	// Work out the new log position.
	// Wrap numbers around if they go out of range
	log_position[channel] -= direction;
     a3a:	f9 01       	movw	r30, r18
     a3c:	e6 5c       	subi	r30, 0xC6	; 198
     a3e:	fe 4f       	sbci	r31, 0xFE	; 254
     a40:	90 81       	ld	r25, Z
     a42:	96 1b       	sub	r25, r22
	if(log_position[channel] < 0) {
     a44:	32 f4       	brpl	.+12     	; 0xa52 <scroll_log_channel+0x6a>
		log_position[channel] = LOG_DATA_WIDTH-1;
     a46:	f9 01       	movw	r30, r18
     a48:	e6 5c       	subi	r30, 0xC6	; 198
     a4a:	fe 4f       	sbci	r31, 0xFE	; 254
     a4c:	9f e1       	ldi	r25, 0x1F	; 31
     a4e:	90 83       	st	Z, r25
     a50:	0b c0       	rjmp	.+22     	; 0xa68 <scroll_log_channel+0x80>
	} else if(log_position[channel] >= LOG_DATA_WIDTH) {
     a52:	90 32       	cpi	r25, 0x20	; 32
     a54:	2c f4       	brge	.+10     	; 0xa60 <scroll_log_channel+0x78>
		}
	}
		
	// Work out the new log position.
	// Wrap numbers around if they go out of range
	log_position[channel] -= direction;
     a56:	f9 01       	movw	r30, r18
     a58:	e6 5c       	subi	r30, 0xC6	; 198
     a5a:	fe 4f       	sbci	r31, 0xFE	; 254
     a5c:	90 83       	st	Z, r25
     a5e:	04 c0       	rjmp	.+8      	; 0xa68 <scroll_log_channel+0x80>
	if(log_position[channel] < 0) {
		log_position[channel] = LOG_DATA_WIDTH-1;
	} else if(log_position[channel] >= LOG_DATA_WIDTH) {
		log_position[channel] = 0;
     a60:	f9 01       	movw	r30, r18
     a62:	e6 5c       	subi	r30, 0xC6	; 198
     a64:	fe 4f       	sbci	r31, 0xFE	; 254
     a66:	10 82       	st	Z, r1
	}
		
	// Work out the log data to send to the display
	redraw_river_channel(channel);
     a68:	0e 94 bc 02 	call	0x578	; 0x578 <redraw_river_channel>
		
	// If the frog is in this row, put them on the log
	if(frog_is_in_this_row) {
     a6c:	c1 11       	cpse	r28, r1
		redraw_frog();
     a6e:	0e 94 7a 03 	call	0x6f4	; 0x6f4 <redraw_frog>
	}
}
     a72:	cf 91       	pop	r28
     a74:	08 95       	ret

00000a76 <load_high_scores>:

char names[KEEP][NAME+1];
uint8_t scores[KEEP];
uint8_t addresses[KEEP];

void load_high_scores(void) {
     a76:	bf 92       	push	r11
     a78:	cf 92       	push	r12
     a7a:	df 92       	push	r13
     a7c:	ef 92       	push	r14
     a7e:	ff 92       	push	r15
     a80:	0f 93       	push	r16
     a82:	1f 93       	push	r17
     a84:	cf 93       	push	r28
     a86:	df 93       	push	r29
	// Check signature
	uint8_t sign = eeprom_read_byte((uint8_t*)START);
     a88:	80 e0       	ldi	r24, 0x00	; 0
     a8a:	90 e0       	ldi	r25, 0x00	; 0
     a8c:	0e 94 5a 11 	call	0x22b4	; 0x22b4 <__eerd_byte_m324a>
	if(sign != SIGN) {
     a90:	88 3d       	cpi	r24, 0xD8	; 216
     a92:	09 f4       	brne	.+2      	; 0xa96 <load_high_scores+0x20>
     a94:	60 c0       	rjmp	.+192    	; 0xb56 <load_high_scores+0xe0>
     a96:	c2 e0       	ldi	r28, 0x02	; 2
     a98:	d0 e0       	ldi	r29, 0x00	; 0
     a9a:	10 e0       	ldi	r17, 0x00	; 0
     a9c:	08 e0       	ldi	r16, 0x08	; 8
		// Initialise eeprom
		// Empty high scores
		for(uint8_t address = 0; address < KEEP; address++) {
			// Position: address
			eeprom_write_byte((uint8_t*)(address*SIZE+START+2), (uint8_t)(address));
     a9e:	61 2f       	mov	r22, r17
     aa0:	ce 01       	movw	r24, r28
     aa2:	0e 94 62 11 	call	0x22c4	; 0x22c4 <__eewr_byte_m324a>
			// Name: COM
			eeprom_write_byte((uint8_t*)(address*SIZE+START+3+0), (uint8_t)67);
     aa6:	63 e4       	ldi	r22, 0x43	; 67
     aa8:	ce 01       	movw	r24, r28
     aaa:	01 96       	adiw	r24, 0x01	; 1
     aac:	0e 94 62 11 	call	0x22c4	; 0x22c4 <__eewr_byte_m324a>
			eeprom_write_byte((uint8_t*)(address*SIZE+START+3+1), (uint8_t)79);
     ab0:	6f e4       	ldi	r22, 0x4F	; 79
     ab2:	ce 01       	movw	r24, r28
     ab4:	02 96       	adiw	r24, 0x02	; 2
     ab6:	0e 94 62 11 	call	0x22c4	; 0x22c4 <__eewr_byte_m324a>
			eeprom_write_byte((uint8_t*)(address*SIZE+START+3+2), (uint8_t)77);
     aba:	6d e4       	ldi	r22, 0x4D	; 77
     abc:	ce 01       	movw	r24, r28
     abe:	03 96       	adiw	r24, 0x03	; 3
     ac0:	0e 94 62 11 	call	0x22c4	; 0x22c4 <__eewr_byte_m324a>
     ac4:	60 2f       	mov	r22, r16
     ac6:	61 1b       	sub	r22, r17
				for(uint8_t character = 3; character < NAME; character++) {
					eeprom_write_byte((uint8_t*)(address*SIZE+START+3+character), (uint8_t)32);
				}
			}
			// Score: (8 - address)*(8 - address)
			eeprom_write_byte((uint8_t*)(address*SIZE+START+3+NAME), (uint8_t)((8-address)*(8-address)));
     ac8:	66 9f       	mul	r22, r22
     aca:	60 2d       	mov	r22, r0
     acc:	11 24       	eor	r1, r1
     ace:	ce 01       	movw	r24, r28
     ad0:	04 96       	adiw	r24, 0x04	; 4
     ad2:	0e 94 62 11 	call	0x22c4	; 0x22c4 <__eewr_byte_m324a>
	// Check signature
	uint8_t sign = eeprom_read_byte((uint8_t*)START);
	if(sign != SIGN) {
		// Initialise eeprom
		// Empty high scores
		for(uint8_t address = 0; address < KEEP; address++) {
     ad6:	1f 5f       	subi	r17, 0xFF	; 255
     ad8:	25 96       	adiw	r28, 0x05	; 5
     ada:	18 30       	cpi	r17, 0x08	; 8
     adc:	01 f7       	brne	.-64     	; 0xa9e <load_high_scores+0x28>
			}
			// Score: (8 - address)*(8 - address)
			eeprom_write_byte((uint8_t*)(address*SIZE+START+3+NAME), (uint8_t)((8-address)*(8-address)));
		}
		// Write signature
		eeprom_write_word((uint16_t*)0, SIGN);
     ade:	68 ed       	ldi	r22, 0xD8	; 216
     ae0:	70 e0       	ldi	r23, 0x00	; 0
     ae2:	80 e0       	ldi	r24, 0x00	; 0
     ae4:	90 e0       	ldi	r25, 0x00	; 0
     ae6:	0e 94 70 11 	call	0x22e0	; 0x22e0 <__eewr_word_m324a>
     aea:	35 c0       	rjmp	.+106    	; 0xb56 <load_high_scores+0xe0>
	}
	// Load high scores
	for(uint8_t address = 0; address < KEEP; address++) {
		// Position
		uint8_t position = eeprom_read_byte((uint8_t*)(address*SIZE+START+2));
     aec:	c8 01       	movw	r24, r16
     aee:	04 97       	sbiw	r24, 0x04	; 4
     af0:	0e 94 5a 11 	call	0x22b4	; 0x22b4 <__eerd_byte_m324a>
		// Address:
		addresses[position] = address;
     af4:	c8 2e       	mov	r12, r24
     af6:	d1 2c       	mov	r13, r1
     af8:	f6 01       	movw	r30, r12
     afa:	e6 57       	subi	r30, 0x76	; 118
     afc:	fe 4f       	sbci	r31, 0xFE	; 254
     afe:	b0 82       	st	Z, r11
     b00:	c6 01       	movw	r24, r12
     b02:	88 0f       	add	r24, r24
     b04:	99 1f       	adc	r25, r25
     b06:	88 0f       	add	r24, r24
     b08:	99 1f       	adc	r25, r25
     b0a:	9c 01       	movw	r18, r24
     b0c:	2e 59       	subi	r18, 0x9E	; 158
     b0e:	3e 4f       	sbci	r19, 0xFE	; 254
     b10:	79 01       	movw	r14, r18
     b12:	e8 01       	movw	r28, r16
     b14:	23 97       	sbiw	r28, 0x03	; 3
		// Name:
		for(uint8_t character = 0; character < NAME; character++) {
			names[position][character] = eeprom_read_byte((uint8_t*)(address*SIZE+START+3+character));
     b16:	ce 01       	movw	r24, r28
     b18:	0e 94 5a 11 	call	0x22b4	; 0x22b4 <__eerd_byte_m324a>
     b1c:	f7 01       	movw	r30, r14
     b1e:	81 93       	st	Z+, r24
     b20:	7f 01       	movw	r14, r30
     b22:	21 96       	adiw	r28, 0x01	; 1
		// Position
		uint8_t position = eeprom_read_byte((uint8_t*)(address*SIZE+START+2));
		// Address:
		addresses[position] = address;
		// Name:
		for(uint8_t character = 0; character < NAME; character++) {
     b24:	c0 17       	cp	r28, r16
     b26:	d1 07       	cpc	r29, r17
     b28:	b1 f7       	brne	.-20     	; 0xb16 <load_high_scores+0xa0>
			names[position][character] = eeprom_read_byte((uint8_t*)(address*SIZE+START+3+character));
		}
		names[position][NAME] = 0;
     b2a:	f6 01       	movw	r30, r12
     b2c:	ee 0f       	add	r30, r30
     b2e:	ff 1f       	adc	r31, r31
     b30:	ee 0f       	add	r30, r30
     b32:	ff 1f       	adc	r31, r31
     b34:	ee 59       	subi	r30, 0x9E	; 158
     b36:	fe 4f       	sbci	r31, 0xFE	; 254
     b38:	13 82       	std	Z+3, r1	; 0x03
		// Score:
		scores[position] = eeprom_read_byte((uint8_t*)(address*SIZE+START+3+NAME));
     b3a:	c8 01       	movw	r24, r16
     b3c:	0e 94 5a 11 	call	0x22b4	; 0x22b4 <__eerd_byte_m324a>
     b40:	f6 01       	movw	r30, r12
     b42:	ee 57       	subi	r30, 0x7E	; 126
     b44:	fe 4f       	sbci	r31, 0xFE	; 254
     b46:	80 83       	st	Z, r24
		}
		// Write signature
		eeprom_write_word((uint16_t*)0, SIGN);
	}
	// Load high scores
	for(uint8_t address = 0; address < KEEP; address++) {
     b48:	b3 94       	inc	r11
     b4a:	0b 5f       	subi	r16, 0xFB	; 251
     b4c:	1f 4f       	sbci	r17, 0xFF	; 255
     b4e:	f8 e0       	ldi	r31, 0x08	; 8
     b50:	bf 12       	cpse	r11, r31
     b52:	cc cf       	rjmp	.-104    	; 0xaec <load_high_scores+0x76>
     b54:	04 c0       	rjmp	.+8      	; 0xb5e <load_high_scores+0xe8>
uint8_t addresses[KEEP];

void load_high_scores(void) {
	// Check signature
	uint8_t sign = eeprom_read_byte((uint8_t*)START);
	if(sign != SIGN) {
     b56:	06 e0       	ldi	r16, 0x06	; 6
     b58:	10 e0       	ldi	r17, 0x00	; 0
     b5a:	b1 2c       	mov	r11, r1
     b5c:	c7 cf       	rjmp	.-114    	; 0xaec <load_high_scores+0x76>
		}
		names[position][NAME] = 0;
		// Score:
		scores[position] = eeprom_read_byte((uint8_t*)(address*SIZE+START+3+NAME));
	}
}
     b5e:	df 91       	pop	r29
     b60:	cf 91       	pop	r28
     b62:	1f 91       	pop	r17
     b64:	0f 91       	pop	r16
     b66:	ff 90       	pop	r15
     b68:	ef 90       	pop	r14
     b6a:	df 90       	pop	r13
     b6c:	cf 90       	pop	r12
     b6e:	bf 90       	pop	r11
     b70:	08 95       	ret

00000b72 <draw_high_scores>:

void draw_high_scores(void) {
     b72:	af 92       	push	r10
     b74:	bf 92       	push	r11
     b76:	cf 92       	push	r12
     b78:	df 92       	push	r13
     b7a:	ef 92       	push	r14
     b7c:	ff 92       	push	r15
     b7e:	0f 93       	push	r16
     b80:	1f 93       	push	r17
     b82:	cf 93       	push	r28
     b84:	df 93       	push	r29
	move_cursor(10,10);
     b86:	6a e0       	ldi	r22, 0x0A	; 10
     b88:	70 e0       	ldi	r23, 0x00	; 0
     b8a:	8a e0       	ldi	r24, 0x0A	; 10
     b8c:	90 e0       	ldi	r25, 0x00	; 0
     b8e:	0e 94 fc 0d 	call	0x1bf8	; 0x1bf8 <move_cursor>
	printf_P(PSTR("High Scores"));
     b92:	88 ec       	ldi	r24, 0xC8	; 200
     b94:	90 e0       	ldi	r25, 0x00	; 0
     b96:	9f 93       	push	r25
     b98:	8f 93       	push	r24
     b9a:	0e 94 44 0f 	call	0x1e88	; 0x1e88 <printf_P>
     b9e:	02 e6       	ldi	r16, 0x62	; 98
     ba0:	11 e0       	ldi	r17, 0x01	; 1
     ba2:	0f 2e       	mov	r0, r31
     ba4:	f2 e8       	ldi	r31, 0x82	; 130
     ba6:	af 2e       	mov	r10, r31
     ba8:	f1 e0       	ldi	r31, 0x01	; 1
     baa:	bf 2e       	mov	r11, r31
     bac:	f0 2d       	mov	r31, r0
     bae:	0f 90       	pop	r0
     bb0:	0f 90       	pop	r0
     bb2:	cc e0       	ldi	r28, 0x0C	; 12
     bb4:	d0 e0       	ldi	r29, 0x00	; 0
	for(uint8_t position = 0; position < KEEP; position++) {
		// Name:
		move_cursor(10,12+position);
		printf_P(PSTR("%s"), names[position]);
     bb6:	0f 2e       	mov	r0, r31
     bb8:	f5 ec       	ldi	r31, 0xC5	; 197
     bba:	cf 2e       	mov	r12, r31
     bbc:	f0 e0       	ldi	r31, 0x00	; 0
     bbe:	df 2e       	mov	r13, r31
     bc0:	f0 2d       	mov	r31, r0
		// Score:
		move_cursor(16,12+position);
		printf_P(PSTR("%d"), scores[position]);
     bc2:	0f 2e       	mov	r0, r31
     bc4:	f2 ec       	ldi	r31, 0xC2	; 194
     bc6:	ef 2e       	mov	r14, r31
     bc8:	f0 e0       	ldi	r31, 0x00	; 0
     bca:	ff 2e       	mov	r15, r31
     bcc:	f0 2d       	mov	r31, r0
void draw_high_scores(void) {
	move_cursor(10,10);
	printf_P(PSTR("High Scores"));
	for(uint8_t position = 0; position < KEEP; position++) {
		// Name:
		move_cursor(10,12+position);
     bce:	be 01       	movw	r22, r28
     bd0:	8a e0       	ldi	r24, 0x0A	; 10
     bd2:	90 e0       	ldi	r25, 0x00	; 0
     bd4:	0e 94 fc 0d 	call	0x1bf8	; 0x1bf8 <move_cursor>
		printf_P(PSTR("%s"), names[position]);
     bd8:	1f 93       	push	r17
     bda:	0f 93       	push	r16
     bdc:	df 92       	push	r13
     bde:	cf 92       	push	r12
     be0:	0e 94 44 0f 	call	0x1e88	; 0x1e88 <printf_P>
		// Score:
		move_cursor(16,12+position);
     be4:	be 01       	movw	r22, r28
     be6:	80 e1       	ldi	r24, 0x10	; 16
     be8:	90 e0       	ldi	r25, 0x00	; 0
     bea:	0e 94 fc 0d 	call	0x1bf8	; 0x1bf8 <move_cursor>
		printf_P(PSTR("%d"), scores[position]);
     bee:	f5 01       	movw	r30, r10
     bf0:	81 91       	ld	r24, Z+
     bf2:	5f 01       	movw	r10, r30
     bf4:	1f 92       	push	r1
     bf6:	8f 93       	push	r24
     bf8:	ff 92       	push	r15
     bfa:	ef 92       	push	r14
     bfc:	0e 94 44 0f 	call	0x1e88	; 0x1e88 <printf_P>
     c00:	21 96       	adiw	r28, 0x01	; 1
     c02:	0c 5f       	subi	r16, 0xFC	; 252
     c04:	1f 4f       	sbci	r17, 0xFF	; 255
}

void draw_high_scores(void) {
	move_cursor(10,10);
	printf_P(PSTR("High Scores"));
	for(uint8_t position = 0; position < KEEP; position++) {
     c06:	8d b7       	in	r24, 0x3d	; 61
     c08:	9e b7       	in	r25, 0x3e	; 62
     c0a:	08 96       	adiw	r24, 0x08	; 8
     c0c:	0f b6       	in	r0, 0x3f	; 63
     c0e:	f8 94       	cli
     c10:	9e bf       	out	0x3e, r25	; 62
     c12:	0f be       	out	0x3f, r0	; 63
     c14:	8d bf       	out	0x3d, r24	; 61
     c16:	c4 31       	cpi	r28, 0x14	; 20
     c18:	d1 05       	cpc	r29, r1
     c1a:	c9 f6       	brne	.-78     	; 0xbce <draw_high_scores+0x5c>
		printf_P(PSTR("%s"), names[position]);
		// Score:
		move_cursor(16,12+position);
		printf_P(PSTR("%d"), scores[position]);
	}
}
     c1c:	df 91       	pop	r29
     c1e:	cf 91       	pop	r28
     c20:	1f 91       	pop	r17
     c22:	0f 91       	pop	r16
     c24:	ff 90       	pop	r15
     c26:	ef 90       	pop	r14
     c28:	df 90       	pop	r13
     c2a:	cf 90       	pop	r12
     c2c:	bf 90       	pop	r11
     c2e:	af 90       	pop	r10
     c30:	08 95       	ret

00000c32 <is_high_score>:

uint8_t is_high_score(uint8_t score) {
	return score >= scores[KEEP-1];
     c32:	91 e0       	ldi	r25, 0x01	; 1
     c34:	20 91 89 01 	lds	r18, 0x0189
     c38:	82 17       	cp	r24, r18
     c3a:	08 f4       	brcc	.+2      	; 0xc3e <is_high_score+0xc>
     c3c:	90 e0       	ldi	r25, 0x00	; 0
}
     c3e:	89 2f       	mov	r24, r25
     c40:	08 95       	ret

00000c42 <new_high_score>:

void new_high_score(uint8_t score) {
     c42:	7f 92       	push	r7
     c44:	8f 92       	push	r8
     c46:	9f 92       	push	r9
     c48:	af 92       	push	r10
     c4a:	bf 92       	push	r11
     c4c:	cf 92       	push	r12
     c4e:	df 92       	push	r13
     c50:	ef 92       	push	r14
     c52:	ff 92       	push	r15
     c54:	0f 93       	push	r16
     c56:	1f 93       	push	r17
     c58:	cf 93       	push	r28
     c5a:	df 93       	push	r29
     c5c:	00 d0       	rcall	.+0      	; 0xc5e <new_high_score+0x1c>
     c5e:	00 d0       	rcall	.+0      	; 0xc60 <new_high_score+0x1e>
     c60:	cd b7       	in	r28, 0x3d	; 61
     c62:	de b7       	in	r29, 0x3e	; 62
     c64:	78 2e       	mov	r7, r24
	clear_terminal();
     c66:	0e 94 0d 0e 	call	0x1c1a	; 0x1c1a <clear_terminal>
	draw_high_scores();
     c6a:	0e 94 b9 05 	call	0xb72	; 0xb72 <draw_high_scores>
	move_cursor(10,8);
     c6e:	68 e0       	ldi	r22, 0x08	; 8
     c70:	70 e0       	ldi	r23, 0x00	; 0
     c72:	8a e0       	ldi	r24, 0x0A	; 10
     c74:	90 e0       	ldi	r25, 0x00	; 0
     c76:	0e 94 fc 0d 	call	0x1bf8	; 0x1bf8 <move_cursor>
	printf_P(PSTR("%d: New High Score!"), score);
     c7a:	1f 92       	push	r1
     c7c:	7f 92       	push	r7
     c7e:	8e ea       	ldi	r24, 0xAE	; 174
     c80:	90 e0       	ldi	r25, 0x00	; 0
     c82:	9f 93       	push	r25
     c84:	8f 93       	push	r24
     c86:	0e 94 44 0f 	call	0x1e88	; 0x1e88 <printf_P>
	move_cursor(10,10);
     c8a:	6a e0       	ldi	r22, 0x0A	; 10
     c8c:	70 e0       	ldi	r23, 0x00	; 0
     c8e:	8a e0       	ldi	r24, 0x0A	; 10
     c90:	90 e0       	ldi	r25, 0x00	; 0
     c92:	0e 94 fc 0d 	call	0x1bf8	; 0x1bf8 <move_cursor>
	printf_P(PSTR("Your Name: ___"));
     c96:	8f e9       	ldi	r24, 0x9F	; 159
     c98:	90 e0       	ldi	r25, 0x00	; 0
     c9a:	9f 93       	push	r25
     c9c:	8f 93       	push	r24
     c9e:	0e 94 44 0f 	call	0x1e88	; 0x1e88 <printf_P>
	move_cursor(21,10);
     ca2:	6a e0       	ldi	r22, 0x0A	; 10
     ca4:	70 e0       	ldi	r23, 0x00	; 0
     ca6:	85 e1       	ldi	r24, 0x15	; 21
     ca8:	90 e0       	ldi	r25, 0x00	; 0
     caa:	0e 94 fc 0d 	call	0x1bf8	; 0x1bf8 <move_cursor>
     cae:	ce 01       	movw	r24, r28
     cb0:	01 96       	adiw	r24, 0x01	; 1
     cb2:	5c 01       	movw	r10, r24
	// if no button pushes are waiting to be returned.)
	// Button pushes take priority over serial input. If there are both then
	// we'll retrieve the serial input the next time through this loop
	uint8_t character = 0;
	char new_name[NAME+1];
	while(character < NAME) {
     cb4:	0f 90       	pop	r0
     cb6:	0f 90       	pop	r0
     cb8:	0f 90       	pop	r0
     cba:	0f 90       	pop	r0
     cbc:	0f 90       	pop	r0
     cbe:	0f 90       	pop	r0
     cc0:	8c 01       	movw	r16, r24
		uint8_t serial_input = -1;
		// See if there is any serial input
		if(serial_input_available()) {
			// Serial data was available - read the data from standard input
			serial_input = fgetc(stdin);
     cc2:	0f 2e       	mov	r0, r31
     cc4:	f5 eb       	ldi	r31, 0xB5	; 181
     cc6:	ef 2e       	mov	r14, r31
     cc8:	f2 e0       	ldi	r31, 0x02	; 2
     cca:	ff 2e       	mov	r15, r31
     ccc:	f0 2d       	mov	r31, r0
			// Check if the character is part of an escape sequence
			if(serial_input >= 97 && serial_input <= 122) {
				serial_input -= 32;
			}
			if(serial_input >= 65 && serial_input <= 90) {
				printf_P(PSTR("%c"), serial_input);
     cce:	0f 2e       	mov	r0, r31
     cd0:	fc e9       	ldi	r31, 0x9C	; 156
     cd2:	cf 2e       	mov	r12, r31
     cd4:	f0 e0       	ldi	r31, 0x00	; 0
     cd6:	df 2e       	mov	r13, r31
     cd8:	f0 2d       	mov	r31, r0
	// if no button pushes are waiting to be returned.)
	// Button pushes take priority over serial input. If there are both then
	// we'll retrieve the serial input the next time through this loop
	uint8_t character = 0;
	char new_name[NAME+1];
	while(character < NAME) {
     cda:	21 c0       	rjmp	.+66     	; 0xd1e <new_high_score+0xdc>
		uint8_t serial_input = -1;
		// See if there is any serial input
		if(serial_input_available()) {
     cdc:	0e 94 80 0b 	call	0x1700	; 0x1700 <serial_input_available>
     ce0:	88 23       	and	r24, r24
     ce2:	e1 f3       	breq	.-8      	; 0xcdc <new_high_score+0x9a>
			// Serial data was available - read the data from standard input
			serial_input = fgetc(stdin);
     ce4:	f7 01       	movw	r30, r14
     ce6:	80 81       	ld	r24, Z
     ce8:	91 81       	ldd	r25, Z+1	; 0x01
     cea:	0e 94 06 0f 	call	0x1e0c	; 0x1e0c <fgetc>
     cee:	98 2e       	mov	r9, r24
			// Check if the character is part of an escape sequence
			if(serial_input >= 97 && serial_input <= 122) {
     cf0:	8f e9       	ldi	r24, 0x9F	; 159
     cf2:	89 0d       	add	r24, r9
     cf4:	8a 31       	cpi	r24, 0x1A	; 26
     cf6:	10 f4       	brcc	.+4      	; 0xcfc <new_high_score+0xba>
				serial_input -= 32;
     cf8:	f0 ee       	ldi	r31, 0xE0	; 224
     cfa:	9f 0e       	add	r9, r31
			}
			if(serial_input >= 65 && serial_input <= 90) {
     cfc:	8f eb       	ldi	r24, 0xBF	; 191
     cfe:	89 0d       	add	r24, r9
     d00:	8a 31       	cpi	r24, 0x1A	; 26
     d02:	60 f7       	brcc	.-40     	; 0xcdc <new_high_score+0x9a>
				printf_P(PSTR("%c"), serial_input);
     d04:	1f 92       	push	r1
     d06:	9f 92       	push	r9
     d08:	df 92       	push	r13
     d0a:	cf 92       	push	r12
     d0c:	0e 94 44 0f 	call	0x1e88	; 0x1e88 <printf_P>
				new_name[character] = serial_input;
     d10:	f8 01       	movw	r30, r16
     d12:	91 92       	st	Z+, r9
     d14:	8f 01       	movw	r16, r30
     d16:	0f 90       	pop	r0
     d18:	0f 90       	pop	r0
     d1a:	0f 90       	pop	r0
     d1c:	0f 90       	pop	r0
     d1e:	80 2f       	mov	r24, r16
     d20:	8a 19       	sub	r24, r10
	// if no button pushes are waiting to be returned.)
	// Button pushes take priority over serial input. If there are both then
	// we'll retrieve the serial input the next time through this loop
	uint8_t character = 0;
	char new_name[NAME+1];
	while(character < NAME) {
     d22:	83 30       	cpi	r24, 0x03	; 3
     d24:	d8 f2       	brcs	.-74     	; 0xcdc <new_high_score+0x9a>
				new_name[character] = serial_input;
				character++;
			}
		}
	}
	new_name[NAME] = 0;
     d26:	1c 82       	std	Y+4, r1	; 0x04

	// Find position
	uint8_t new_position = 0;
	uint8_t new_address = 0;
	for(uint8_t position = 0; position < KEEP; position++) {
		if(scores[position] <= score) {
     d28:	80 91 82 01 	lds	r24, 0x0182
     d2c:	78 16       	cp	r7, r24
     d2e:	08 f0       	brcs	.+2      	; 0xd32 <new_high_score+0xf0>
     d30:	99 c0       	rjmp	.+306    	; 0xe64 <new_high_score+0x222>
     d32:	e3 e8       	ldi	r30, 0x83	; 131
     d34:	f1 e0       	ldi	r31, 0x01	; 1
	new_name[NAME] = 0;

	// Find position
	uint8_t new_position = 0;
	uint8_t new_address = 0;
	for(uint8_t position = 0; position < KEEP; position++) {
     d36:	11 e0       	ldi	r17, 0x01	; 1
		if(scores[position] <= score) {
     d38:	81 91       	ld	r24, Z+
     d3a:	78 16       	cp	r7, r24
     d3c:	28 f0       	brcs	.+10     	; 0xd48 <new_high_score+0x106>
			// This is where the new score fits in
			new_position = position;
			new_address = addresses[KEEP-1];
     d3e:	f0 90 91 01 	lds	r15, 0x0191
			break;
		}
	}

	// Increment all positions after this
	for(uint8_t position = KEEP-1; position > new_position; position--) {
     d42:	17 30       	cpi	r17, 0x07	; 7
     d44:	30 f0       	brcs	.+12     	; 0xd52 <new_high_score+0x110>
     d46:	69 c0       	rjmp	.+210    	; 0xe1a <new_high_score+0x1d8>
	new_name[NAME] = 0;

	// Find position
	uint8_t new_position = 0;
	uint8_t new_address = 0;
	for(uint8_t position = 0; position < KEEP; position++) {
     d48:	1f 5f       	subi	r17, 0xFF	; 255
     d4a:	18 30       	cpi	r17, 0x08	; 8
     d4c:	a9 f7       	brne	.-22     	; 0xd38 <new_high_score+0xf6>
	}
	new_name[NAME] = 0;

	// Find position
	uint8_t new_position = 0;
	uint8_t new_address = 0;
     d4e:	f1 2c       	mov	r15, r1
		}
	}
	new_name[NAME] = 0;

	// Find position
	uint8_t new_position = 0;
     d50:	10 e0       	ldi	r17, 0x00	; 0
     d52:	69 e8       	ldi	r22, 0x89	; 137
     d54:	71 e0       	ldi	r23, 0x01	; 1
     d56:	4a e8       	ldi	r20, 0x8A	; 138
     d58:	51 e0       	ldi	r21, 0x01	; 1
     d5a:	21 e9       	ldi	r18, 0x91	; 145
     d5c:	31 e0       	ldi	r19, 0x01	; 1
     d5e:	a2 e9       	ldi	r26, 0x92	; 146
     d60:	b1 e0       	ldi	r27, 0x01	; 1
	uint8_t new_address = 0;
	for(uint8_t position = 0; position < KEEP; position++) {
     d62:	80 e0       	ldi	r24, 0x00	; 0
     d64:	90 e0       	ldi	r25, 0x00	; 0
     d66:	07 e0       	ldi	r16, 0x07	; 7
     d68:	fc 01       	movw	r30, r24
     d6a:	ee 59       	subi	r30, 0x9E	; 158
     d6c:	fe 4f       	sbci	r31, 0xFE	; 254
	}

	// Increment all positions after this
	for(uint8_t position = KEEP-1; position > new_position; position--) {
		for(character = 0; character < NAME; character++) {
			names[position][character] = names[position-1][character];
     d6e:	e0 8c       	ldd	r14, Z+24	; 0x18
     d70:	e4 8e       	std	Z+28, r14	; 0x1c
     d72:	e1 8c       	ldd	r14, Z+25	; 0x19
     d74:	e5 8e       	std	Z+29, r14	; 0x1d
     d76:	e2 8c       	ldd	r14, Z+26	; 0x1a
     d78:	e6 8e       	std	Z+30, r14	; 0x1e
		}
		scores[position] = scores[position-1];
     d7a:	fb 01       	movw	r30, r22
     d7c:	e2 90       	ld	r14, -Z
     d7e:	bf 01       	movw	r22, r30
     d80:	fa 01       	movw	r30, r20
     d82:	e2 92       	st	-Z, r14
     d84:	af 01       	movw	r20, r30
		addresses[position] = addresses[position-1];
     d86:	f9 01       	movw	r30, r18
     d88:	e2 90       	ld	r14, -Z
     d8a:	9f 01       	movw	r18, r30
     d8c:	ee 92       	st	-X, r14
			break;
		}
	}

	// Increment all positions after this
	for(uint8_t position = KEEP-1; position > new_position; position--) {
     d8e:	01 50       	subi	r16, 0x01	; 1
     d90:	04 97       	sbiw	r24, 0x04	; 4
     d92:	10 17       	cp	r17, r16
     d94:	48 f3       	brcs	.-46     	; 0xd68 <new_high_score+0x126>
     d96:	41 c0       	rjmp	.+130    	; 0xe1a <new_high_score+0x1d8>
     d98:	60 2f       	mov	r22, r16
     d9a:	6c 19       	sub	r22, r12
	scores[new_position] = score;

	// Save new positions to EEPROM
	addresses[new_position] = new_address;
	for(uint8_t position = 0; position < KEEP; position++) {
		eeprom_write_byte((uint8_t*)(addresses[position]*SIZE+START+2), (uint8_t)(position));
     d9c:	f8 01       	movw	r30, r16
     d9e:	21 91       	ld	r18, Z+
     da0:	8f 01       	movw	r16, r30
     da2:	30 e0       	ldi	r19, 0x00	; 0
     da4:	c9 01       	movw	r24, r18
     da6:	88 0f       	add	r24, r24
     da8:	99 1f       	adc	r25, r25
     daa:	88 0f       	add	r24, r24
     dac:	99 1f       	adc	r25, r25
     dae:	82 0f       	add	r24, r18
     db0:	93 1f       	adc	r25, r19
     db2:	02 96       	adiw	r24, 0x02	; 2
     db4:	0e 94 62 11 	call	0x22c4	; 0x22c4 <__eewr_byte_m324a>
	}
	scores[new_position] = score;

	// Save new positions to EEPROM
	addresses[new_position] = new_address;
	for(uint8_t position = 0; position < KEEP; position++) {
     db8:	0e 15       	cp	r16, r14
     dba:	1f 05       	cpc	r17, r15
     dbc:	69 f7       	brne	.-38     	; 0xd98 <new_high_score+0x156>
     dbe:	00 e0       	ldi	r16, 0x00	; 0
     dc0:	10 e0       	ldi	r17, 0x00	; 0
	}
	
	// Save new details
	// Name
	for(character = 0; character < NAME; character++) {
		eeprom_write_byte((uint8_t*)(addresses[new_position]*SIZE+START+3+character), (uint8_t)new_name[character]);
     dc2:	c4 01       	movw	r24, r8
     dc4:	86 57       	subi	r24, 0x76	; 118
     dc6:	9e 4f       	sbci	r25, 0xFE	; 254
     dc8:	7c 01       	movw	r14, r24
     dca:	f5 01       	movw	r30, r10
     dcc:	61 91       	ld	r22, Z+
     dce:	5f 01       	movw	r10, r30
     dd0:	f7 01       	movw	r30, r14
     dd2:	80 81       	ld	r24, Z
     dd4:	90 e0       	ldi	r25, 0x00	; 0
     dd6:	9c 01       	movw	r18, r24
     dd8:	22 0f       	add	r18, r18
     dda:	33 1f       	adc	r19, r19
     ddc:	22 0f       	add	r18, r18
     dde:	33 1f       	adc	r19, r19
     de0:	82 0f       	add	r24, r18
     de2:	93 1f       	adc	r25, r19
     de4:	03 96       	adiw	r24, 0x03	; 3
     de6:	80 0f       	add	r24, r16
     de8:	91 1f       	adc	r25, r17
     dea:	0e 94 62 11 	call	0x22c4	; 0x22c4 <__eewr_byte_m324a>
     dee:	0f 5f       	subi	r16, 0xFF	; 255
     df0:	1f 4f       	sbci	r17, 0xFF	; 255
		eeprom_write_byte((uint8_t*)(addresses[position]*SIZE+START+2), (uint8_t)(position));
	}
	
	// Save new details
	// Name
	for(character = 0; character < NAME; character++) {
     df2:	03 30       	cpi	r16, 0x03	; 3
     df4:	11 05       	cpc	r17, r1
     df6:	49 f7       	brne	.-46     	; 0xdca <new_high_score+0x188>
		eeprom_write_byte((uint8_t*)(addresses[new_position]*SIZE+START+3+character), (uint8_t)new_name[character]);
	}
	// Score
	eeprom_write_byte((uint8_t*)(addresses[new_position]*SIZE+START+3+NAME), (uint8_t)score);
     df8:	f4 01       	movw	r30, r8
     dfa:	e6 57       	subi	r30, 0x76	; 118
     dfc:	fe 4f       	sbci	r31, 0xFE	; 254
     dfe:	80 81       	ld	r24, Z
     e00:	90 e0       	ldi	r25, 0x00	; 0
     e02:	9c 01       	movw	r18, r24
     e04:	22 0f       	add	r18, r18
     e06:	33 1f       	adc	r19, r19
     e08:	22 0f       	add	r18, r18
     e0a:	33 1f       	adc	r19, r19
     e0c:	82 0f       	add	r24, r18
     e0e:	93 1f       	adc	r25, r19
     e10:	67 2d       	mov	r22, r7
     e12:	06 96       	adiw	r24, 0x06	; 6
     e14:	0e 94 62 11 	call	0x22c4	; 0x22c4 <__eewr_byte_m324a>
     e18:	29 c0       	rjmp	.+82     	; 0xe6c <new_high_score+0x22a>
		addresses[position] = addresses[position-1];
	}
	
	// Insert new details
	for(character = 0; character < NAME; character++) {
		names[new_position][character] = new_name[character];
     e1a:	81 2e       	mov	r8, r17
     e1c:	91 2c       	mov	r9, r1
     e1e:	f4 01       	movw	r30, r8
     e20:	ee 0f       	add	r30, r30
     e22:	ff 1f       	adc	r31, r31
     e24:	ee 0f       	add	r30, r30
     e26:	ff 1f       	adc	r31, r31
     e28:	ee 59       	subi	r30, 0x9E	; 158
     e2a:	fe 4f       	sbci	r31, 0xFE	; 254
     e2c:	89 81       	ldd	r24, Y+1	; 0x01
     e2e:	80 83       	st	Z, r24
     e30:	8a 81       	ldd	r24, Y+2	; 0x02
     e32:	81 83       	std	Z+1, r24	; 0x01
     e34:	8b 81       	ldd	r24, Y+3	; 0x03
     e36:	82 83       	std	Z+2, r24	; 0x02
	}
	scores[new_position] = score;
     e38:	f4 01       	movw	r30, r8
     e3a:	ee 57       	subi	r30, 0x7E	; 126
     e3c:	fe 4f       	sbci	r31, 0xFE	; 254
     e3e:	70 82       	st	Z, r7

	// Save new positions to EEPROM
	addresses[new_position] = new_address;
     e40:	f4 01       	movw	r30, r8
     e42:	e6 57       	subi	r30, 0x76	; 118
     e44:	fe 4f       	sbci	r31, 0xFE	; 254
     e46:	f0 82       	st	Z, r15
     e48:	0f 2e       	mov	r0, r31
     e4a:	fa e8       	ldi	r31, 0x8A	; 138
     e4c:	cf 2e       	mov	r12, r31
     e4e:	f1 e0       	ldi	r31, 0x01	; 1
     e50:	df 2e       	mov	r13, r31
     e52:	f0 2d       	mov	r31, r0
     e54:	0f 2e       	mov	r0, r31
     e56:	f2 e9       	ldi	r31, 0x92	; 146
     e58:	ef 2e       	mov	r14, r31
     e5a:	f1 e0       	ldi	r31, 0x01	; 1
     e5c:	ff 2e       	mov	r15, r31
     e5e:	f0 2d       	mov	r31, r0
     e60:	86 01       	movw	r16, r12
     e62:	9a cf       	rjmp	.-204    	; 0xd98 <new_high_score+0x156>
	uint8_t new_address = 0;
	for(uint8_t position = 0; position < KEEP; position++) {
		if(scores[position] <= score) {
			// This is where the new score fits in
			new_position = position;
			new_address = addresses[KEEP-1];
     e64:	f0 90 91 01 	lds	r15, 0x0191
	new_name[NAME] = 0;

	// Find position
	uint8_t new_position = 0;
	uint8_t new_address = 0;
	for(uint8_t position = 0; position < KEEP; position++) {
     e68:	10 e0       	ldi	r17, 0x00	; 0
     e6a:	73 cf       	rjmp	.-282    	; 0xd52 <new_high_score+0x110>
	for(character = 0; character < NAME; character++) {
		eeprom_write_byte((uint8_t*)(addresses[new_position]*SIZE+START+3+character), (uint8_t)new_name[character]);
	}
	// Score
	eeprom_write_byte((uint8_t*)(addresses[new_position]*SIZE+START+3+NAME), (uint8_t)score);
     e6c:	0f 90       	pop	r0
     e6e:	0f 90       	pop	r0
     e70:	0f 90       	pop	r0
     e72:	0f 90       	pop	r0
     e74:	df 91       	pop	r29
     e76:	cf 91       	pop	r28
     e78:	1f 91       	pop	r17
     e7a:	0f 91       	pop	r16
     e7c:	ff 90       	pop	r15
     e7e:	ef 90       	pop	r14
     e80:	df 90       	pop	r13
     e82:	cf 90       	pop	r12
     e84:	bf 90       	pop	r11
     e86:	af 90       	pop	r10
     e88:	9f 90       	pop	r9
     e8a:	8f 90       	pop	r8
     e8c:	7f 90       	pop	r7
     e8e:	08 95       	ret

00000e90 <ledmatrix_setup>:
#define CMD_CLEAR_SCREEN 0x0F

void ledmatrix_setup(void) {
	// Setup SPI - we divide the clock by 128.
	// (This speed guarantees the SPI buffer will never overflow.)
	spi_setup_master(128);
     e90:	80 e8       	ldi	r24, 0x80	; 128
     e92:	0e 94 21 0c 	call	0x1842	; 0x1842 <spi_setup_master>
     e96:	08 95       	ret

00000e98 <ledmatrix_update_pixel>:
			(void)spi_send_byte(data[x][y]);
		}
	}
}

void ledmatrix_update_pixel(uint8_t x, uint8_t y, PixelColour pixel) {
     e98:	1f 93       	push	r17
     e9a:	cf 93       	push	r28
     e9c:	df 93       	push	r29
     e9e:	d8 2f       	mov	r29, r24
     ea0:	16 2f       	mov	r17, r22
     ea2:	c4 2f       	mov	r28, r20
	(void)spi_send_byte(CMD_UPDATE_PIXEL);
     ea4:	81 e0       	ldi	r24, 0x01	; 1
     ea6:	0e 94 49 0c 	call	0x1892	; 0x1892 <spi_send_byte>
	(void)spi_send_byte( ((y & 0x07)<<4) | (x & 0x0F));
     eaa:	17 70       	andi	r17, 0x07	; 7
     eac:	80 e1       	ldi	r24, 0x10	; 16
     eae:	18 9f       	mul	r17, r24
     eb0:	b0 01       	movw	r22, r0
     eb2:	11 24       	eor	r1, r1
     eb4:	8d 2f       	mov	r24, r29
     eb6:	8f 70       	andi	r24, 0x0F	; 15
     eb8:	86 2b       	or	r24, r22
     eba:	0e 94 49 0c 	call	0x1892	; 0x1892 <spi_send_byte>
	(void)spi_send_byte(pixel);
     ebe:	8c 2f       	mov	r24, r28
     ec0:	0e 94 49 0c 	call	0x1892	; 0x1892 <spi_send_byte>
}
     ec4:	df 91       	pop	r29
     ec6:	cf 91       	pop	r28
     ec8:	1f 91       	pop	r17
     eca:	08 95       	ret

00000ecc <ledmatrix_update_row>:

void ledmatrix_update_row(uint8_t y, MatrixRow row) {
     ecc:	0f 93       	push	r16
     ece:	1f 93       	push	r17
     ed0:	cf 93       	push	r28
     ed2:	df 93       	push	r29
     ed4:	c8 2f       	mov	r28, r24
     ed6:	06 2f       	mov	r16, r22
     ed8:	17 2f       	mov	r17, r23
	(void)spi_send_byte(CMD_UPDATE_ROW);
     eda:	82 e0       	ldi	r24, 0x02	; 2
     edc:	0e 94 49 0c 	call	0x1892	; 0x1892 <spi_send_byte>
	(void)spi_send_byte(y & 0x07);	// row number
     ee0:	8c 2f       	mov	r24, r28
     ee2:	87 70       	andi	r24, 0x07	; 7
     ee4:	0e 94 49 0c 	call	0x1892	; 0x1892 <spi_send_byte>
     ee8:	c0 2f       	mov	r28, r16
     eea:	d1 2f       	mov	r29, r17
	for(uint8_t x = 0; x<MATRIX_NUM_COLUMNS; x++) {
     eec:	10 e0       	ldi	r17, 0x00	; 0
		(void)spi_send_byte(row[x]);
     eee:	89 91       	ld	r24, Y+
     ef0:	0e 94 49 0c 	call	0x1892	; 0x1892 <spi_send_byte>
}

void ledmatrix_update_row(uint8_t y, MatrixRow row) {
	(void)spi_send_byte(CMD_UPDATE_ROW);
	(void)spi_send_byte(y & 0x07);	// row number
	for(uint8_t x = 0; x<MATRIX_NUM_COLUMNS; x++) {
     ef4:	1f 5f       	subi	r17, 0xFF	; 255
     ef6:	10 31       	cpi	r17, 0x10	; 16
     ef8:	d1 f7       	brne	.-12     	; 0xeee <ledmatrix_update_row+0x22>
		(void)spi_send_byte(row[x]);
	}
}
     efa:	df 91       	pop	r29
     efc:	cf 91       	pop	r28
     efe:	1f 91       	pop	r17
     f00:	0f 91       	pop	r16
     f02:	08 95       	ret

00000f04 <ledmatrix_update_column>:

void ledmatrix_update_column(uint8_t x, MatrixColumn col) {
     f04:	0f 93       	push	r16
     f06:	1f 93       	push	r17
     f08:	cf 93       	push	r28
     f0a:	df 93       	push	r29
     f0c:	c8 2f       	mov	r28, r24
     f0e:	06 2f       	mov	r16, r22
     f10:	17 2f       	mov	r17, r23
	(void)spi_send_byte(CMD_UPDATE_COL);
     f12:	83 e0       	ldi	r24, 0x03	; 3
     f14:	0e 94 49 0c 	call	0x1892	; 0x1892 <spi_send_byte>
	(void)spi_send_byte(x & 0x0F); // column number
     f18:	8c 2f       	mov	r24, r28
     f1a:	8f 70       	andi	r24, 0x0F	; 15
     f1c:	0e 94 49 0c 	call	0x1892	; 0x1892 <spi_send_byte>
     f20:	c0 2f       	mov	r28, r16
     f22:	d1 2f       	mov	r29, r17
	for(uint8_t y = 0; y<MATRIX_NUM_ROWS; y++) {
     f24:	10 e0       	ldi	r17, 0x00	; 0
		(void)spi_send_byte(col[y]);
     f26:	89 91       	ld	r24, Y+
     f28:	0e 94 49 0c 	call	0x1892	; 0x1892 <spi_send_byte>
}

void ledmatrix_update_column(uint8_t x, MatrixColumn col) {
	(void)spi_send_byte(CMD_UPDATE_COL);
	(void)spi_send_byte(x & 0x0F); // column number
	for(uint8_t y = 0; y<MATRIX_NUM_ROWS; y++) {
     f2c:	1f 5f       	subi	r17, 0xFF	; 255
     f2e:	18 30       	cpi	r17, 0x08	; 8
     f30:	d1 f7       	brne	.-12     	; 0xf26 <ledmatrix_update_column+0x22>
		(void)spi_send_byte(col[y]);
	}
}
     f32:	df 91       	pop	r29
     f34:	cf 91       	pop	r28
     f36:	1f 91       	pop	r17
     f38:	0f 91       	pop	r16
     f3a:	08 95       	ret

00000f3c <ledmatrix_shift_display_left>:

void ledmatrix_shift_display_left(void) {
	(void)spi_send_byte(CMD_SHIFT_DISPLAY);
     f3c:	84 e0       	ldi	r24, 0x04	; 4
     f3e:	0e 94 49 0c 	call	0x1892	; 0x1892 <spi_send_byte>
	(void)spi_send_byte(0x02);
     f42:	82 e0       	ldi	r24, 0x02	; 2
     f44:	0e 94 49 0c 	call	0x1892	; 0x1892 <spi_send_byte>
     f48:	08 95       	ret

00000f4a <ledmatrix_clear>:
	(void)spi_send_byte(CMD_SHIFT_DISPLAY);
	(void)spi_send_byte(0x04);
}

void ledmatrix_clear(void) {
	(void)spi_send_byte(CMD_CLEAR_SCREEN);
     f4a:	8f e0       	ldi	r24, 0x0F	; 15
     f4c:	0e 94 49 0c 	call	0x1892	; 0x1892 <spi_send_byte>
     f50:	08 95       	ret

00000f52 <initialise_hardware>:
		handle_game_over();
	}
}

void initialise_hardware(void) {
	ledmatrix_setup();
     f52:	0e 94 48 07 	call	0xe90	; 0xe90 <ledmatrix_setup>
	init_button_interrupts();
     f56:	0e 94 48 01 	call	0x290	; 0x290 <init_button_interrupts>
	// Setup serial port for 19200 baud communication with no echo
	// of incoming characters
	init_serial_stdio(19200,0);
     f5a:	40 e0       	ldi	r20, 0x00	; 0
     f5c:	60 e0       	ldi	r22, 0x00	; 0
     f5e:	7b e4       	ldi	r23, 0x4B	; 75
     f60:	80 e0       	ldi	r24, 0x00	; 0
     f62:	90 e0       	ldi	r25, 0x00	; 0
     f64:	0e 94 33 0b 	call	0x1666	; 0x1666 <init_serial_stdio>
	
	init_timer0();
     f68:	0e 94 16 0e 	call	0x1c2c	; 0x1c2c <init_timer0>
	
	// Turn on global interrupts
	sei();
     f6c:	78 94       	sei

	// Set C0:4 as outputs
	DDRC = 0x0F;
     f6e:	8f e0       	ldi	r24, 0x0F	; 15
     f70:	87 b9       	out	0x07, r24	; 7
     f72:	08 95       	ret

00000f74 <splash_screen>:
}

void splash_screen(void) {
	// Clear terminal screen and output a message
	clear_terminal();
     f74:	0e 94 0d 0e 	call	0x1c1a	; 0x1c1a <clear_terminal>
	move_cursor(10,4);
     f78:	64 e0       	ldi	r22, 0x04	; 4
     f7a:	70 e0       	ldi	r23, 0x00	; 0
     f7c:	8a e0       	ldi	r24, 0x0A	; 10
     f7e:	90 e0       	ldi	r25, 0x00	; 0
     f80:	0e 94 fc 0d 	call	0x1bf8	; 0x1bf8 <move_cursor>
	printf_P(PSTR("Frogger"));
     f84:	8a e2       	ldi	r24, 0x2A	; 42
     f86:	91 e0       	ldi	r25, 0x01	; 1
     f88:	9f 93       	push	r25
     f8a:	8f 93       	push	r24
     f8c:	0e 94 44 0f 	call	0x1e88	; 0x1e88 <printf_P>
	move_cursor(10,6);
     f90:	66 e0       	ldi	r22, 0x06	; 6
     f92:	70 e0       	ldi	r23, 0x00	; 0
     f94:	8a e0       	ldi	r24, 0x0A	; 10
     f96:	90 e0       	ldi	r25, 0x00	; 0
     f98:	0e 94 fc 0d 	call	0x1bf8	; 0x1bf8 <move_cursor>
	printf_P(PSTR("CSSE2010/7201 project by Thomas Hines 4317421"));
     f9c:	8c ef       	ldi	r24, 0xFC	; 252
     f9e:	90 e0       	ldi	r25, 0x00	; 0
     fa0:	9f 93       	push	r25
     fa2:	8f 93       	push	r24
     fa4:	0e 94 44 0f 	call	0x1e88	; 0x1e88 <printf_P>

	// Draw high scores
	draw_high_scores();
     fa8:	0e 94 b9 05 	call	0xb72	; 0xb72 <draw_high_scores>
	
	// Output the scrolling message to the LED matrix
	// and wait for a push button to be pushed.
	ledmatrix_clear();
     fac:	0e 94 a5 07 	call	0xf4a	; 0xf4a <ledmatrix_clear>
	set_text_colour(COLOUR_ORANGE);
     fb0:	8f e3       	ldi	r24, 0x3F	; 63
     fb2:	0e 94 02 0a 	call	0x1404	; 0x1404 <set_text_colour>
     fb6:	0f 90       	pop	r0
     fb8:	0f 90       	pop	r0
     fba:	0f 90       	pop	r0
     fbc:	0f 90       	pop	r0
	while(1) {
		set_scrolling_display_text("Frogger 43174216");
     fbe:	86 e1       	ldi	r24, 0x16	; 22
     fc0:	91 e0       	ldi	r25, 0x01	; 1
     fc2:	0e 94 05 0a 	call	0x140a	; 0x140a <set_scrolling_display_text>
		// Scroll the message until it has scrolled off the 
		// display or a button is pushed
		while(scroll_display()) {
     fc6:	0d c0       	rjmp	.+26     	; 0xfe2 <splash_screen+0x6e>
	#else
		//round up by default
		__ticks_dc = (uint32_t)(ceil(fabs(__tmp)));
	#endif

	__builtin_avr_delay_cycles(__ticks_dc);
     fc8:	2f e7       	ldi	r18, 0x7F	; 127
     fca:	89 ea       	ldi	r24, 0xA9	; 169
     fcc:	93 e0       	ldi	r25, 0x03	; 3
     fce:	21 50       	subi	r18, 0x01	; 1
     fd0:	80 40       	sbci	r24, 0x00	; 0
     fd2:	90 40       	sbci	r25, 0x00	; 0
     fd4:	e1 f7       	brne	.-8      	; 0xfce <splash_screen+0x5a>
     fd6:	00 c0       	rjmp	.+0      	; 0xfd8 <splash_screen+0x64>
     fd8:	00 00       	nop
			_delay_ms(150);
			if(button_pushed() != -1) {
     fda:	0e 94 56 01 	call	0x2ac	; 0x2ac <button_pushed>
     fde:	8f 3f       	cpi	r24, 0xFF	; 255
     fe0:	29 f4       	brne	.+10     	; 0xfec <splash_screen+0x78>
	set_text_colour(COLOUR_ORANGE);
	while(1) {
		set_scrolling_display_text("Frogger 43174216");
		// Scroll the message until it has scrolled off the 
		// display or a button is pushed
		while(scroll_display()) {
     fe2:	0e 94 0f 0a 	call	0x141e	; 0x141e <scroll_display>
     fe6:	81 11       	cpse	r24, r1
     fe8:	ef cf       	rjmp	.-34     	; 0xfc8 <splash_screen+0x54>
     fea:	e9 cf       	rjmp	.-46     	; 0xfbe <splash_screen+0x4a>
     fec:	08 95       	ret

00000fee <new_game>:
	srand(get_clock_ticks());
}

void new_game(void) {
	// Initialise the game and display
	init_game();
     fee:	0e 94 fa 03 	call	0x7f4	; 0x7f4 <init_game>
	
	// Clear the serial terminal
	clear_terminal();
     ff2:	0e 94 0d 0e 	call	0x1c1a	; 0x1c1a <clear_terminal>

	// Draw the vital stats
	init_stats();
     ff6:	0e 94 4f 0c 	call	0x189e	; 0x189e <init_stats>
	draw_stats();
     ffa:	0e 94 70 0c 	call	0x18e0	; 0x18e0 <draw_stats>
	
	// Clear a button push or serial input if any are waiting
	// (The cast to void means the return value is ignored.)
	(void)button_pushed();
     ffe:	0e 94 56 01 	call	0x2ac	; 0x2ac <button_pushed>
	clear_serial_input_buffer();
    1002:	0e 94 87 0b 	call	0x170e	; 0x170e <clear_serial_input_buffer>
    1006:	08 95       	ret

00001008 <play_game>:
}

void play_game(void) {
    1008:	2f 92       	push	r2
    100a:	3f 92       	push	r3
    100c:	4f 92       	push	r4
    100e:	5f 92       	push	r5
    1010:	6f 92       	push	r6
    1012:	7f 92       	push	r7
    1014:	8f 92       	push	r8
    1016:	9f 92       	push	r9
    1018:	af 92       	push	r10
    101a:	bf 92       	push	r11
    101c:	cf 92       	push	r12
    101e:	df 92       	push	r13
    1020:	ef 92       	push	r14
    1022:	ff 92       	push	r15
    1024:	0f 93       	push	r16
    1026:	1f 93       	push	r17
    1028:	cf 93       	push	r28
    102a:	df 93       	push	r29
    102c:	cd b7       	in	r28, 0x3d	; 61
    102e:	de b7       	in	r29, 0x3e	; 62
    1030:	a6 97       	sbiw	r28, 0x26	; 38
    1032:	0f b6       	in	r0, 0x3f	; 63
    1034:	f8 94       	cli
    1036:	de bf       	out	0x3e, r29	; 62
    1038:	0f be       	out	0x3f, r0	; 63
    103a:	cd bf       	out	0x3d, r28	; 61
	uint8_t characters_into_escape_sequence = 0;
	uint8_t paused = 0;
	
	// Get the current time and remember this as the last time the vehicles
	// and logs were moved.
	current_time = get_clock_ticks();
    103c:	0e 94 2e 0e 	call	0x1c5c	; 0x1c5c <get_clock_ticks>
	for(uint32_t *ptr = last_move_time; ptr < last_move_time + 5; ptr++) {
    1040:	fe 01       	movw	r30, r28
    1042:	31 96       	adiw	r30, 0x01	; 1
    1044:	9e 01       	movw	r18, r28
    1046:	2b 5e       	subi	r18, 0xEB	; 235
    1048:	3f 4f       	sbci	r19, 0xFF	; 255
		*ptr = current_time;
    104a:	61 93       	st	Z+, r22
    104c:	71 93       	st	Z+, r23
    104e:	81 93       	st	Z+, r24
    1050:	91 93       	st	Z+, r25
	uint8_t paused = 0;
	
	// Get the current time and remember this as the last time the vehicles
	// and logs were moved.
	current_time = get_clock_ticks();
	for(uint32_t *ptr = last_move_time; ptr < last_move_time + 5; ptr++) {
    1052:	e2 17       	cp	r30, r18
    1054:	f3 07       	cpc	r31, r19
    1056:	c8 f3       	brcs	.-14     	; 0x104a <play_game+0x42>
		*ptr = current_time;
	}

	// We play the game while the frog is alive and we haven't filled up the 
	// far riverbank
	reset_time();
    1058:	0e 94 71 0d 	call	0x1ae2	; 0x1ae2 <reset_time>
	uint32_t current_time;
	uint32_t last_move_time[5];
	int8_t button;
	char serial_input, escape_sequence_char;
	uint8_t characters_into_escape_sequence = 0;
	uint8_t paused = 0;
    105c:	31 2c       	mov	r3, r1
void play_game(void) {
	uint32_t current_time;
	uint32_t last_move_time[5];
	int8_t button;
	char serial_input, escape_sequence_char;
	uint8_t characters_into_escape_sequence = 0;
    105e:	1c a2       	std	Y+36, r1	; 0x24
				// Output the scrolling message to the LED matrix
				// and wait for a push button to be pushed.
				ledmatrix_clear();
				clear_scrolling_text();
				char level_text[10];
				sprintf(level_text, "LEVEL %d", get_level());
    1060:	9e 01       	movw	r18, r28
    1062:	2b 5e       	subi	r18, 0xEB	; 235
    1064:	3f 4f       	sbci	r19, 0xFF	; 255
    1066:	38 a3       	std	Y+32, r19	; 0x20
    1068:	2f 8f       	std	Y+31, r18	; 0x1f
    106a:	3f 8d       	ldd	r19, Y+31	; 0x1f
    106c:	3d a3       	std	Y+37, r19	; 0x25
    106e:	88 a1       	ldd	r24, Y+32	; 0x20
    1070:	8e a3       	std	Y+38, r24	; 0x26
	}

	// We play the game while the frog is alive and we haven't filled up the 
	// far riverbank
	reset_time();
	while(get_lives()) {
    1072:	48 c1       	rjmp	.+656    	; 0x1304 <play_game+0x2fc>
		while(is_frog_alive() && (get_time() > 0 || paused)) {
			if(is_frog_alive() && frog_has_reached_riverbank()) {
    1074:	0e 94 b6 04 	call	0x96c	; 0x96c <is_frog_alive>
    1078:	88 23       	and	r24, r24
    107a:	11 f1       	breq	.+68     	; 0x10c0 <play_game+0xb8>
    107c:	0e 94 af 04 	call	0x95e	; 0x95e <frog_has_reached_riverbank>
    1080:	88 23       	and	r24, r24
    1082:	f1 f0       	breq	.+60     	; 0x10c0 <play_game+0xb8>
				// Frog reached the other side successfully but the
				// riverbank isn't full, put a new frog at the start
				add_to_score(1);
    1084:	81 e0       	ldi	r24, 0x01	; 1
    1086:	90 e0       	ldi	r25, 0x00	; 0
    1088:	0e 94 c5 0c 	call	0x198a	; 0x198a <add_to_score>
				// Increase speed
				if(get_score() < 20) {
    108c:	0e 94 d0 0c 	call	0x19a0	; 0x19a0 <get_score>
    1090:	44 97       	sbiw	r24, 0x14	; 20
    1092:	80 f4       	brcc	.+32     	; 0x10b4 <play_game+0xac>
					add_to_speed(100 - 5*get_score());
    1094:	0e 94 d0 0c 	call	0x19a0	; 0x19a0 <get_score>
    1098:	9c 01       	movw	r18, r24
    109a:	22 0f       	add	r18, r18
    109c:	33 1f       	adc	r19, r19
    109e:	22 0f       	add	r18, r18
    10a0:	33 1f       	adc	r19, r19
    10a2:	82 0f       	add	r24, r18
    10a4:	93 1f       	adc	r25, r19
    10a6:	a4 e6       	ldi	r26, 0x64	; 100
    10a8:	b0 e0       	ldi	r27, 0x00	; 0
    10aa:	a8 1b       	sub	r26, r24
    10ac:	b9 0b       	sbc	r27, r25
    10ae:	cd 01       	movw	r24, r26
    10b0:	0e 94 ef 0c 	call	0x19de	; 0x19de <add_to_speed>
				}
				draw_stats();
    10b4:	0e 94 70 0c 	call	0x18e0	; 0x18e0 <draw_stats>
				put_frog_at_start();
    10b8:	0e 94 ef 03 	call	0x7de	; 0x7de <put_frog_at_start>
				// Reset timer
				reset_time();
    10bc:	0e 94 71 0d 	call	0x1ae2	; 0x1ae2 <reset_time>
			}

			if(is_riverbank_full() && get_level() < 4) {
    10c0:	0e 94 a5 04 	call	0x94a	; 0x94a <is_riverbank_full>
    10c4:	88 23       	and	r24, r24
    10c6:	d1 f1       	breq	.+116    	; 0x113c <play_game+0x134>
    10c8:	0e 94 ec 0c 	call	0x19d8	; 0x19d8 <get_level>
    10cc:	84 30       	cpi	r24, 0x04	; 4
    10ce:	b0 f5       	brcc	.+108    	; 0x113c <play_game+0x134>
				restore_life();
    10d0:	0e 94 db 0c 	call	0x19b6	; 0x19b6 <restore_life>
				next_level();
    10d4:	0e 94 e6 0c 	call	0x19cc	; 0x19cc <next_level>
				draw_stats();
    10d8:	0e 94 70 0c 	call	0x18e0	; 0x18e0 <draw_stats>
				// Show LED level text
				// Output the scrolling message to the LED matrix
				// and wait for a push button to be pushed.
				ledmatrix_clear();
    10dc:	0e 94 a5 07 	call	0xf4a	; 0xf4a <ledmatrix_clear>
				clear_scrolling_text();
    10e0:	0e 94 0a 0a 	call	0x1414	; 0x1414 <clear_scrolling_text>
				char level_text[10];
				sprintf(level_text, "LEVEL %d", get_level());
    10e4:	0e 94 ec 0c 	call	0x19d8	; 0x19d8 <get_level>
    10e8:	1f 92       	push	r1
    10ea:	8f 93       	push	r24
    10ec:	a7 e2       	ldi	r26, 0x27	; 39
    10ee:	b1 e0       	ldi	r27, 0x01	; 1
    10f0:	bf 93       	push	r27
    10f2:	af 93       	push	r26
    10f4:	f8 a1       	ldd	r31, Y+32	; 0x20
    10f6:	ff 93       	push	r31
    10f8:	2f 8d       	ldd	r18, Y+31	; 0x1f
    10fa:	2f 93       	push	r18
    10fc:	0e 94 66 0f 	call	0x1ecc	; 0x1ecc <sprintf>
				set_scrolling_display_text(level_text);
    1100:	8d a1       	ldd	r24, Y+37	; 0x25
    1102:	9e a1       	ldd	r25, Y+38	; 0x26
    1104:	0e 94 05 0a 	call	0x140a	; 0x140a <set_scrolling_display_text>
				// Scroll the message until it has scrolled off the 
				// display or a button is pushed
				while(scroll_display()) {
    1108:	0f 90       	pop	r0
    110a:	0f 90       	pop	r0
    110c:	0f 90       	pop	r0
    110e:	0f 90       	pop	r0
    1110:	0f 90       	pop	r0
    1112:	0f 90       	pop	r0
    1114:	0d c0       	rjmp	.+26     	; 0x1130 <play_game+0x128>
    1116:	3f e7       	ldi	r19, 0x7F	; 127
    1118:	88 e3       	ldi	r24, 0x38	; 56
    111a:	91 e0       	ldi	r25, 0x01	; 1
    111c:	31 50       	subi	r19, 0x01	; 1
    111e:	80 40       	sbci	r24, 0x00	; 0
    1120:	90 40       	sbci	r25, 0x00	; 0
    1122:	e1 f7       	brne	.-8      	; 0x111c <play_game+0x114>
    1124:	00 c0       	rjmp	.+0      	; 0x1126 <play_game+0x11e>
    1126:	00 00       	nop
					_delay_ms(50);
					if(button_pushed() != -1) {
    1128:	0e 94 56 01 	call	0x2ac	; 0x2ac <button_pushed>
    112c:	8f 3f       	cpi	r24, 0xFF	; 255
    112e:	21 f4       	brne	.+8      	; 0x1138 <play_game+0x130>
				char level_text[10];
				sprintf(level_text, "LEVEL %d", get_level());
				set_scrolling_display_text(level_text);
				// Scroll the message until it has scrolled off the 
				// display or a button is pushed
				while(scroll_display()) {
    1130:	0e 94 0f 0a 	call	0x141e	; 0x141e <scroll_display>
    1134:	81 11       	cpse	r24, r1
    1136:	ef cf       	rjmp	.-34     	; 0x1116 <play_game+0x10e>
					if(button_pushed() != -1) {
						break;
					}
				}
				// Redraw and reinit game
				init_game();
    1138:	0e 94 fa 03 	call	0x7f4	; 0x7f4 <init_game>
			// if no button pushes are waiting to be returned.)
			// Button pushes take priority over serial input. If there are both then
			// we'll retrieve the serial input the next time through this loop
			serial_input = -1;
			escape_sequence_char = -1;
			button = button_pushed();
    113c:	0e 94 56 01 	call	0x2ac	; 0x2ac <button_pushed>
    1140:	18 2f       	mov	r17, r24
			
			if(button == -1) {
    1142:	8f 3f       	cpi	r24, 0xFF	; 255
    1144:	f1 f4       	brne	.+60     	; 0x1182 <play_game+0x17a>
				// No push button was pushed, see if there is any serial input
				if(serial_input_available()) {
    1146:	0e 94 80 0b 	call	0x1700	; 0x1700 <serial_input_available>
    114a:	88 23       	and	r24, r24
    114c:	09 f4       	brne	.+2      	; 0x1150 <play_game+0x148>
    114e:	01 c1       	rjmp	.+514    	; 0x1352 <play_game+0x34a>
					// Serial data was available - read the data from standard input
					serial_input = fgetc(stdin);
    1150:	a5 eb       	ldi	r26, 0xB5	; 181
    1152:	b2 e0       	ldi	r27, 0x02	; 2
    1154:	8d 91       	ld	r24, X+
    1156:	9c 91       	ld	r25, X
    1158:	0e 94 06 0f 	call	0x1e0c	; 0x1e0c <fgetc>
					// Check if the character is part of an escape sequence
					if(characters_into_escape_sequence == 0 && serial_input == ESCAPE_CHAR) {
    115c:	bc a1       	ldd	r27, Y+36	; 0x24
    115e:	b1 11       	cpse	r27, r1
    1160:	04 c0       	rjmp	.+8      	; 0x116a <play_game+0x162>
    1162:	8b 31       	cpi	r24, 0x1B	; 27
    1164:	09 f0       	breq	.+2      	; 0x1168 <play_game+0x160>
    1166:	d8 c0       	rjmp	.+432    	; 0x1318 <play_game+0x310>
    1168:	da c0       	rjmp	.+436    	; 0x131e <play_game+0x316>
						// We've hit the first character in an escape sequence (escape)
						characters_into_escape_sequence++;
						serial_input = -1; // Don't further process this character
					} else if(characters_into_escape_sequence == 1 && serial_input == '[') {
    116a:	ec a1       	ldd	r30, Y+36	; 0x24
    116c:	e1 30       	cpi	r30, 0x01	; 1
    116e:	21 f4       	brne	.+8      	; 0x1178 <play_game+0x170>
    1170:	8b 35       	cpi	r24, 0x5B	; 91
    1172:	09 f0       	breq	.+2      	; 0x1176 <play_game+0x16e>
    1174:	d1 c0       	rjmp	.+418    	; 0x1318 <play_game+0x310>
    1176:	d6 c0       	rjmp	.+428    	; 0x1324 <play_game+0x31c>
						// We've hit the second character in an escape sequence
						characters_into_escape_sequence++;
						serial_input = -1; // Don't further process this character
					} else if(characters_into_escape_sequence == 2) {
    1178:	fc a1       	ldd	r31, Y+36	; 0x24
    117a:	f2 30       	cpi	r31, 0x02	; 2
    117c:	09 f4       	brne	.+2      	; 0x1180 <play_game+0x178>
    117e:	c7 c0       	rjmp	.+398    	; 0x130e <play_game+0x306>
    1180:	cb c0       	rjmp	.+406    	; 0x1318 <play_game+0x310>
					}
				}
			}
			
			// Process the input.
			if(!paused) {
    1182:	31 10       	cpse	r3, r1
    1184:	e6 c0       	rjmp	.+460    	; 0x1352 <play_game+0x34a>
				if(button==3 || escape_sequence_char=='D' || serial_input=='J' || serial_input=='j') {
    1186:	83 30       	cpi	r24, 0x03	; 3
    1188:	41 f0       	breq	.+16     	; 0x119a <play_game+0x192>
			// (We don't initalise button to -1 since button_pushed() will return -1
			// if no button pushes are waiting to be returned.)
			// Button pushes take priority over serial input. If there are both then
			// we'll retrieve the serial input the next time through this loop
			serial_input = -1;
			escape_sequence_char = -1;
    118a:	8f ef       	ldi	r24, 0xFF	; 255
    118c:	cf c0       	rjmp	.+414    	; 0x132c <play_game+0x324>
				}
			}
			
			// Process the input.
			if(!paused) {
				if(button==3 || escape_sequence_char=='D' || serial_input=='J' || serial_input=='j') {
    118e:	84 34       	cpi	r24, 0x44	; 68
    1190:	09 f0       	breq	.+2      	; 0x1194 <play_game+0x18c>
    1192:	cb c0       	rjmp	.+406    	; 0x132a <play_game+0x322>
					} else if(characters_into_escape_sequence == 2) {
						// Third (and last) character in the escape sequence
						escape_sequence_char = serial_input;
						serial_input = -1;  // Don't further process this character - we
											// deal with it as part of the escape sequence
						characters_into_escape_sequence = 0;
    1194:	1c a2       	std	Y+36, r1	; 0x24
    1196:	0f ef       	ldi	r16, 0xFF	; 255
    1198:	04 c0       	rjmp	.+8      	; 0x11a2 <play_game+0x19a>
			// variables will be set to a value other than -1 if input is available.
			// (We don't initalise button to -1 since button_pushed() will return -1
			// if no button pushes are waiting to be returned.)
			// Button pushes take priority over serial input. If there are both then
			// we'll retrieve the serial input the next time through this loop
			serial_input = -1;
    119a:	0f ef       	ldi	r16, 0xFF	; 255
    119c:	02 c0       	rjmp	.+4      	; 0x11a2 <play_game+0x19a>
				}
			}
			
			// Process the input.
			if(!paused) {
				if(button==3 || escape_sequence_char=='D' || serial_input=='J' || serial_input=='j') {
    119e:	08 2f       	mov	r16, r24
    11a0:	1c a2       	std	Y+36, r1	; 0x24
					// Attempt to move left
					move_frog_left();
    11a2:	0e 94 73 04 	call	0x8e6	; 0x8e6 <move_frog_left>
    11a6:	1e c0       	rjmp	.+60     	; 0x11e4 <play_game+0x1dc>
				} else if(button==2 || escape_sequence_char=='A' || serial_input=='I' || serial_input=='i') {
    11a8:	81 34       	cpi	r24, 0x41	; 65
    11aa:	29 f0       	breq	.+10     	; 0x11b6 <play_game+0x1ae>
    11ac:	0f ef       	ldi	r16, 0xFF	; 255
				}
			}
			
			// Process the input.
			if(!paused) {
				if(button==3 || escape_sequence_char=='D' || serial_input=='J' || serial_input=='j') {
    11ae:	9f ed       	ldi	r25, 0xDF	; 223
					// Attempt to move left
					move_frog_left();
				} else if(button==2 || escape_sequence_char=='A' || serial_input=='I' || serial_input=='i') {
    11b0:	99 34       	cpi	r25, 0x49	; 73
    11b2:	39 f4       	brne	.+14     	; 0x11c2 <play_game+0x1ba>
    11b4:	03 c0       	rjmp	.+6      	; 0x11bc <play_game+0x1b4>
    11b6:	0f ef       	ldi	r16, 0xFF	; 255
    11b8:	01 c0       	rjmp	.+2      	; 0x11bc <play_game+0x1b4>
    11ba:	0f ef       	ldi	r16, 0xFF	; 255
					// Attempt to move forward
					move_frog_forward();
    11bc:	0e 94 2c 04 	call	0x858	; 0x858 <move_frog_forward>
    11c0:	11 c0       	rjmp	.+34     	; 0x11e4 <play_game+0x1dc>
				} else if(button==1 || escape_sequence_char=='B' || serial_input=='K' || serial_input=='k') {
    11c2:	11 30       	cpi	r17, 0x01	; 1
    11c4:	21 f0       	breq	.+8      	; 0x11ce <play_game+0x1c6>
    11c6:	82 34       	cpi	r24, 0x42	; 66
    11c8:	11 f0       	breq	.+4      	; 0x11ce <play_game+0x1c6>
    11ca:	9b 34       	cpi	r25, 0x4B	; 75
    11cc:	19 f4       	brne	.+6      	; 0x11d4 <play_game+0x1cc>
					// Attempt to move down
					move_frog_backward();
    11ce:	0e 94 5c 04 	call	0x8b8	; 0x8b8 <move_frog_backward>
    11d2:	08 c0       	rjmp	.+16     	; 0x11e4 <play_game+0x1dc>
				} else if(button==0 || escape_sequence_char=='C' || serial_input=='L' || serial_input=='l') {
    11d4:	11 23       	and	r17, r17
    11d6:	21 f0       	breq	.+8      	; 0x11e0 <play_game+0x1d8>
    11d8:	83 34       	cpi	r24, 0x43	; 67
    11da:	11 f0       	breq	.+4      	; 0x11e0 <play_game+0x1d8>
    11dc:	9c 34       	cpi	r25, 0x4C	; 76
    11de:	11 f4       	brne	.+4      	; 0x11e4 <play_game+0x1dc>
					// Attempt to move right
					move_frog_right();
    11e0:	0e 94 8c 04 	call	0x918	; 0x918 <move_frog_right>
				}
			}
			if(serial_input == 'p' || serial_input == 'P') {
    11e4:	80 2f       	mov	r24, r16
    11e6:	8f 7d       	andi	r24, 0xDF	; 223
    11e8:	80 35       	cpi	r24, 0x50	; 80
    11ea:	c9 f4       	brne	.+50     	; 0x121e <play_game+0x216>
				// Unimplemented feature - pause/unpause the game until 'p' or 'P' is
				// pressed again
				if(paused) {
    11ec:	33 20       	and	r3, r3
    11ee:	71 f0       	breq	.+28     	; 0x120c <play_game+0x204>
    11f0:	01 c0       	rjmp	.+2      	; 0x11f4 <play_game+0x1ec>
				} else if(button==0 || escape_sequence_char=='C' || serial_input=='L' || serial_input=='l') {
					// Attempt to move right
					move_frog_right();
				}
			}
			if(serial_input == 'p' || serial_input == 'P') {
    11f2:	1c a2       	std	Y+36, r1	; 0x24
				// Unimplemented feature - pause/unpause the game until 'p' or 'P' is
				// pressed again
				if(paused) {
					unpause_time();
    11f4:	0e 94 c3 0d 	call	0x1b86	; 0x1b86 <unpause_time>
				new_game();
			}
			// else - invalid input or we're part way through an escape sequence -
			// do nothing
			
			current_time = get_clock_ticks();
    11f8:	0e 94 2e 0e 	call	0x1c5c	; 0x1c5c <get_clock_ticks>
    11fc:	4b 01       	movw	r8, r22
    11fe:	5c 01       	movw	r10, r24
			if(is_frog_alive() && !paused) {
    1200:	0e 94 b6 04 	call	0x96c	; 0x96c <is_frog_alive>
    1204:	81 11       	cpse	r24, r1
    1206:	1b c0       	rjmp	.+54     	; 0x123e <play_game+0x236>
			if(serial_input == 'p' || serial_input == 'P') {
				// Unimplemented feature - pause/unpause the game until 'p' or 'P' is
				// pressed again
				if(paused) {
					unpause_time();
					paused = 0;
    1208:	31 2c       	mov	r3, r1
    120a:	68 c0       	rjmp	.+208    	; 0x12dc <play_game+0x2d4>
				} else {
					pause_time();
    120c:	0e 94 b8 0d 	call	0x1b70	; 0x1b70 <pause_time>
				new_game();
			}
			// else - invalid input or we're part way through an escape sequence -
			// do nothing
			
			current_time = get_clock_ticks();
    1210:	0e 94 2e 0e 	call	0x1c5c	; 0x1c5c <get_clock_ticks>
			if(is_frog_alive() && !paused) {
    1214:	0e 94 b6 04 	call	0x96c	; 0x96c <is_frog_alive>
				if(paused) {
					unpause_time();
					paused = 0;
				} else {
					pause_time();
					paused = 1;
    1218:	33 24       	eor	r3, r3
    121a:	33 94       	inc	r3
    121c:	5f c0       	rjmp	.+190    	; 0x12dc <play_game+0x2d4>
				}
			} else if(serial_input == 'n' || serial_input == 'N') {
    121e:	8e 34       	cpi	r24, 0x4E	; 78
    1220:	11 f4       	brne	.+4      	; 0x1226 <play_game+0x21e>
				// Start a new game
				new_game();
    1222:	0e 94 f7 07 	call	0xfee	; 0xfee <new_game>
			}
			// else - invalid input or we're part way through an escape sequence -
			// do nothing
			
			current_time = get_clock_ticks();
    1226:	0e 94 2e 0e 	call	0x1c5c	; 0x1c5c <get_clock_ticks>
    122a:	4b 01       	movw	r8, r22
    122c:	5c 01       	movw	r10, r24
			if(is_frog_alive() && !paused) {
    122e:	0e 94 b6 04 	call	0x96c	; 0x96c <is_frog_alive>
    1232:	88 23       	and	r24, r24
    1234:	09 f4       	brne	.+2      	; 0x1238 <play_game+0x230>
    1236:	52 c0       	rjmp	.+164    	; 0x12dc <play_game+0x2d4>
    1238:	31 10       	cpse	r3, r1
    123a:	50 c0       	rjmp	.+160    	; 0x12dc <play_game+0x2d4>
    123c:	01 c0       	rjmp	.+2      	; 0x1240 <play_game+0x238>
			if(serial_input == 'p' || serial_input == 'P') {
				// Unimplemented feature - pause/unpause the game until 'p' or 'P' is
				// pressed again
				if(paused) {
					unpause_time();
					paused = 0;
    123e:	31 2c       	mov	r3, r1
    1240:	8e 01       	movw	r16, r28
    1242:	0f 5f       	subi	r16, 0xFF	; 255
    1244:	1f 4f       	sbci	r17, 0xFF	; 255
    1246:	c1 2c       	mov	r12, r1
    1248:	d1 2c       	mov	r13, r1
    124a:	e1 2c       	mov	r14, r1
    124c:	f1 2c       	mov	r15, r1
    124e:	21 2c       	mov	r2, r1
    1250:	3b a2       	std	Y+35, r3	; 0x23
    1252:	32 2c       	mov	r3, r2
    1254:	1a a3       	std	Y+34, r17	; 0x22
    1256:	09 a3       	std	Y+33, r16	; 0x21
			// do nothing
			
			current_time = get_clock_ticks();
			if(is_frog_alive() && !paused) {
				for(uint8_t i = 0; i < 5; i++) {
					if(current_time > last_move_time[i] + 1200 - 150*i - get_speed()) {
    1258:	d8 01       	movw	r26, r16
    125a:	4d 90       	ld	r4, X+
    125c:	5d 90       	ld	r5, X+
    125e:	6d 90       	ld	r6, X+
    1260:	7c 90       	ld	r7, X
    1262:	0e 94 fa 0c 	call	0x19f4	; 0x19f4 <get_speed>
    1266:	4c 18       	sub	r4, r12
    1268:	5d 08       	sbc	r5, r13
    126a:	6e 08       	sbc	r6, r14
    126c:	7f 08       	sbc	r7, r15
    126e:	b0 eb       	ldi	r27, 0xB0	; 176
    1270:	4b 0e       	add	r4, r27
    1272:	b4 e0       	ldi	r27, 0x04	; 4
    1274:	5b 1e       	adc	r5, r27
    1276:	61 1c       	adc	r6, r1
    1278:	71 1c       	adc	r7, r1
    127a:	48 1a       	sub	r4, r24
    127c:	59 0a       	sbc	r5, r25
    127e:	61 08       	sbc	r6, r1
    1280:	71 08       	sbc	r7, r1
    1282:	48 14       	cp	r4, r8
    1284:	59 04       	cpc	r5, r9
    1286:	6a 04       	cpc	r6, r10
    1288:	7b 04       	cpc	r7, r11
    128a:	e0 f4       	brcc	.+56     	; 0x12c4 <play_game+0x2bc>
						if(i > 2) {
    128c:	e2 e0       	ldi	r30, 0x02	; 2
    128e:	e3 15       	cp	r30, r3
    1290:	50 f4       	brcc	.+20     	; 0x12a6 <play_game+0x29e>
							scroll_log_channel(i - 3, 1 - 2*(i%2));
    1292:	63 2d       	mov	r22, r3
    1294:	61 70       	andi	r22, 0x01	; 1
    1296:	61 95       	neg	r22
    1298:	66 0f       	add	r22, r22
    129a:	6f 5f       	subi	r22, 0xFF	; 255
    129c:	8d ef       	ldi	r24, 0xFD	; 253
    129e:	83 0d       	add	r24, r3
    12a0:	0e 94 f4 04 	call	0x9e8	; 0x9e8 <scroll_log_channel>
    12a4:	08 c0       	rjmp	.+16     	; 0x12b6 <play_game+0x2ae>
						} else {
							scroll_lane(i, 1 - 2*(i%2));
    12a6:	63 2d       	mov	r22, r3
    12a8:	61 70       	andi	r22, 0x01	; 1
    12aa:	61 95       	neg	r22
    12ac:	66 0f       	add	r22, r22
    12ae:	6f 5f       	subi	r22, 0xFF	; 255
    12b0:	83 2d       	mov	r24, r3
    12b2:	0e 94 b9 04 	call	0x972	; 0x972 <scroll_lane>
						}
						last_move_time[i] = current_time;
    12b6:	a9 a1       	ldd	r26, Y+33	; 0x21
    12b8:	ba a1       	ldd	r27, Y+34	; 0x22
    12ba:	8d 92       	st	X+, r8
    12bc:	9d 92       	st	X+, r9
    12be:	ad 92       	st	X+, r10
    12c0:	bc 92       	st	X, r11
    12c2:	13 97       	sbiw	r26, 0x03	; 3
			// else - invalid input or we're part way through an escape sequence -
			// do nothing
			
			current_time = get_clock_ticks();
			if(is_frog_alive() && !paused) {
				for(uint8_t i = 0; i < 5; i++) {
    12c4:	33 94       	inc	r3
    12c6:	0c 5f       	subi	r16, 0xFC	; 252
    12c8:	1f 4f       	sbci	r17, 0xFF	; 255
    12ca:	b6 e9       	ldi	r27, 0x96	; 150
    12cc:	cb 0e       	add	r12, r27
    12ce:	d1 1c       	adc	r13, r1
    12d0:	e1 1c       	adc	r14, r1
    12d2:	f1 1c       	adc	r15, r1
    12d4:	e5 e0       	ldi	r30, 0x05	; 5
    12d6:	3e 12       	cpse	r3, r30
    12d8:	bd cf       	rjmp	.-134    	; 0x1254 <play_game+0x24c>
    12da:	3b a0       	ldd	r3, Y+35	; 0x23
						last_move_time[i] = current_time;
					}
				}
			}
			// Draw the time
			draw_time();
    12dc:	0e 94 ff 0c 	call	0x19fe	; 0x19fe <draw_time>

	// We play the game while the frog is alive and we haven't filled up the 
	// far riverbank
	reset_time();
	while(get_lives()) {
		while(is_frog_alive() && (get_time() > 0 || paused)) {
    12e0:	0e 94 b6 04 	call	0x96c	; 0x96c <is_frog_alive>
    12e4:	88 23       	and	r24, r24
    12e6:	31 f0       	breq	.+12     	; 0x12f4 <play_game+0x2ec>
    12e8:	0e 94 81 0d 	call	0x1b02	; 0x1b02 <get_time>
    12ec:	81 11       	cpse	r24, r1
    12ee:	c2 ce       	rjmp	.-636    	; 0x1074 <play_game+0x6c>
    12f0:	31 10       	cpse	r3, r1
    12f2:	c0 ce       	rjmp	.-640    	; 0x1074 <play_game+0x6c>
			}
			// Draw the time
			draw_time();
		}
		// We get here if the frog has died or the riverbank is full
		lose_life();
    12f4:	0e 94 d5 0c 	call	0x19aa	; 0x19aa <lose_life>
		draw_stats();
    12f8:	0e 94 70 0c 	call	0x18e0	; 0x18e0 <draw_stats>
		put_frog_at_start();
    12fc:	0e 94 ef 03 	call	0x7de	; 0x7de <put_frog_at_start>
		reset_time();
    1300:	0e 94 71 0d 	call	0x1ae2	; 0x1ae2 <reset_time>
	}

	// We play the game while the frog is alive and we haven't filled up the 
	// far riverbank
	reset_time();
	while(get_lives()) {
    1304:	0e 94 e3 0c 	call	0x19c6	; 0x19c6 <get_lives>
    1308:	88 23       	and	r24, r24
    130a:	29 f1       	breq	.+74     	; 0x1356 <play_game+0x34e>
    130c:	e9 cf       	rjmp	.-46     	; 0x12e0 <play_game+0x2d8>
					}
				}
			}
			
			// Process the input.
			if(!paused) {
    130e:	33 20       	and	r3, r3
    1310:	09 f4       	brne	.+2      	; 0x1314 <play_game+0x30c>
    1312:	3d cf       	rjmp	.-390    	; 0x118e <play_game+0x186>
					} else if(characters_into_escape_sequence == 2) {
						// Third (and last) character in the escape sequence
						escape_sequence_char = serial_input;
						serial_input = -1;  // Don't further process this character - we
											// deal with it as part of the escape sequence
						characters_into_escape_sequence = 0;
    1314:	1c a2       	std	Y+36, r1	; 0x24
    1316:	1d c0       	rjmp	.+58     	; 0x1352 <play_game+0x34a>
					}
				}
			}
			
			// Process the input.
			if(!paused) {
    1318:	33 20       	and	r3, r3
    131a:	61 f0       	breq	.+24     	; 0x1334 <play_game+0x32c>
    131c:	14 c0       	rjmp	.+40     	; 0x1346 <play_game+0x33e>
					// Serial data was available - read the data from standard input
					serial_input = fgetc(stdin);
					// Check if the character is part of an escape sequence
					if(characters_into_escape_sequence == 0 && serial_input == ESCAPE_CHAR) {
						// We've hit the first character in an escape sequence (escape)
						characters_into_escape_sequence++;
    131e:	f1 e0       	ldi	r31, 0x01	; 1
    1320:	fc a3       	std	Y+36, r31	; 0x24
    1322:	17 c0       	rjmp	.+46     	; 0x1352 <play_game+0x34a>
						serial_input = -1; // Don't further process this character
					} else if(characters_into_escape_sequence == 1 && serial_input == '[') {
						// We've hit the second character in an escape sequence
						characters_into_escape_sequence++;
    1324:	22 e0       	ldi	r18, 0x02	; 2
    1326:	2c a3       	std	Y+36, r18	; 0x24
    1328:	14 c0       	rjmp	.+40     	; 0x1352 <play_game+0x34a>
					} else if(characters_into_escape_sequence == 2) {
						// Third (and last) character in the escape sequence
						escape_sequence_char = serial_input;
						serial_input = -1;  // Don't further process this character - we
											// deal with it as part of the escape sequence
						characters_into_escape_sequence = 0;
    132a:	1c a2       	std	Y+36, r1	; 0x24
			// Process the input.
			if(!paused) {
				if(button==3 || escape_sequence_char=='D' || serial_input=='J' || serial_input=='j') {
					// Attempt to move left
					move_frog_left();
				} else if(button==2 || escape_sequence_char=='A' || serial_input=='I' || serial_input=='i') {
    132c:	12 30       	cpi	r17, 0x02	; 2
    132e:	09 f0       	breq	.+2      	; 0x1332 <play_game+0x32a>
    1330:	3b cf       	rjmp	.-394    	; 0x11a8 <play_game+0x1a0>
    1332:	43 cf       	rjmp	.-378    	; 0x11ba <play_game+0x1b2>
				}
			}
			
			// Process the input.
			if(!paused) {
				if(button==3 || escape_sequence_char=='D' || serial_input=='J' || serial_input=='j') {
    1334:	98 2f       	mov	r25, r24
    1336:	9f 7d       	andi	r25, 0xDF	; 223
    1338:	9a 34       	cpi	r25, 0x4A	; 74
    133a:	09 f4       	brne	.+2      	; 0x133e <play_game+0x336>
    133c:	30 cf       	rjmp	.-416    	; 0x119e <play_game+0x196>
    133e:	08 2f       	mov	r16, r24
    1340:	1c a2       	std	Y+36, r1	; 0x24
    1342:	8f ef       	ldi	r24, 0xFF	; 255
    1344:	35 cf       	rjmp	.-406    	; 0x11b0 <play_game+0x1a8>
				} else if(button==0 || escape_sequence_char=='C' || serial_input=='L' || serial_input=='l') {
					// Attempt to move right
					move_frog_right();
				}
			}
			if(serial_input == 'p' || serial_input == 'P') {
    1346:	8f 7d       	andi	r24, 0xDF	; 223
    1348:	80 35       	cpi	r24, 0x50	; 80
    134a:	09 f4       	brne	.+2      	; 0x134e <play_game+0x346>
    134c:	52 cf       	rjmp	.-348    	; 0x11f2 <play_game+0x1ea>
    134e:	1c a2       	std	Y+36, r1	; 0x24
    1350:	66 cf       	rjmp	.-308    	; 0x121e <play_game+0x216>
    1352:	8f ed       	ldi	r24, 0xDF	; 223
    1354:	64 cf       	rjmp	.-312    	; 0x121e <play_game+0x216>
		put_frog_at_start();
		reset_time();
	}
	// We get here if the frog is dead and there are no lives left
	// The game is over.
}
    1356:	a6 96       	adiw	r28, 0x26	; 38
    1358:	0f b6       	in	r0, 0x3f	; 63
    135a:	f8 94       	cli
    135c:	de bf       	out	0x3e, r29	; 62
    135e:	0f be       	out	0x3f, r0	; 63
    1360:	cd bf       	out	0x3d, r28	; 61
    1362:	df 91       	pop	r29
    1364:	cf 91       	pop	r28
    1366:	1f 91       	pop	r17
    1368:	0f 91       	pop	r16
    136a:	ff 90       	pop	r15
    136c:	ef 90       	pop	r14
    136e:	df 90       	pop	r13
    1370:	cf 90       	pop	r12
    1372:	bf 90       	pop	r11
    1374:	af 90       	pop	r10
    1376:	9f 90       	pop	r9
    1378:	8f 90       	pop	r8
    137a:	7f 90       	pop	r7
    137c:	6f 90       	pop	r6
    137e:	5f 90       	pop	r5
    1380:	4f 90       	pop	r4
    1382:	3f 90       	pop	r3
    1384:	2f 90       	pop	r2
    1386:	08 95       	ret

00001388 <handle_game_over>:

void handle_game_over() {
	// Check if new high score
	if(is_high_score(get_score())) {
    1388:	0e 94 d0 0c 	call	0x19a0	; 0x19a0 <get_score>
    138c:	0e 94 19 06 	call	0xc32	; 0xc32 <is_high_score>
    1390:	88 23       	and	r24, r24
    1392:	41 f0       	breq	.+16     	; 0x13a4 <handle_game_over+0x1c>
		new_high_score(get_score());
    1394:	0e 94 d0 0c 	call	0x19a0	; 0x19a0 <get_score>
    1398:	0e 94 21 06 	call	0xc42	; 0xc42 <new_high_score>
		clear_terminal();
    139c:	0e 94 0d 0e 	call	0x1c1a	; 0x1c1a <clear_terminal>
		draw_stats();
    13a0:	0e 94 70 0c 	call	0x18e0	; 0x18e0 <draw_stats>
	}
	move_cursor(10,7);
    13a4:	67 e0       	ldi	r22, 0x07	; 7
    13a6:	70 e0       	ldi	r23, 0x00	; 0
    13a8:	8a e0       	ldi	r24, 0x0A	; 10
    13aa:	90 e0       	ldi	r25, 0x00	; 0
    13ac:	0e 94 fc 0d 	call	0x1bf8	; 0x1bf8 <move_cursor>
	printf_P(PSTR("GAME OVER"));
    13b0:	82 ef       	ldi	r24, 0xF2	; 242
    13b2:	90 e0       	ldi	r25, 0x00	; 0
    13b4:	9f 93       	push	r25
    13b6:	8f 93       	push	r24
    13b8:	0e 94 44 0f 	call	0x1e88	; 0x1e88 <printf_P>
	move_cursor(10,8);
    13bc:	68 e0       	ldi	r22, 0x08	; 8
    13be:	70 e0       	ldi	r23, 0x00	; 0
    13c0:	8a e0       	ldi	r24, 0x0A	; 10
    13c2:	90 e0       	ldi	r25, 0x00	; 0
    13c4:	0e 94 fc 0d 	call	0x1bf8	; 0x1bf8 <move_cursor>
	printf_P(PSTR("Press a button to start again"));
    13c8:	84 ed       	ldi	r24, 0xD4	; 212
    13ca:	90 e0       	ldi	r25, 0x00	; 0
    13cc:	9f 93       	push	r25
    13ce:	8f 93       	push	r24
    13d0:	0e 94 44 0f 	call	0x1e88	; 0x1e88 <printf_P>
	draw_high_scores();
    13d4:	0e 94 b9 05 	call	0xb72	; 0xb72 <draw_high_scores>
	while(button_pushed() == -1) {
    13d8:	0f 90       	pop	r0
    13da:	0f 90       	pop	r0
    13dc:	0f 90       	pop	r0
    13de:	0f 90       	pop	r0
    13e0:	0e 94 56 01 	call	0x2ac	; 0x2ac <button_pushed>
    13e4:	8f 3f       	cpi	r24, 0xFF	; 255
    13e6:	e1 f3       	breq	.-8      	; 0x13e0 <handle_game_over+0x58>
		; // wait
	}
}
    13e8:	08 95       	ret

000013ea <main>:

/////////////////////////////// main //////////////////////////////////
int main(void) {
	// Setup hardware and call backs. This will turn on 
	// interrupts.
	initialise_hardware();
    13ea:	0e 94 a9 07 	call	0xf52	; 0xf52 <initialise_hardware>

	// Load high scores
	load_high_scores();
    13ee:	0e 94 3b 05 	call	0xa76	; 0xa76 <load_high_scores>
	
	// Show the splash screen message. Returns when display
	// is complete
	splash_screen();
    13f2:	0e 94 ba 07 	call	0xf74	; 0xf74 <splash_screen>
	
	while(1) {
		new_game();
    13f6:	0e 94 f7 07 	call	0xfee	; 0xfee <new_game>
		play_game();
    13fa:	0e 94 04 08 	call	0x1008	; 0x1008 <play_game>
		handle_game_over();
    13fe:	0e 94 c4 09 	call	0x1388	; 0x1388 <handle_game_over>
    1402:	f9 cf       	rjmp	.-14     	; 0x13f6 <main+0xc>

00001404 <set_text_colour>:
static volatile char* next_char_to_display = 0;

/* Set the colour to be used
 */
void set_text_colour(PixelColour c) {
	colour = c;
    1404:	80 93 07 01 	sts	0x0107, r24
    1408:	08 95       	ret

0000140a <set_scrolling_display_text>:
 * pointer not the string it points to, so it is important
 * that the original string not change after this function
 * is called while the string is still being displayed.
 */
void set_scrolling_display_text(char* string_to_display) {
	displayString = string_to_display;
    140a:	90 93 46 01 	sts	0x0146, r25
    140e:	80 93 45 01 	sts	0x0145, r24
    1412:	08 95       	ret

00001414 <clear_scrolling_text>:
}

// Clear the text to scroll
void clear_scrolling_text(void) {
	next_char_to_display = 0;
    1414:	10 92 44 01 	sts	0x0144, r1
    1418:	10 92 43 01 	sts	0x0143, r1
    141c:	08 95       	ret

0000141e <scroll_display>:
/*
 * Scroll the display. Should be called whenever the display
 * is to be scrolled. 
 * Returns 1 if still scrolling display.
 */
uint8_t scroll_display(void) {
    141e:	0f 93       	push	r16
    1420:	1f 93       	push	r17
    1422:	cf 93       	push	r28
    1424:	df 93       	push	r29
    1426:	cd b7       	in	r28, 0x3d	; 61
    1428:	de b7       	in	r29, 0x3e	; 62
    142a:	28 97       	sbiw	r28, 0x08	; 8
    142c:	0f b6       	in	r0, 0x3f	; 63
    142e:	f8 94       	cli
    1430:	de bf       	out	0x3e, r29	; 62
    1432:	0f be       	out	0x3f, r0	; 63
    1434:	cd bf       	out	0x3d, r28	; 61
	 * column data corresponds to row 7 of the display
	 * etc.
	 */
	col_data = 0;

	if(next_col_ptr) {
    1436:	e0 91 47 01 	lds	r30, 0x0147
    143a:	f0 91 48 01 	lds	r31, 0x0148
    143e:	30 97       	sbiw	r30, 0x00	; 0
    1440:	81 f0       	breq	.+32     	; 0x1462 <scroll_display+0x44>
		/* We're currently outputting a character and next_col_ptr
		 * points to the display data for the next column. We
		 * extract that data from program memory.
		 */
		col_data = pgm_read_byte(next_col_ptr);
    1442:	14 91       	lpm	r17, Z

		if(col_data & 1) {
    1444:	10 ff       	sbrs	r17, 0
    1446:	06 c0       	rjmp	.+12     	; 0x1454 <scroll_display+0x36>
			/* Least significant bit is set - this is the last
			 * column of this character
			 */
			next_col_ptr = 0;
    1448:	10 92 48 01 	sts	0x0148, r1
    144c:	10 92 47 01 	sts	0x0147, r1
uint8_t scroll_display(void) {
	static uint8_t shift_countdown = 0;
	uint8_t i;
	uint8_t col_data;
	char next_char;
	uint8_t finished = 0;
    1450:	00 e0       	ldi	r16, 0x00	; 0
    1452:	6b c0       	rjmp	.+214    	; 0x152a <scroll_display+0x10c>
			next_col_ptr = 0;
		} else {
			/* This is not the last column of this character - make
			 * the pointer point to the data for the next column.
			 */
			next_col_ptr++;
    1454:	31 96       	adiw	r30, 0x01	; 1
    1456:	f0 93 48 01 	sts	0x0148, r31
    145a:	e0 93 47 01 	sts	0x0147, r30
uint8_t scroll_display(void) {
	static uint8_t shift_countdown = 0;
	uint8_t i;
	uint8_t col_data;
	char next_char;
	uint8_t finished = 0;
    145e:	00 e0       	ldi	r16, 0x00	; 0
    1460:	64 c0       	rjmp	.+200    	; 0x152a <scroll_display+0x10c>
			/* This is not the last column of this character - make
			 * the pointer point to the data for the next column.
			 */
			next_col_ptr++;
		}
	} else if(next_char_to_display) {
    1462:	e0 91 43 01 	lds	r30, 0x0143
    1466:	f0 91 44 01 	lds	r31, 0x0144
    146a:	30 97       	sbiw	r30, 0x00	; 0
    146c:	09 f4       	brne	.+2      	; 0x1470 <scroll_display+0x52>
    146e:	49 c0       	rjmp	.+146    	; 0x1502 <scroll_display+0xe4>
		 * the next character. We first get the next character to be 
		 * displayed and advance our next character pointer 
		 * (next_char_to_display) so that it points to the character 
		 * after.
		 */
		next_char = *(next_char_to_display++);
    1470:	cf 01       	movw	r24, r30
    1472:	01 96       	adiw	r24, 0x01	; 1
    1474:	90 93 44 01 	sts	0x0144, r25
    1478:	80 93 43 01 	sts	0x0143, r24
    147c:	e0 81       	ld	r30, Z
		if(next_char == 0) {
    147e:	e1 11       	cpse	r30, r1
    1480:	0a c0       	rjmp	.+20     	; 0x1496 <scroll_display+0x78>
			/* We reached the null character at the end of the string.
			 * There is no next character, reset our pointer to 
			 * the next character and set our countdown until the 
			 * message disappears from the display.
			 */
			next_char_to_display = 0;
    1482:	10 92 44 01 	sts	0x0144, r1
    1486:	10 92 43 01 	sts	0x0143, r1
			shift_countdown = 16;
    148a:	80 e1       	ldi	r24, 0x10	; 16
    148c:	80 93 42 01 	sts	0x0142, r24
uint8_t scroll_display(void) {
	static uint8_t shift_countdown = 0;
	uint8_t i;
	uint8_t col_data;
	char next_char;
	uint8_t finished = 0;
    1490:	00 e0       	ldi	r16, 0x00	; 0
	/* Data to be displayed in the next column - by 
	 * default we show a blank column. Bit 7 of this
	 * column data corresponds to row 7 of the display
	 * etc.
	 */
	col_data = 0;
    1492:	10 e0       	ldi	r17, 0x00	; 0
    1494:	4a c0       	rjmp	.+148    	; 0x152a <scroll_display+0x10c>
			 * the next character and set our countdown until the 
			 * message disappears from the display.
			 */
			next_char_to_display = 0;
			shift_countdown = 16;
		} else if (next_char >= 'a' && next_char <= 'z') {
    1496:	8f e9       	ldi	r24, 0x9F	; 159
    1498:	8e 0f       	add	r24, r30
    149a:	8a 31       	cpi	r24, 0x1A	; 26
    149c:	70 f4       	brcc	.+28     	; 0x14ba <scroll_display+0x9c>
			/* Character is a lower case letter - the next column to 
			 * be displayed will be the first column of the letter
			 * data for that letter
			 */
			next_col_ptr = (const uint8_t*)pgm_read_word(&letters[next_char - 'a']);
    149e:	f0 e0       	ldi	r31, 0x00	; 0
    14a0:	ee 0f       	add	r30, r30
    14a2:	ff 1f       	adc	r31, r31
    14a4:	ec 57       	subi	r30, 0x7C	; 124
    14a6:	ff 4f       	sbci	r31, 0xFF	; 255
    14a8:	85 91       	lpm	r24, Z+
    14aa:	94 91       	lpm	r25, Z
    14ac:	90 93 48 01 	sts	0x0148, r25
    14b0:	80 93 47 01 	sts	0x0147, r24
uint8_t scroll_display(void) {
	static uint8_t shift_countdown = 0;
	uint8_t i;
	uint8_t col_data;
	char next_char;
	uint8_t finished = 0;
    14b4:	00 e0       	ldi	r16, 0x00	; 0
	/* Data to be displayed in the next column - by 
	 * default we show a blank column. Bit 7 of this
	 * column data corresponds to row 7 of the display
	 * etc.
	 */
	col_data = 0;
    14b6:	10 e0       	ldi	r17, 0x00	; 0
    14b8:	38 c0       	rjmp	.+112    	; 0x152a <scroll_display+0x10c>
			/* Character is a lower case letter - the next column to 
			 * be displayed will be the first column of the letter
			 * data for that letter
			 */
			next_col_ptr = (const uint8_t*)pgm_read_word(&letters[next_char - 'a']);
		} else if (next_char >= 'A' && next_char <= 'Z') {
    14ba:	8f eb       	ldi	r24, 0xBF	; 191
    14bc:	8e 0f       	add	r24, r30
    14be:	8a 31       	cpi	r24, 0x1A	; 26
    14c0:	70 f4       	brcc	.+28     	; 0x14de <scroll_display+0xc0>
			/* Upper case character */
			next_col_ptr = (const uint8_t*)pgm_read_word(&letters[next_char - 'A']);
    14c2:	f0 e0       	ldi	r31, 0x00	; 0
    14c4:	ee 0f       	add	r30, r30
    14c6:	ff 1f       	adc	r31, r31
    14c8:	ec 53       	subi	r30, 0x3C	; 60
    14ca:	ff 4f       	sbci	r31, 0xFF	; 255
    14cc:	85 91       	lpm	r24, Z+
    14ce:	94 91       	lpm	r25, Z
    14d0:	90 93 48 01 	sts	0x0148, r25
    14d4:	80 93 47 01 	sts	0x0147, r24
uint8_t scroll_display(void) {
	static uint8_t shift_countdown = 0;
	uint8_t i;
	uint8_t col_data;
	char next_char;
	uint8_t finished = 0;
    14d8:	00 e0       	ldi	r16, 0x00	; 0
	/* Data to be displayed in the next column - by 
	 * default we show a blank column. Bit 7 of this
	 * column data corresponds to row 7 of the display
	 * etc.
	 */
	col_data = 0;
    14da:	10 e0       	ldi	r17, 0x00	; 0
    14dc:	26 c0       	rjmp	.+76     	; 0x152a <scroll_display+0x10c>
			 */
			next_col_ptr = (const uint8_t*)pgm_read_word(&letters[next_char - 'a']);
		} else if (next_char >= 'A' && next_char <= 'Z') {
			/* Upper case character */
			next_col_ptr = (const uint8_t*)pgm_read_word(&letters[next_char - 'A']);
		} else if (next_char >= '0' && next_char <= '9') {
    14de:	80 ed       	ldi	r24, 0xD0	; 208
    14e0:	8e 0f       	add	r24, r30
    14e2:	8a 30       	cpi	r24, 0x0A	; 10
    14e4:	00 f5       	brcc	.+64     	; 0x1526 <scroll_display+0x108>
			/* Digit */
			next_col_ptr = (const uint8_t*)pgm_read_word(&numbers[next_char - '0']);
    14e6:	f0 e0       	ldi	r31, 0x00	; 0
    14e8:	ee 0f       	add	r30, r30
    14ea:	ff 1f       	adc	r31, r31
    14ec:	ee 52       	subi	r30, 0x2E	; 46
    14ee:	ff 4f       	sbci	r31, 0xFF	; 255
    14f0:	85 91       	lpm	r24, Z+
    14f2:	94 91       	lpm	r25, Z
    14f4:	90 93 48 01 	sts	0x0148, r25
    14f8:	80 93 47 01 	sts	0x0147, r24
uint8_t scroll_display(void) {
	static uint8_t shift_countdown = 0;
	uint8_t i;
	uint8_t col_data;
	char next_char;
	uint8_t finished = 0;
    14fc:	00 e0       	ldi	r16, 0x00	; 0
	/* Data to be displayed in the next column - by 
	 * default we show a blank column. Bit 7 of this
	 * column data corresponds to row 7 of the display
	 * etc.
	 */
	col_data = 0;
    14fe:	10 e0       	ldi	r17, 0x00	; 0
    1500:	14 c0       	rjmp	.+40     	; 0x152a <scroll_display+0x10c>
	} else {
		/* We're not outputting a column of dots and there is 
		 * no next character. Move on to the string that we
		 * have stored (if any).
		 */
		if(!displayString) {
    1502:	80 91 45 01 	lds	r24, 0x0145
    1506:	90 91 46 01 	lds	r25, 0x0146
    150a:	01 e0       	ldi	r16, 0x01	; 1
    150c:	00 97       	sbiw	r24, 0x00	; 0
    150e:	09 f0       	breq	.+2      	; 0x1512 <scroll_display+0xf4>
    1510:	00 e0       	ldi	r16, 0x00	; 0
			/* May be finished - flag this and adjust below if we're still
			 * showing pixels
			 */
			finished = 1;
		}
		next_char_to_display = displayString;
    1512:	90 93 44 01 	sts	0x0144, r25
    1516:	80 93 43 01 	sts	0x0143, r24
		displayString = 0;
    151a:	10 92 46 01 	sts	0x0146, r1
    151e:	10 92 45 01 	sts	0x0145, r1
	/* Data to be displayed in the next column - by 
	 * default we show a blank column. Bit 7 of this
	 * column data corresponds to row 7 of the display
	 * etc.
	 */
	col_data = 0;
    1522:	10 e0       	ldi	r17, 0x00	; 0
    1524:	02 c0       	rjmp	.+4      	; 0x152a <scroll_display+0x10c>
uint8_t scroll_display(void) {
	static uint8_t shift_countdown = 0;
	uint8_t i;
	uint8_t col_data;
	char next_char;
	uint8_t finished = 0;
    1526:	00 e0       	ldi	r16, 0x00	; 0
	/* Data to be displayed in the next column - by 
	 * default we show a blank column. Bit 7 of this
	 * column data corresponds to row 7 of the display
	 * etc.
	 */
	col_data = 0;
    1528:	10 e0       	ldi	r17, 0x00	; 0
	/* Shift the current display one pixel to the left and insert the 
	 * new column data at column 15.
	 * Adjust our "finished" variable if we've finished scrolling the
	 * message off the display
	 */
	ledmatrix_shift_display_left();
    152a:	0e 94 9e 07 	call	0xf3c	; 0xf3c <ledmatrix_shift_display_left>
	MatrixColumn column_colour_data;
	for(i=7; i>=1; i--) {
		// If the relevant font bit is set, we make this a red pixel, otherwise blank
		if(col_data & 0x80) {
			column_colour_data[i] = colour;
    152e:	30 91 07 01 	lds	r19, 0x0107
    1532:	fe 01       	movw	r30, r28
    1534:	38 96       	adiw	r30, 0x08	; 8
    1536:	ce 01       	movw	r24, r28
    1538:	01 96       	adiw	r24, 0x01	; 1
    153a:	21 2f       	mov	r18, r17
    153c:	22 0f       	add	r18, r18
    153e:	22 0b       	sbc	r18, r18
    1540:	23 23       	and	r18, r19
    1542:	20 83       	st	Z, r18
		} else {
			column_colour_data[i] = 0;
		}
		col_data <<= 1;
    1544:	11 0f       	add	r17, r17
    1546:	31 97       	sbiw	r30, 0x01	; 1
	 * Adjust our "finished" variable if we've finished scrolling the
	 * message off the display
	 */
	ledmatrix_shift_display_left();
	MatrixColumn column_colour_data;
	for(i=7; i>=1; i--) {
    1548:	e8 17       	cp	r30, r24
    154a:	f9 07       	cpc	r31, r25
    154c:	b1 f7       	brne	.-20     	; 0x153a <scroll_display+0x11c>
		} else {
			column_colour_data[i] = 0;
		}
		col_data <<= 1;
	}
	column_colour_data[0] = 0;
    154e:	19 82       	std	Y+1, r1	; 0x01
	ledmatrix_update_column(15, column_colour_data);
    1550:	be 01       	movw	r22, r28
    1552:	6f 5f       	subi	r22, 0xFF	; 255
    1554:	7f 4f       	sbci	r23, 0xFF	; 255
    1556:	8f e0       	ldi	r24, 0x0F	; 15
    1558:	0e 94 82 07 	call	0xf04	; 0xf04 <ledmatrix_update_column>
	if(shift_countdown > 0) {
    155c:	80 91 42 01 	lds	r24, 0x0142
    1560:	88 23       	and	r24, r24
    1562:	19 f0       	breq	.+6      	; 0x156a <scroll_display+0x14c>
		shift_countdown--;
    1564:	81 50       	subi	r24, 0x01	; 1
    1566:	80 93 42 01 	sts	0x0142, r24
	}
	finished = finished && (shift_countdown == 0);
    156a:	00 23       	and	r16, r16
    156c:	39 f0       	breq	.+14     	; 0x157c <scroll_display+0x15e>
    156e:	91 e0       	ldi	r25, 0x01	; 1
    1570:	80 91 42 01 	lds	r24, 0x0142
    1574:	88 23       	and	r24, r24
    1576:	19 f0       	breq	.+6      	; 0x157e <scroll_display+0x160>
    1578:	90 e0       	ldi	r25, 0x00	; 0
    157a:	01 c0       	rjmp	.+2      	; 0x157e <scroll_display+0x160>
    157c:	90 e0       	ldi	r25, 0x00	; 0
	return !finished;
    157e:	81 e0       	ldi	r24, 0x01	; 1
    1580:	91 11       	cpse	r25, r1
    1582:	80 e0       	ldi	r24, 0x00	; 0
}
    1584:	28 96       	adiw	r28, 0x08	; 8
    1586:	0f b6       	in	r0, 0x3f	; 63
    1588:	f8 94       	cli
    158a:	de bf       	out	0x3e, r29	; 62
    158c:	0f be       	out	0x3f, r0	; 63
    158e:	cd bf       	out	0x3d, r28	; 61
    1590:	df 91       	pop	r29
    1592:	cf 91       	pop	r28
    1594:	1f 91       	pop	r17
    1596:	0f 91       	pop	r16
    1598:	08 95       	ret

0000159a <uart_put_char>:
	/* Just adjust our buffer data so it looks empty */
	input_insert_pos = 0;
	bytes_in_input_buffer = 0;
}

static int uart_put_char(char c, FILE* stream) {
    159a:	cf 93       	push	r28
    159c:	c8 2f       	mov	r28, r24
	/* Add the character to the buffer for transmission (if there 
	 * is space to do so). If not we wait until the buffer has space.
	 * If the character is \n, we output \r (carriage return)
	 * also.
	*/
	if(c == '\n') {
    159e:	8a 30       	cpi	r24, 0x0A	; 10
    15a0:	19 f4       	brne	.+6      	; 0x15a8 <uart_put_char+0xe>
		uart_put_char('\r', stream);
    15a2:	8d e0       	ldi	r24, 0x0D	; 13
    15a4:	0e 94 cd 0a 	call	0x159a	; 0x159a <uart_put_char>
	 * never be emptied if interrupts are disabled. If the buffer is full
	 * and interrupts are enabled then we loop until the buffer has 
	 * enough space. The bytes_in_buffer variable will get modified by the
	 * ISR which extracts bytes from the buffer.
	*/
	interrupts_enabled = bit_is_set(SREG, SREG_I);
    15a8:	2f b7       	in	r18, 0x3f	; 63
    15aa:	20 78       	andi	r18, 0x80	; 128
	while(bytes_in_out_buffer >= OUTPUT_BUFFER_SIZE) {
    15ac:	02 c0       	rjmp	.+4      	; 0x15b2 <uart_put_char+0x18>
		if(!interrupts_enabled) {
    15ae:	22 23       	and	r18, r18
    15b0:	29 f1       	breq	.+74     	; 0x15fc <uart_put_char+0x62>
	 * and interrupts are enabled then we loop until the buffer has 
	 * enough space. The bytes_in_buffer variable will get modified by the
	 * ISR which extracts bytes from the buffer.
	*/
	interrupts_enabled = bit_is_set(SREG, SREG_I);
	while(bytes_in_out_buffer >= OUTPUT_BUFFER_SIZE) {
    15b2:	90 91 93 01 	lds	r25, 0x0193
    15b6:	9f 3f       	cpi	r25, 0xFF	; 255
    15b8:	d1 f3       	breq	.-12     	; 0x15ae <uart_put_char+0x14>
	 * NOTE: we disable interrupts before modifying the buffer. This
	 * prevents the ISR from modifying the buffer at the same time.
	 * We reenable them if they were enabled when we entered the
	 * function.
	*/	
	cli();
    15ba:	f8 94       	cli
	out_buffer[out_insert_pos++] = c;
    15bc:	e0 91 92 01 	lds	r30, 0x0192
    15c0:	81 e0       	ldi	r24, 0x01	; 1
    15c2:	8e 0f       	add	r24, r30
    15c4:	80 93 92 01 	sts	0x0192, r24
    15c8:	f0 e0       	ldi	r31, 0x00	; 0
    15ca:	ec 56       	subi	r30, 0x6C	; 108
    15cc:	fe 4f       	sbci	r31, 0xFE	; 254
    15ce:	c0 83       	st	Z, r28
	bytes_in_out_buffer++;
    15d0:	80 91 93 01 	lds	r24, 0x0193
    15d4:	8f 5f       	subi	r24, 0xFF	; 255
    15d6:	80 93 93 01 	sts	0x0193, r24
	if(out_insert_pos == OUTPUT_BUFFER_SIZE) {
    15da:	80 91 92 01 	lds	r24, 0x0192
    15de:	8f 3f       	cpi	r24, 0xFF	; 255
    15e0:	11 f4       	brne	.+4      	; 0x15e6 <uart_put_char+0x4c>
		/* Wrap around buffer pointer if necessary */
		out_insert_pos = 0;
    15e2:	10 92 92 01 	sts	0x0192, r1
	}
	/* Reenable interrupts (UDR Empty interrupt may have been
	 * disabled) */
	UCSR0B |= (1 << UDRIE0);
    15e6:	e1 ec       	ldi	r30, 0xC1	; 193
    15e8:	f0 e0       	ldi	r31, 0x00	; 0
    15ea:	80 81       	ld	r24, Z
    15ec:	80 62       	ori	r24, 0x20	; 32
    15ee:	80 83       	st	Z, r24
	if(interrupts_enabled) {
    15f0:	22 23       	and	r18, r18
    15f2:	39 f0       	breq	.+14     	; 0x1602 <uart_put_char+0x68>
		sei();
    15f4:	78 94       	sei
	}
	return 0;
    15f6:	80 e0       	ldi	r24, 0x00	; 0
    15f8:	90 e0       	ldi	r25, 0x00	; 0
    15fa:	05 c0       	rjmp	.+10     	; 0x1606 <uart_put_char+0x6c>
	 * ISR which extracts bytes from the buffer.
	*/
	interrupts_enabled = bit_is_set(SREG, SREG_I);
	while(bytes_in_out_buffer >= OUTPUT_BUFFER_SIZE) {
		if(!interrupts_enabled) {
			return 1;
    15fc:	81 e0       	ldi	r24, 0x01	; 1
    15fe:	90 e0       	ldi	r25, 0x00	; 0
    1600:	02 c0       	rjmp	.+4      	; 0x1606 <uart_put_char+0x6c>
	 * disabled) */
	UCSR0B |= (1 << UDRIE0);
	if(interrupts_enabled) {
		sei();
	}
	return 0;
    1602:	80 e0       	ldi	r24, 0x00	; 0
    1604:	90 e0       	ldi	r25, 0x00	; 0
}
    1606:	cf 91       	pop	r28
    1608:	08 95       	ret

0000160a <uart_get_char>:

int uart_get_char(FILE* stream) {
	/* Wait until we've received a character */
	while(bytes_in_input_buffer == 0) {
    160a:	80 91 a5 02 	lds	r24, 0x02A5
    160e:	88 23       	and	r24, r24
    1610:	e1 f3       	breq	.-8      	; 0x160a <uart_get_char>
	 * buffer. We reenable interrupts if they were on.
	 * The pending character is the one which is byte_in_input_buffer
	 * characters before the insert position (taking into account
	 * that we may need to wrap around).
	 */
	uint8_t interrupts_enabled = bit_is_set(SREG, SREG_I);
    1612:	2f b7       	in	r18, 0x3f	; 63
    1614:	20 78       	andi	r18, 0x80	; 128
	cli();
    1616:	f8 94       	cli
	char c;
	if(input_insert_pos - bytes_in_input_buffer < 0) {
    1618:	80 91 93 02 	lds	r24, 0x0293
    161c:	30 91 a5 02 	lds	r19, 0x02A5
    1620:	90 e0       	ldi	r25, 0x00	; 0
    1622:	83 1b       	sub	r24, r19
    1624:	91 09       	sbc	r25, r1
    1626:	5a f4       	brpl	.+22     	; 0x163e <uart_get_char+0x34>
		/* Need to wrap around */
		c = input_buffer[input_insert_pos - bytes_in_input_buffer
    1628:	e0 91 93 02 	lds	r30, 0x0293
    162c:	80 91 a5 02 	lds	r24, 0x02A5
    1630:	f0 e0       	ldi	r31, 0x00	; 0
    1632:	e8 1b       	sub	r30, r24
    1634:	f1 09       	sbc	r31, r1
    1636:	ec 55       	subi	r30, 0x5C	; 92
    1638:	fd 4f       	sbci	r31, 0xFD	; 253
    163a:	80 81       	ld	r24, Z
    163c:	0a c0       	rjmp	.+20     	; 0x1652 <uart_get_char+0x48>
				+ INPUT_BUFFER_SIZE];
	} else {
		c = input_buffer[input_insert_pos - bytes_in_input_buffer];
    163e:	e0 91 93 02 	lds	r30, 0x0293
    1642:	80 91 a5 02 	lds	r24, 0x02A5
    1646:	f0 e0       	ldi	r31, 0x00	; 0
    1648:	e8 1b       	sub	r30, r24
    164a:	f1 09       	sbc	r31, r1
    164c:	ec 56       	subi	r30, 0x6C	; 108
    164e:	fd 4f       	sbci	r31, 0xFD	; 253
    1650:	80 81       	ld	r24, Z
	}
	
	/* Decrement our count of bytes in the input buffer */
	bytes_in_input_buffer--;
    1652:	90 91 a5 02 	lds	r25, 0x02A5
    1656:	91 50       	subi	r25, 0x01	; 1
    1658:	90 93 a5 02 	sts	0x02A5, r25
	if(interrupts_enabled) {
    165c:	22 23       	and	r18, r18
    165e:	09 f0       	breq	.+2      	; 0x1662 <uart_get_char+0x58>
		sei();
    1660:	78 94       	sei
	}	
	return c;
}
    1662:	90 e0       	ldi	r25, 0x00	; 0
    1664:	08 95       	ret

00001666 <init_serial_stdio>:
void init_serial_stdio(long baudrate, int8_t echo) {
	uint16_t ubrr;
	/*
	 * Initialise our buffers
	*/
	out_insert_pos = 0;
    1666:	10 92 92 01 	sts	0x0192, r1
	bytes_in_out_buffer = 0;
    166a:	10 92 93 01 	sts	0x0193, r1
	input_insert_pos = 0;
    166e:	10 92 93 02 	sts	0x0293, r1
	bytes_in_input_buffer = 0;
    1672:	10 92 a5 02 	sts	0x02A5, r1
	input_overrun = 0;
    1676:	10 92 a4 02 	sts	0x02A4, r1
	
	/*
	 * Record whether we're going to echo characters or not
	*/
	do_echo = echo;
    167a:	40 93 49 01 	sts	0x0149, r20
	/* Configure the serial port baud rate */
	/* (This differs from the datasheet formula so that we get 
	 * rounding to the nearest integer while using integer division
	 * (which truncates)).
	*/
	ubrr = ((SYSCLK / (8 * baudrate)) + 1)/2 - 1;
    167e:	dc 01       	movw	r26, r24
    1680:	cb 01       	movw	r24, r22
    1682:	88 0f       	add	r24, r24
    1684:	99 1f       	adc	r25, r25
    1686:	aa 1f       	adc	r26, r26
    1688:	bb 1f       	adc	r27, r27
    168a:	88 0f       	add	r24, r24
    168c:	99 1f       	adc	r25, r25
    168e:	aa 1f       	adc	r26, r26
    1690:	bb 1f       	adc	r27, r27
    1692:	9c 01       	movw	r18, r24
    1694:	ad 01       	movw	r20, r26
    1696:	22 0f       	add	r18, r18
    1698:	33 1f       	adc	r19, r19
    169a:	44 1f       	adc	r20, r20
    169c:	55 1f       	adc	r21, r21
    169e:	60 e0       	ldi	r22, 0x00	; 0
    16a0:	72 e1       	ldi	r23, 0x12	; 18
    16a2:	8a e7       	ldi	r24, 0x7A	; 122
    16a4:	90 e0       	ldi	r25, 0x00	; 0
    16a6:	0e 94 83 0e 	call	0x1d06	; 0x1d06 <__divmodsi4>
    16aa:	da 01       	movw	r26, r20
    16ac:	c9 01       	movw	r24, r18
    16ae:	01 96       	adiw	r24, 0x01	; 1
    16b0:	a1 1d       	adc	r26, r1
    16b2:	b1 1d       	adc	r27, r1
    16b4:	ac 01       	movw	r20, r24
    16b6:	bd 01       	movw	r22, r26
    16b8:	22 f4       	brpl	.+8      	; 0x16c2 <init_serial_stdio+0x5c>
    16ba:	4f 5f       	subi	r20, 0xFF	; 255
    16bc:	5f 4f       	sbci	r21, 0xFF	; 255
    16be:	6f 4f       	sbci	r22, 0xFF	; 255
    16c0:	7f 4f       	sbci	r23, 0xFF	; 255
    16c2:	db 01       	movw	r26, r22
    16c4:	ca 01       	movw	r24, r20
    16c6:	b5 95       	asr	r27
    16c8:	a7 95       	ror	r26
    16ca:	97 95       	ror	r25
    16cc:	87 95       	ror	r24
    16ce:	9c 01       	movw	r18, r24
    16d0:	21 50       	subi	r18, 0x01	; 1
    16d2:	31 09       	sbc	r19, r1
	UBRR0 = ubrr;
    16d4:	30 93 c5 00 	sts	0x00C5, r19
    16d8:	20 93 c4 00 	sts	0x00C4, r18
	 * the UDR empty interrupt here (we wait until we've got a
	 * character to transmit).
	 * NOTE: Interrupts must be enabled globally for this
	 * library to work, but we do not do this here.
	*/
	UCSR0B = (1<<RXEN0)|(1<<TXEN0);
    16dc:	e1 ec       	ldi	r30, 0xC1	; 193
    16de:	f0 e0       	ldi	r31, 0x00	; 0
    16e0:	88 e1       	ldi	r24, 0x18	; 24
    16e2:	80 83       	st	Z, r24
	
	/*
	 * Enable receive complete interrupt 
	*/
	UCSR0B  |= (1 <<RXCIE0);
    16e4:	80 81       	ld	r24, Z
    16e6:	80 68       	ori	r24, 0x80	; 128
    16e8:	80 83       	st	Z, r24

	/* Set up our stream so the put and get functions below are used 
	 * to write/read characters via the serial port when we use
	 * stdio functions
	*/
	stdout = &myStream;
    16ea:	88 e0       	ldi	r24, 0x08	; 8
    16ec:	91 e0       	ldi	r25, 0x01	; 1
    16ee:	90 93 b8 02 	sts	0x02B8, r25
    16f2:	80 93 b7 02 	sts	0x02B7, r24
	stdin = &myStream;
    16f6:	90 93 b6 02 	sts	0x02B6, r25
    16fa:	80 93 b5 02 	sts	0x02B5, r24
    16fe:	08 95       	ret

00001700 <serial_input_available>:
}

int8_t serial_input_available(void) {
	return (bytes_in_input_buffer != 0);
    1700:	90 91 a5 02 	lds	r25, 0x02A5
    1704:	81 e0       	ldi	r24, 0x01	; 1
    1706:	91 11       	cpse	r25, r1
    1708:	01 c0       	rjmp	.+2      	; 0x170c <serial_input_available+0xc>
    170a:	80 e0       	ldi	r24, 0x00	; 0
}
    170c:	08 95       	ret

0000170e <clear_serial_input_buffer>:

void clear_serial_input_buffer(void) {
	/* Just adjust our buffer data so it looks empty */
	input_insert_pos = 0;
    170e:	10 92 93 02 	sts	0x0293, r1
	bytes_in_input_buffer = 0;
    1712:	10 92 a5 02 	sts	0x02A5, r1
    1716:	08 95       	ret

00001718 <__vector_21>:
/*
 * Define the interrupt handler for UART Data Register Empty (i.e. 
 * another character can be taken from our buffer and written out)
 */
ISR(USART0_UDRE_vect) 
{
    1718:	1f 92       	push	r1
    171a:	0f 92       	push	r0
    171c:	0f b6       	in	r0, 0x3f	; 63
    171e:	0f 92       	push	r0
    1720:	11 24       	eor	r1, r1
    1722:	2f 93       	push	r18
    1724:	8f 93       	push	r24
    1726:	9f 93       	push	r25
    1728:	ef 93       	push	r30
    172a:	ff 93       	push	r31
	/* Check if we have data in our buffer */
	if(bytes_in_out_buffer > 0) {
    172c:	80 91 93 01 	lds	r24, 0x0193
    1730:	88 23       	and	r24, r24
    1732:	29 f1       	breq	.+74     	; 0x177e <__vector_21+0x66>
		 * one which is "bytes_in_buffer" characters before the 
		 * insert_pos (taking into account that we may 
		 * need to wrap around to the end of the buffer).
		 */
		char c;
		if(out_insert_pos - bytes_in_out_buffer < 0) {
    1734:	80 91 92 01 	lds	r24, 0x0192
    1738:	20 91 93 01 	lds	r18, 0x0193
    173c:	90 e0       	ldi	r25, 0x00	; 0
    173e:	82 1b       	sub	r24, r18
    1740:	91 09       	sbc	r25, r1
    1742:	5a f4       	brpl	.+22     	; 0x175a <__vector_21+0x42>
			/* Need to wrap around */
			c = out_buffer[out_insert_pos - bytes_in_out_buffer
    1744:	e0 91 92 01 	lds	r30, 0x0192
    1748:	80 91 93 01 	lds	r24, 0x0193
    174c:	f0 e0       	ldi	r31, 0x00	; 0
    174e:	e8 1b       	sub	r30, r24
    1750:	f1 09       	sbc	r31, r1
    1752:	ed 56       	subi	r30, 0x6D	; 109
    1754:	fd 4f       	sbci	r31, 0xFD	; 253
    1756:	80 81       	ld	r24, Z
    1758:	0a c0       	rjmp	.+20     	; 0x176e <__vector_21+0x56>
				+ OUTPUT_BUFFER_SIZE];
		} else {
			c = out_buffer[out_insert_pos - bytes_in_out_buffer];
    175a:	e0 91 92 01 	lds	r30, 0x0192
    175e:	80 91 93 01 	lds	r24, 0x0193
    1762:	f0 e0       	ldi	r31, 0x00	; 0
    1764:	e8 1b       	sub	r30, r24
    1766:	f1 09       	sbc	r31, r1
    1768:	ec 56       	subi	r30, 0x6C	; 108
    176a:	fe 4f       	sbci	r31, 0xFE	; 254
    176c:	80 81       	ld	r24, Z
		}
		/* Decrement our count of the number of bytes in the 
		 * buffer 
		 */
		bytes_in_out_buffer--;
    176e:	90 91 93 01 	lds	r25, 0x0193
    1772:	91 50       	subi	r25, 0x01	; 1
    1774:	90 93 93 01 	sts	0x0193, r25
		
		/* Output the character via the UART */
		UDR0 = c;
    1778:	80 93 c6 00 	sts	0x00C6, r24
    177c:	05 c0       	rjmp	.+10     	; 0x1788 <__vector_21+0x70>
		 * Register Empty interrupt because otherwise it 
		 * will trigger again immediately this ISR exits. 
		 * The interrupt is reenabled when a character is
		 * placed in the buffer.
		 */
		UCSR0B &= ~(1<<UDRIE0);
    177e:	e1 ec       	ldi	r30, 0xC1	; 193
    1780:	f0 e0       	ldi	r31, 0x00	; 0
    1782:	80 81       	ld	r24, Z
    1784:	8f 7d       	andi	r24, 0xDF	; 223
    1786:	80 83       	st	Z, r24
	}
}
    1788:	ff 91       	pop	r31
    178a:	ef 91       	pop	r30
    178c:	9f 91       	pop	r25
    178e:	8f 91       	pop	r24
    1790:	2f 91       	pop	r18
    1792:	0f 90       	pop	r0
    1794:	0f be       	out	0x3f, r0	; 63
    1796:	0f 90       	pop	r0
    1798:	1f 90       	pop	r1
    179a:	18 95       	reti

0000179c <__vector_20>:
 * we can read a character. The character is read and placed in
 * the input buffer.
 */

ISR(USART0_RX_vect) 
{
    179c:	1f 92       	push	r1
    179e:	0f 92       	push	r0
    17a0:	0f b6       	in	r0, 0x3f	; 63
    17a2:	0f 92       	push	r0
    17a4:	11 24       	eor	r1, r1
    17a6:	2f 93       	push	r18
    17a8:	3f 93       	push	r19
    17aa:	4f 93       	push	r20
    17ac:	5f 93       	push	r21
    17ae:	6f 93       	push	r22
    17b0:	7f 93       	push	r23
    17b2:	8f 93       	push	r24
    17b4:	9f 93       	push	r25
    17b6:	af 93       	push	r26
    17b8:	bf 93       	push	r27
    17ba:	cf 93       	push	r28
    17bc:	ef 93       	push	r30
    17be:	ff 93       	push	r31
	/* Read the character - we ignore the possibility of overrun. */
	char c;
	c = UDR0;
    17c0:	c0 91 c6 00 	lds	r28, 0x00C6
		
	if(do_echo && bytes_in_out_buffer < OUTPUT_BUFFER_SIZE) {
    17c4:	80 91 49 01 	lds	r24, 0x0149
    17c8:	88 23       	and	r24, r24
    17ca:	49 f0       	breq	.+18     	; 0x17de <__vector_20+0x42>
    17cc:	80 91 93 01 	lds	r24, 0x0193
    17d0:	8f 3f       	cpi	r24, 0xFF	; 255
    17d2:	29 f0       	breq	.+10     	; 0x17de <__vector_20+0x42>
		/* If echoing is enabled and there is output buffer
		 * space, echo the received character back to the UART.
		 * (If there is no output buffer space, characters
		 * will be lost.)
		 */
		uart_put_char(c, 0);
    17d4:	60 e0       	ldi	r22, 0x00	; 0
    17d6:	70 e0       	ldi	r23, 0x00	; 0
    17d8:	8c 2f       	mov	r24, r28
    17da:	0e 94 cd 0a 	call	0x159a	; 0x159a <uart_put_char>
	 * Check if we have space in our buffer. If not, set the overrun
	 * flag and throw away the character. (We never clear the 
	 * overrun flag - it's up to the programmer to check/clear
	 * this flag if desired.)
	 */
	if(bytes_in_input_buffer >= INPUT_BUFFER_SIZE) {
    17de:	80 91 a5 02 	lds	r24, 0x02A5
    17e2:	80 31       	cpi	r24, 0x10	; 16
    17e4:	20 f0       	brcs	.+8      	; 0x17ee <__vector_20+0x52>
		input_overrun = 1;
    17e6:	81 e0       	ldi	r24, 0x01	; 1
    17e8:	80 93 a4 02 	sts	0x02A4, r24
    17ec:	18 c0       	rjmp	.+48     	; 0x181e <__vector_20+0x82>
	} else {
		/* If the character is a carriage return, turn it into a
		 * linefeed 
		*/
		if (c == '\r') {
    17ee:	cd 30       	cpi	r28, 0x0D	; 13
    17f0:	09 f4       	brne	.+2      	; 0x17f4 <__vector_20+0x58>
			c = '\n';
    17f2:	ca e0       	ldi	r28, 0x0A	; 10
		}
		
		/* 
		 * There is room in the input buffer 
		 */
		input_buffer[input_insert_pos++] = c;
    17f4:	e0 91 93 02 	lds	r30, 0x0293
    17f8:	81 e0       	ldi	r24, 0x01	; 1
    17fa:	8e 0f       	add	r24, r30
    17fc:	80 93 93 02 	sts	0x0293, r24
    1800:	f0 e0       	ldi	r31, 0x00	; 0
    1802:	ec 56       	subi	r30, 0x6C	; 108
    1804:	fd 4f       	sbci	r31, 0xFD	; 253
    1806:	c0 83       	st	Z, r28
		bytes_in_input_buffer++;
    1808:	80 91 a5 02 	lds	r24, 0x02A5
    180c:	8f 5f       	subi	r24, 0xFF	; 255
    180e:	80 93 a5 02 	sts	0x02A5, r24
		if(input_insert_pos == INPUT_BUFFER_SIZE) {
    1812:	80 91 93 02 	lds	r24, 0x0293
    1816:	80 31       	cpi	r24, 0x10	; 16
    1818:	11 f4       	brne	.+4      	; 0x181e <__vector_20+0x82>
			/* Wrap around buffer pointer if necessary */
			input_insert_pos = 0;
    181a:	10 92 93 02 	sts	0x0293, r1
		}
	}
}
    181e:	ff 91       	pop	r31
    1820:	ef 91       	pop	r30
    1822:	cf 91       	pop	r28
    1824:	bf 91       	pop	r27
    1826:	af 91       	pop	r26
    1828:	9f 91       	pop	r25
    182a:	8f 91       	pop	r24
    182c:	7f 91       	pop	r23
    182e:	6f 91       	pop	r22
    1830:	5f 91       	pop	r21
    1832:	4f 91       	pop	r20
    1834:	3f 91       	pop	r19
    1836:	2f 91       	pop	r18
    1838:	0f 90       	pop	r0
    183a:	0f be       	out	0x3f, r0	; 63
    183c:	0f 90       	pop	r0
    183e:	1f 90       	pop	r1
    1840:	18 95       	reti

00001842 <spi_setup_master>:
void spi_setup_master(uint8_t clockdivider) {
	// Set up SPI communication as a master
	// Make the SS, MOSI and SCK pins outputs. These are pins
	// 4, 5 and 7 of port B on the ATmega324A
	
	DDRB |= (1<<4)|(1<<5)|(1<<7);
    1842:	94 b1       	in	r25, 0x04	; 4
    1844:	90 6b       	ori	r25, 0xB0	; 176
    1846:	94 b9       	out	0x04, r25	; 4
	
	// Set the slave select (SS) line high
	PORTB |= (1<<4);
    1848:	2c 9a       	sbi	0x05, 4	; 5
	// from datasheet names for these registers/bits.)
	
	// Set up the SPI control registers SPCR and SPSR:
	// - SPE bit = 1 (SPI is enabled)
	// - MSTR bit = 1 (Master Mode)
	SPCR0 = (1<<SPE0)|(1<<MSTR0);
    184a:	90 e5       	ldi	r25, 0x50	; 80
    184c:	9c bd       	out	0x2c, r25	; 44
	
	// Set SPR0 and SPR1 bits in SPCR and SPI2X bit in SPSR
	// based on the given clock divider
	// Invalid values default to the slowest speed
	// We consider each bit in turn
	switch(clockdivider) {
    184e:	88 30       	cpi	r24, 0x08	; 8
    1850:	21 f0       	breq	.+8      	; 0x185a <spi_setup_master+0x18>
    1852:	80 32       	cpi	r24, 0x20	; 32
    1854:	11 f0       	breq	.+4      	; 0x185a <spi_setup_master+0x18>
    1856:	82 30       	cpi	r24, 0x02	; 2
    1858:	19 f4       	brne	.+6      	; 0x1860 <spi_setup_master+0x1e>
		case 2:
		case 8:
		case 32:
			SPSR0 = (1<<SPI2X0);
    185a:	91 e0       	ldi	r25, 0x01	; 1
    185c:	9d bd       	out	0x2d, r25	; 45
			break;
    185e:	01 c0       	rjmp	.+2      	; 0x1862 <spi_setup_master+0x20>
		default:
			SPSR0 = 0;
    1860:	1d bc       	out	0x2d, r1	; 45
			break;
	}
	switch(clockdivider) {
    1862:	80 32       	cpi	r24, 0x20	; 32
    1864:	69 f0       	breq	.+26     	; 0x1880 <spi_setup_master+0x3e>
    1866:	28 f4       	brcc	.+10     	; 0x1872 <spi_setup_master+0x30>
    1868:	88 30       	cpi	r24, 0x08	; 8
    186a:	71 f0       	breq	.+28     	; 0x1888 <spi_setup_master+0x46>
    186c:	80 31       	cpi	r24, 0x10	; 16
    186e:	61 f0       	breq	.+24     	; 0x1888 <spi_setup_master+0x46>
    1870:	0e c0       	rjmp	.+28     	; 0x188e <spi_setup_master+0x4c>
    1872:	80 34       	cpi	r24, 0x40	; 64
    1874:	29 f0       	breq	.+10     	; 0x1880 <spi_setup_master+0x3e>
    1876:	80 38       	cpi	r24, 0x80	; 128
    1878:	51 f4       	brne	.+20     	; 0x188e <spi_setup_master+0x4c>
		case 128:
			SPCR0 |= (1<<SPR00);
    187a:	8c b5       	in	r24, 0x2c	; 44
    187c:	81 60       	ori	r24, 0x01	; 1
    187e:	8c bd       	out	0x2c, r24	; 44
			// Note this flows through to the next code block
		case 32:
		case 64:
			SPCR0 |= (1<<SPR10);
    1880:	8c b5       	in	r24, 0x2c	; 44
    1882:	82 60       	ori	r24, 0x02	; 2
    1884:	8c bd       	out	0x2c, r24	; 44
			break;
    1886:	03 c0       	rjmp	.+6      	; 0x188e <spi_setup_master+0x4c>
		case 8:
		case 16:
			SPCR0 |= (1<<SPR00);
    1888:	8c b5       	in	r24, 0x2c	; 44
    188a:	81 60       	ori	r24, 0x01	; 1
    188c:	8c bd       	out	0x2c, r24	; 44
			break;
	}
	
	// Take SS (slave select) line low
	PORTB &= ~(1<<4);
    188e:	2c 98       	cbi	0x05, 4	; 5
    1890:	08 95       	ret

00001892 <spi_send_byte>:
	// the transfer. We then wait until the most significant byte of
	// SPSR (SPIF bit) is set - this indicates that the transfer is
	// complete. (The final read of SPSR followed by a read of SPDR
	// will cause the SPIF bit to be reset to 0. See page 173 of the 
	// ATmega324A datasheet.)
	SPDR0 = byte;
    1892:	8e bd       	out	0x2e, r24	; 46
	while((SPSR0 & (1<<SPIF0)) == 0) {
    1894:	0d b4       	in	r0, 0x2d	; 45
    1896:	07 fe       	sbrs	r0, 7
    1898:	fd cf       	rjmp	.-6      	; 0x1894 <spi_send_byte+0x2>
		; // wait
	}
	return SPDR0;
    189a:	8e b5       	in	r24, 0x2e	; 46
    189c:	08 95       	ret

0000189e <init_stats>:
uint8_t lives, level, last_draw_time;
uint16_t score, speed;
uint32_t start_time, paused_time;

void init_stats(void) {
	score = 0;
    189e:	10 92 a7 02 	sts	0x02A7, r1
    18a2:	10 92 a6 02 	sts	0x02A6, r1
	lives = 4;
    18a6:	84 e0       	ldi	r24, 0x04	; 4
    18a8:	80 93 ad 02 	sts	0x02AD, r24
	level = 1;
    18ac:	81 e0       	ldi	r24, 0x01	; 1
    18ae:	80 93 ac 02 	sts	0x02AC, r24
	speed = 0;
    18b2:	10 92 af 02 	sts	0x02AF, r1
    18b6:	10 92 ae 02 	sts	0x02AE, r1
	start_time = 0;
    18ba:	10 92 a8 02 	sts	0x02A8, r1
    18be:	10 92 a9 02 	sts	0x02A9, r1
    18c2:	10 92 aa 02 	sts	0x02AA, r1
    18c6:	10 92 ab 02 	sts	0x02AB, r1
	last_draw_time = 0;
    18ca:	10 92 b4 02 	sts	0x02B4, r1
	paused_time = 0;
    18ce:	10 92 b0 02 	sts	0x02B0, r1
    18d2:	10 92 b1 02 	sts	0x02B1, r1
    18d6:	10 92 b2 02 	sts	0x02B2, r1
    18da:	10 92 b3 02 	sts	0x02B3, r1
    18de:	08 95       	ret

000018e0 <draw_stats>:
}

void draw_stats(void) {
	// Serial
	move_cursor(10,4);
    18e0:	64 e0       	ldi	r22, 0x04	; 4
    18e2:	70 e0       	ldi	r23, 0x00	; 0
    18e4:	8a e0       	ldi	r24, 0x0A	; 10
    18e6:	90 e0       	ldi	r25, 0x00	; 0
    18e8:	0e 94 fc 0d 	call	0x1bf8	; 0x1bf8 <move_cursor>
	printf_P(PSTR("Score: %d"), score);
    18ec:	80 91 a7 02 	lds	r24, 0x02A7
    18f0:	8f 93       	push	r24
    18f2:	80 91 a6 02 	lds	r24, 0x02A6
    18f6:	8f 93       	push	r24
    18f8:	89 e3       	ldi	r24, 0x39	; 57
    18fa:	92 e0       	ldi	r25, 0x02	; 2
    18fc:	9f 93       	push	r25
    18fe:	8f 93       	push	r24
    1900:	0e 94 44 0f 	call	0x1e88	; 0x1e88 <printf_P>
	move_cursor(10,5);
    1904:	65 e0       	ldi	r22, 0x05	; 5
    1906:	70 e0       	ldi	r23, 0x00	; 0
    1908:	8a e0       	ldi	r24, 0x0A	; 10
    190a:	90 e0       	ldi	r25, 0x00	; 0
    190c:	0e 94 fc 0d 	call	0x1bf8	; 0x1bf8 <move_cursor>
	printf_P(PSTR("Lives: %d"), lives);
    1910:	80 91 ad 02 	lds	r24, 0x02AD
    1914:	1f 92       	push	r1
    1916:	8f 93       	push	r24
    1918:	8f e2       	ldi	r24, 0x2F	; 47
    191a:	92 e0       	ldi	r25, 0x02	; 2
    191c:	9f 93       	push	r25
    191e:	8f 93       	push	r24
    1920:	0e 94 44 0f 	call	0x1e88	; 0x1e88 <printf_P>
	move_cursor(20,4);
    1924:	64 e0       	ldi	r22, 0x04	; 4
    1926:	70 e0       	ldi	r23, 0x00	; 0
    1928:	84 e1       	ldi	r24, 0x14	; 20
    192a:	90 e0       	ldi	r25, 0x00	; 0
    192c:	0e 94 fc 0d 	call	0x1bf8	; 0x1bf8 <move_cursor>
	printf_P(PSTR("Level: %d"), level);
    1930:	80 91 ac 02 	lds	r24, 0x02AC
    1934:	1f 92       	push	r1
    1936:	8f 93       	push	r24
    1938:	85 e2       	ldi	r24, 0x25	; 37
    193a:	92 e0       	ldi	r25, 0x02	; 2
    193c:	9f 93       	push	r25
    193e:	8f 93       	push	r24
    1940:	0e 94 44 0f 	call	0x1e88	; 0x1e88 <printf_P>
	move_cursor(20,5);
    1944:	65 e0       	ldi	r22, 0x05	; 5
    1946:	70 e0       	ldi	r23, 0x00	; 0
    1948:	84 e1       	ldi	r24, 0x14	; 20
    194a:	90 e0       	ldi	r25, 0x00	; 0
    194c:	0e 94 fc 0d 	call	0x1bf8	; 0x1bf8 <move_cursor>
	printf_P(PSTR("Speed: %d"), speed);
    1950:	80 91 af 02 	lds	r24, 0x02AF
    1954:	8f 93       	push	r24
    1956:	80 91 ae 02 	lds	r24, 0x02AE
    195a:	8f 93       	push	r24
    195c:	8b e1       	ldi	r24, 0x1B	; 27
    195e:	92 e0       	ldi	r25, 0x02	; 2
    1960:	9f 93       	push	r25
    1962:	8f 93       	push	r24
    1964:	0e 94 44 0f 	call	0x1e88	; 0x1e88 <printf_P>

	// Lives LED
	PINC &= 0xF0;
    1968:	86 b1       	in	r24, 0x06	; 6
    196a:	80 7f       	andi	r24, 0xF0	; 240
    196c:	86 b9       	out	0x06, r24	; 6
	PINC |= lives;
    196e:	96 b1       	in	r25, 0x06	; 6
    1970:	80 91 ad 02 	lds	r24, 0x02AD
    1974:	89 2b       	or	r24, r25
    1976:	86 b9       	out	0x06, r24	; 6
    1978:	8d b7       	in	r24, 0x3d	; 61
    197a:	9e b7       	in	r25, 0x3e	; 62
    197c:	40 96       	adiw	r24, 0x10	; 16
    197e:	0f b6       	in	r0, 0x3f	; 63
    1980:	f8 94       	cli
    1982:	9e bf       	out	0x3e, r25	; 62
    1984:	0f be       	out	0x3f, r0	; 63
    1986:	8d bf       	out	0x3d, r24	; 61
    1988:	08 95       	ret

0000198a <add_to_score>:
}

// Score
void add_to_score(uint16_t value) {
	score += value;
    198a:	20 91 a6 02 	lds	r18, 0x02A6
    198e:	30 91 a7 02 	lds	r19, 0x02A7
    1992:	82 0f       	add	r24, r18
    1994:	93 1f       	adc	r25, r19
    1996:	90 93 a7 02 	sts	0x02A7, r25
    199a:	80 93 a6 02 	sts	0x02A6, r24
    199e:	08 95       	ret

000019a0 <get_score>:
}

uint16_t get_score(void) {
	return score;
}
    19a0:	80 91 a6 02 	lds	r24, 0x02A6
    19a4:	90 91 a7 02 	lds	r25, 0x02A7
    19a8:	08 95       	ret

000019aa <lose_life>:

// Lives
void lose_life(void) {
	lives--;
    19aa:	80 91 ad 02 	lds	r24, 0x02AD
    19ae:	81 50       	subi	r24, 0x01	; 1
    19b0:	80 93 ad 02 	sts	0x02AD, r24
    19b4:	08 95       	ret

000019b6 <restore_life>:
}

void restore_life(void) {
	if(lives < 4) {
    19b6:	80 91 ad 02 	lds	r24, 0x02AD
    19ba:	84 30       	cpi	r24, 0x04	; 4
    19bc:	18 f4       	brcc	.+6      	; 0x19c4 <restore_life+0xe>
		lives++;
    19be:	8f 5f       	subi	r24, 0xFF	; 255
    19c0:	80 93 ad 02 	sts	0x02AD, r24
    19c4:	08 95       	ret

000019c6 <get_lives>:
	}
}

uint8_t get_lives(void) {
	return lives;
}
    19c6:	80 91 ad 02 	lds	r24, 0x02AD
    19ca:	08 95       	ret

000019cc <next_level>:

// Level
void next_level(void) {
	level++;
    19cc:	80 91 ac 02 	lds	r24, 0x02AC
    19d0:	8f 5f       	subi	r24, 0xFF	; 255
    19d2:	80 93 ac 02 	sts	0x02AC, r24
    19d6:	08 95       	ret

000019d8 <get_level>:
}

uint8_t get_level(void) {
	return level;
}
    19d8:	80 91 ac 02 	lds	r24, 0x02AC
    19dc:	08 95       	ret

000019de <add_to_speed>:

// Speed
void add_to_speed(uint16_t value) {
	speed += value;
    19de:	20 91 ae 02 	lds	r18, 0x02AE
    19e2:	30 91 af 02 	lds	r19, 0x02AF
    19e6:	82 0f       	add	r24, r18
    19e8:	93 1f       	adc	r25, r19
    19ea:	90 93 af 02 	sts	0x02AF, r25
    19ee:	80 93 ae 02 	sts	0x02AE, r24
    19f2:	08 95       	ret

000019f4 <get_speed>:
}

uint16_t get_speed(void) {
	return speed;
}
    19f4:	80 91 ae 02 	lds	r24, 0x02AE
    19f8:	90 91 af 02 	lds	r25, 0x02AF
    19fc:	08 95       	ret

000019fe <draw_time>:
	start_time = get_clock_ticks();
	last_draw_time = PERIOD/1000 + 1;
	draw_time();
}

void draw_time(void) {
    19fe:	cf 92       	push	r12
    1a00:	df 92       	push	r13
    1a02:	ef 92       	push	r14
    1a04:	ff 92       	push	r15
	if(!paused_time) {
    1a06:	80 91 b0 02 	lds	r24, 0x02B0
    1a0a:	90 91 b1 02 	lds	r25, 0x02B1
    1a0e:	a0 91 b2 02 	lds	r26, 0x02B2
    1a12:	b0 91 b3 02 	lds	r27, 0x02B3
    1a16:	89 2b       	or	r24, r25
    1a18:	8a 2b       	or	r24, r26
    1a1a:	8b 2b       	or	r24, r27
    1a1c:	09 f0       	breq	.+2      	; 0x1a20 <draw_time+0x22>
    1a1e:	5c c0       	rjmp	.+184    	; 0x1ad8 <draw_time+0xda>
		if((PERIOD - get_clock_ticks() + start_time)/1000 != last_draw_time) {
    1a20:	c0 90 a8 02 	lds	r12, 0x02A8
    1a24:	d0 90 a9 02 	lds	r13, 0x02A9
    1a28:	e0 90 aa 02 	lds	r14, 0x02AA
    1a2c:	f0 90 ab 02 	lds	r15, 0x02AB
    1a30:	0e 94 2e 0e 	call	0x1c5c	; 0x1c5c <get_clock_ticks>
    1a34:	20 ee       	ldi	r18, 0xE0	; 224
    1a36:	c2 0e       	add	r12, r18
    1a38:	2e e2       	ldi	r18, 0x2E	; 46
    1a3a:	d2 1e       	adc	r13, r18
    1a3c:	e1 1c       	adc	r14, r1
    1a3e:	f1 1c       	adc	r15, r1
    1a40:	a7 01       	movw	r20, r14
    1a42:	96 01       	movw	r18, r12
    1a44:	26 1b       	sub	r18, r22
    1a46:	37 0b       	sbc	r19, r23
    1a48:	48 0b       	sbc	r20, r24
    1a4a:	59 0b       	sbc	r21, r25
    1a4c:	ca 01       	movw	r24, r20
    1a4e:	b9 01       	movw	r22, r18
    1a50:	28 ee       	ldi	r18, 0xE8	; 232
    1a52:	33 e0       	ldi	r19, 0x03	; 3
    1a54:	40 e0       	ldi	r20, 0x00	; 0
    1a56:	50 e0       	ldi	r21, 0x00	; 0
    1a58:	0e 94 61 0e 	call	0x1cc2	; 0x1cc2 <__udivmodsi4>
    1a5c:	80 91 b4 02 	lds	r24, 0x02B4
    1a60:	90 e0       	ldi	r25, 0x00	; 0
    1a62:	a0 e0       	ldi	r26, 0x00	; 0
    1a64:	b0 e0       	ldi	r27, 0x00	; 0
    1a66:	28 17       	cp	r18, r24
    1a68:	39 07       	cpc	r19, r25
    1a6a:	4a 07       	cpc	r20, r26
    1a6c:	5b 07       	cpc	r21, r27
    1a6e:	a1 f1       	breq	.+104    	; 0x1ad8 <draw_time+0xda>
			last_draw_time = (PERIOD - get_clock_ticks() + start_time)/1000;
    1a70:	c0 90 a8 02 	lds	r12, 0x02A8
    1a74:	d0 90 a9 02 	lds	r13, 0x02A9
    1a78:	e0 90 aa 02 	lds	r14, 0x02AA
    1a7c:	f0 90 ab 02 	lds	r15, 0x02AB
    1a80:	0e 94 2e 0e 	call	0x1c5c	; 0x1c5c <get_clock_ticks>
    1a84:	30 ee       	ldi	r19, 0xE0	; 224
    1a86:	c3 0e       	add	r12, r19
    1a88:	3e e2       	ldi	r19, 0x2E	; 46
    1a8a:	d3 1e       	adc	r13, r19
    1a8c:	e1 1c       	adc	r14, r1
    1a8e:	f1 1c       	adc	r15, r1
    1a90:	a7 01       	movw	r20, r14
    1a92:	96 01       	movw	r18, r12
    1a94:	26 1b       	sub	r18, r22
    1a96:	37 0b       	sbc	r19, r23
    1a98:	48 0b       	sbc	r20, r24
    1a9a:	59 0b       	sbc	r21, r25
    1a9c:	ca 01       	movw	r24, r20
    1a9e:	b9 01       	movw	r22, r18
    1aa0:	28 ee       	ldi	r18, 0xE8	; 232
    1aa2:	33 e0       	ldi	r19, 0x03	; 3
    1aa4:	40 e0       	ldi	r20, 0x00	; 0
    1aa6:	50 e0       	ldi	r21, 0x00	; 0
    1aa8:	0e 94 61 0e 	call	0x1cc2	; 0x1cc2 <__udivmodsi4>
    1aac:	20 93 b4 02 	sts	0x02B4, r18
			move_cursor(10,14);
    1ab0:	6e e0       	ldi	r22, 0x0E	; 14
    1ab2:	70 e0       	ldi	r23, 0x00	; 0
    1ab4:	8a e0       	ldi	r24, 0x0A	; 10
    1ab6:	90 e0       	ldi	r25, 0x00	; 0
    1ab8:	0e 94 fc 0d 	call	0x1bf8	; 0x1bf8 <move_cursor>
			printf_P(PSTR("Time: %02d"), last_draw_time);
    1abc:	80 91 b4 02 	lds	r24, 0x02B4
    1ac0:	1f 92       	push	r1
    1ac2:	8f 93       	push	r24
    1ac4:	80 e1       	ldi	r24, 0x10	; 16
    1ac6:	92 e0       	ldi	r25, 0x02	; 2
    1ac8:	9f 93       	push	r25
    1aca:	8f 93       	push	r24
    1acc:	0e 94 44 0f 	call	0x1e88	; 0x1e88 <printf_P>
    1ad0:	0f 90       	pop	r0
    1ad2:	0f 90       	pop	r0
    1ad4:	0f 90       	pop	r0
    1ad6:	0f 90       	pop	r0
		}
	}
}
    1ad8:	ff 90       	pop	r15
    1ada:	ef 90       	pop	r14
    1adc:	df 90       	pop	r13
    1ade:	cf 90       	pop	r12
    1ae0:	08 95       	ret

00001ae2 <reset_time>:
	return speed;
}

// Time
void reset_time(void) {
	start_time = get_clock_ticks();
    1ae2:	0e 94 2e 0e 	call	0x1c5c	; 0x1c5c <get_clock_ticks>
    1ae6:	60 93 a8 02 	sts	0x02A8, r22
    1aea:	70 93 a9 02 	sts	0x02A9, r23
    1aee:	80 93 aa 02 	sts	0x02AA, r24
    1af2:	90 93 ab 02 	sts	0x02AB, r25
	last_draw_time = PERIOD/1000 + 1;
    1af6:	8d e0       	ldi	r24, 0x0D	; 13
    1af8:	80 93 b4 02 	sts	0x02B4, r24
	draw_time();
    1afc:	0e 94 ff 0c 	call	0x19fe	; 0x19fe <draw_time>
    1b00:	08 95       	ret

00001b02 <get_time>:
			printf_P(PSTR("Time: %02d"), last_draw_time);
		}
	}
}

uint8_t get_time(void) {
    1b02:	cf 92       	push	r12
    1b04:	df 92       	push	r13
    1b06:	ef 92       	push	r14
    1b08:	ff 92       	push	r15
	if(get_clock_ticks() - start_time > PERIOD) {
    1b0a:	0e 94 2e 0e 	call	0x1c5c	; 0x1c5c <get_clock_ticks>
    1b0e:	c0 90 a8 02 	lds	r12, 0x02A8
    1b12:	d0 90 a9 02 	lds	r13, 0x02A9
    1b16:	e0 90 aa 02 	lds	r14, 0x02AA
    1b1a:	f0 90 ab 02 	lds	r15, 0x02AB
    1b1e:	dc 01       	movw	r26, r24
    1b20:	cb 01       	movw	r24, r22
    1b22:	8c 19       	sub	r24, r12
    1b24:	9d 09       	sbc	r25, r13
    1b26:	ae 09       	sbc	r26, r14
    1b28:	bf 09       	sbc	r27, r15
    1b2a:	81 3e       	cpi	r24, 0xE1	; 225
    1b2c:	9e 42       	sbci	r25, 0x2E	; 46
    1b2e:	a1 05       	cpc	r26, r1
    1b30:	b1 05       	cpc	r27, r1
    1b32:	c0 f4       	brcc	.+48     	; 0x1b64 <get_time+0x62>
		return 0;
	} else {
		return (PERIOD - get_clock_ticks() + start_time)/1000;
    1b34:	0e 94 2e 0e 	call	0x1c5c	; 0x1c5c <get_clock_ticks>
    1b38:	30 ee       	ldi	r19, 0xE0	; 224
    1b3a:	c3 0e       	add	r12, r19
    1b3c:	3e e2       	ldi	r19, 0x2E	; 46
    1b3e:	d3 1e       	adc	r13, r19
    1b40:	e1 1c       	adc	r14, r1
    1b42:	f1 1c       	adc	r15, r1
    1b44:	a7 01       	movw	r20, r14
    1b46:	96 01       	movw	r18, r12
    1b48:	26 1b       	sub	r18, r22
    1b4a:	37 0b       	sbc	r19, r23
    1b4c:	48 0b       	sbc	r20, r24
    1b4e:	59 0b       	sbc	r21, r25
    1b50:	ca 01       	movw	r24, r20
    1b52:	b9 01       	movw	r22, r18
    1b54:	28 ee       	ldi	r18, 0xE8	; 232
    1b56:	33 e0       	ldi	r19, 0x03	; 3
    1b58:	40 e0       	ldi	r20, 0x00	; 0
    1b5a:	50 e0       	ldi	r21, 0x00	; 0
    1b5c:	0e 94 61 0e 	call	0x1cc2	; 0x1cc2 <__udivmodsi4>
    1b60:	82 2f       	mov	r24, r18
    1b62:	01 c0       	rjmp	.+2      	; 0x1b66 <get_time+0x64>
	}
}

uint8_t get_time(void) {
	if(get_clock_ticks() - start_time > PERIOD) {
		return 0;
    1b64:	80 e0       	ldi	r24, 0x00	; 0
	} else {
		return (PERIOD - get_clock_ticks() + start_time)/1000;
	}
}
    1b66:	ff 90       	pop	r15
    1b68:	ef 90       	pop	r14
    1b6a:	df 90       	pop	r13
    1b6c:	cf 90       	pop	r12
    1b6e:	08 95       	ret

00001b70 <pause_time>:

void pause_time(void) {
	paused_time = get_clock_ticks();
    1b70:	0e 94 2e 0e 	call	0x1c5c	; 0x1c5c <get_clock_ticks>
    1b74:	60 93 b0 02 	sts	0x02B0, r22
    1b78:	70 93 b1 02 	sts	0x02B1, r23
    1b7c:	80 93 b2 02 	sts	0x02B2, r24
    1b80:	90 93 b3 02 	sts	0x02B3, r25
    1b84:	08 95       	ret

00001b86 <unpause_time>:
}

void unpause_time(void) {
    1b86:	cf 92       	push	r12
    1b88:	df 92       	push	r13
    1b8a:	ef 92       	push	r14
    1b8c:	ff 92       	push	r15
    1b8e:	0f 93       	push	r16
    1b90:	1f 93       	push	r17
	start_time += get_clock_ticks() - paused_time;
    1b92:	0e 94 2e 0e 	call	0x1c5c	; 0x1c5c <get_clock_ticks>
    1b96:	00 91 a8 02 	lds	r16, 0x02A8
    1b9a:	10 91 a9 02 	lds	r17, 0x02A9
    1b9e:	20 91 aa 02 	lds	r18, 0x02AA
    1ba2:	30 91 ab 02 	lds	r19, 0x02AB
    1ba6:	c0 90 b0 02 	lds	r12, 0x02B0
    1baa:	d0 90 b1 02 	lds	r13, 0x02B1
    1bae:	e0 90 b2 02 	lds	r14, 0x02B2
    1bb2:	f0 90 b3 02 	lds	r15, 0x02B3
    1bb6:	0c 19       	sub	r16, r12
    1bb8:	1d 09       	sbc	r17, r13
    1bba:	2e 09       	sbc	r18, r14
    1bbc:	3f 09       	sbc	r19, r15
    1bbe:	dc 01       	movw	r26, r24
    1bc0:	cb 01       	movw	r24, r22
    1bc2:	80 0f       	add	r24, r16
    1bc4:	91 1f       	adc	r25, r17
    1bc6:	a2 1f       	adc	r26, r18
    1bc8:	b3 1f       	adc	r27, r19
    1bca:	80 93 a8 02 	sts	0x02A8, r24
    1bce:	90 93 a9 02 	sts	0x02A9, r25
    1bd2:	a0 93 aa 02 	sts	0x02AA, r26
    1bd6:	b0 93 ab 02 	sts	0x02AB, r27
	paused_time = 0;
    1bda:	10 92 b0 02 	sts	0x02B0, r1
    1bde:	10 92 b1 02 	sts	0x02B1, r1
    1be2:	10 92 b2 02 	sts	0x02B2, r1
    1be6:	10 92 b3 02 	sts	0x02B3, r1
    1bea:	1f 91       	pop	r17
    1bec:	0f 91       	pop	r16
    1bee:	ff 90       	pop	r15
    1bf0:	ef 90       	pop	r14
    1bf2:	df 90       	pop	r13
    1bf4:	cf 90       	pop	r12
    1bf6:	08 95       	ret

00001bf8 <move_cursor>:

#include <avr/pgmspace.h>


void move_cursor(int x, int y) {
    printf_P(PSTR("\x1b[%d;%dH"), y, x);
    1bf8:	9f 93       	push	r25
    1bfa:	8f 93       	push	r24
    1bfc:	7f 93       	push	r23
    1bfe:	6f 93       	push	r22
    1c00:	88 e4       	ldi	r24, 0x48	; 72
    1c02:	92 e0       	ldi	r25, 0x02	; 2
    1c04:	9f 93       	push	r25
    1c06:	8f 93       	push	r24
    1c08:	0e 94 44 0f 	call	0x1e88	; 0x1e88 <printf_P>
    1c0c:	0f 90       	pop	r0
    1c0e:	0f 90       	pop	r0
    1c10:	0f 90       	pop	r0
    1c12:	0f 90       	pop	r0
    1c14:	0f 90       	pop	r0
    1c16:	0f 90       	pop	r0
    1c18:	08 95       	ret

00001c1a <clear_terminal>:
void reverse_video(void) {
	printf_P(PSTR("\x1b[7m"));
}

void clear_terminal(void) {
	printf_P(PSTR("\x1b[2J"));
    1c1a:	83 e4       	ldi	r24, 0x43	; 67
    1c1c:	92 e0       	ldi	r25, 0x02	; 2
    1c1e:	9f 93       	push	r25
    1c20:	8f 93       	push	r24
    1c22:	0e 94 44 0f 	call	0x1e88	; 0x1e88 <printf_P>
    1c26:	0f 90       	pop	r0
    1c28:	0f 90       	pop	r0
    1c2a:	08 95       	ret

00001c2c <init_timer0>:
 */
void init_timer0(void) {
	/* Reset clock tick count. L indicates a long (32 bit) 
	 * constant. 
	 */
	clockTicks = 0L;
    1c2c:	10 92 4a 01 	sts	0x014A, r1
    1c30:	10 92 4b 01 	sts	0x014B, r1
    1c34:	10 92 4c 01 	sts	0x014C, r1
    1c38:	10 92 4d 01 	sts	0x014D, r1
	
	/* Clear the timer */
	TCNT0 = 0;
    1c3c:	16 bc       	out	0x26, r1	; 38

	/* Set the output compare value to be 124 */
	OCR0A = 124;
    1c3e:	8c e7       	ldi	r24, 0x7C	; 124
    1c40:	87 bd       	out	0x27, r24	; 39
	
	/* Set the timer to clear on compare match (CTC mode)
	 * and to divide the clock by 64. This starts the timer
	 * running.
	 */
	TCCR0A = (1<<WGM01);
    1c42:	82 e0       	ldi	r24, 0x02	; 2
    1c44:	84 bd       	out	0x24, r24	; 36
	TCCR0B = (1<<CS01)|(1<<CS00);
    1c46:	83 e0       	ldi	r24, 0x03	; 3
    1c48:	85 bd       	out	0x25, r24	; 37

	/* Enable an interrupt on output compare match. 
	 * Note that interrupts have to be enabled globally
	 * before the interrupts will fire.
	 */
	TIMSK0 |= (1<<OCIE0A);
    1c4a:	ee e6       	ldi	r30, 0x6E	; 110
    1c4c:	f0 e0       	ldi	r31, 0x00	; 0
    1c4e:	80 81       	ld	r24, Z
    1c50:	82 60       	ori	r24, 0x02	; 2
    1c52:	80 83       	st	Z, r24
	
	/* Make sure the interrupt flag is cleared by writing a 
	 * 1 to it.
	 */
	TIFR0 &= (1<<OCF0A);
    1c54:	85 b3       	in	r24, 0x15	; 21
    1c56:	82 70       	andi	r24, 0x02	; 2
    1c58:	85 bb       	out	0x15, r24	; 21
    1c5a:	08 95       	ret

00001c5c <get_clock_ticks>:
	/* Disable interrupts so we can be sure that the interrupt
	 * doesn't fire when we've copied just a couple of bytes
	 * of the value. Interrupts are re-enabled if they were
	 * enabled at the start.
	 */
	uint8_t interruptsOn = bit_is_set(SREG, SREG_I);
    1c5c:	2f b7       	in	r18, 0x3f	; 63
	cli();
    1c5e:	f8 94       	cli
	returnValue = clockTicks;
    1c60:	60 91 4a 01 	lds	r22, 0x014A
    1c64:	70 91 4b 01 	lds	r23, 0x014B
    1c68:	80 91 4c 01 	lds	r24, 0x014C
    1c6c:	90 91 4d 01 	lds	r25, 0x014D
	if(interruptsOn) {
    1c70:	22 23       	and	r18, r18
    1c72:	0c f4       	brge	.+2      	; 0x1c76 <get_clock_ticks+0x1a>
		sei();
    1c74:	78 94       	sei
	}
	return returnValue;
}
    1c76:	08 95       	ret

00001c78 <__vector_16>:

ISR(TIMER0_COMPA_vect) {
    1c78:	1f 92       	push	r1
    1c7a:	0f 92       	push	r0
    1c7c:	0f b6       	in	r0, 0x3f	; 63
    1c7e:	0f 92       	push	r0
    1c80:	11 24       	eor	r1, r1
    1c82:	8f 93       	push	r24
    1c84:	9f 93       	push	r25
    1c86:	af 93       	push	r26
    1c88:	bf 93       	push	r27
	/* Increment our clock tick count */
	clockTicks++;
    1c8a:	80 91 4a 01 	lds	r24, 0x014A
    1c8e:	90 91 4b 01 	lds	r25, 0x014B
    1c92:	a0 91 4c 01 	lds	r26, 0x014C
    1c96:	b0 91 4d 01 	lds	r27, 0x014D
    1c9a:	01 96       	adiw	r24, 0x01	; 1
    1c9c:	a1 1d       	adc	r26, r1
    1c9e:	b1 1d       	adc	r27, r1
    1ca0:	80 93 4a 01 	sts	0x014A, r24
    1ca4:	90 93 4b 01 	sts	0x014B, r25
    1ca8:	a0 93 4c 01 	sts	0x014C, r26
    1cac:	b0 93 4d 01 	sts	0x014D, r27
}
    1cb0:	bf 91       	pop	r27
    1cb2:	af 91       	pop	r26
    1cb4:	9f 91       	pop	r25
    1cb6:	8f 91       	pop	r24
    1cb8:	0f 90       	pop	r0
    1cba:	0f be       	out	0x3f, r0	; 63
    1cbc:	0f 90       	pop	r0
    1cbe:	1f 90       	pop	r1
    1cc0:	18 95       	reti

00001cc2 <__udivmodsi4>:
    1cc2:	a1 e2       	ldi	r26, 0x21	; 33
    1cc4:	1a 2e       	mov	r1, r26
    1cc6:	aa 1b       	sub	r26, r26
    1cc8:	bb 1b       	sub	r27, r27
    1cca:	fd 01       	movw	r30, r26
    1ccc:	0d c0       	rjmp	.+26     	; 0x1ce8 <__udivmodsi4_ep>

00001cce <__udivmodsi4_loop>:
    1cce:	aa 1f       	adc	r26, r26
    1cd0:	bb 1f       	adc	r27, r27
    1cd2:	ee 1f       	adc	r30, r30
    1cd4:	ff 1f       	adc	r31, r31
    1cd6:	a2 17       	cp	r26, r18
    1cd8:	b3 07       	cpc	r27, r19
    1cda:	e4 07       	cpc	r30, r20
    1cdc:	f5 07       	cpc	r31, r21
    1cde:	20 f0       	brcs	.+8      	; 0x1ce8 <__udivmodsi4_ep>
    1ce0:	a2 1b       	sub	r26, r18
    1ce2:	b3 0b       	sbc	r27, r19
    1ce4:	e4 0b       	sbc	r30, r20
    1ce6:	f5 0b       	sbc	r31, r21

00001ce8 <__udivmodsi4_ep>:
    1ce8:	66 1f       	adc	r22, r22
    1cea:	77 1f       	adc	r23, r23
    1cec:	88 1f       	adc	r24, r24
    1cee:	99 1f       	adc	r25, r25
    1cf0:	1a 94       	dec	r1
    1cf2:	69 f7       	brne	.-38     	; 0x1cce <__udivmodsi4_loop>
    1cf4:	60 95       	com	r22
    1cf6:	70 95       	com	r23
    1cf8:	80 95       	com	r24
    1cfa:	90 95       	com	r25
    1cfc:	9b 01       	movw	r18, r22
    1cfe:	ac 01       	movw	r20, r24
    1d00:	bd 01       	movw	r22, r26
    1d02:	cf 01       	movw	r24, r30
    1d04:	08 95       	ret

00001d06 <__divmodsi4>:
    1d06:	05 2e       	mov	r0, r21
    1d08:	97 fb       	bst	r25, 7
    1d0a:	1e f4       	brtc	.+6      	; 0x1d12 <__divmodsi4+0xc>
    1d0c:	00 94       	com	r0
    1d0e:	0e 94 9a 0e 	call	0x1d34	; 0x1d34 <__negsi2>
    1d12:	57 fd       	sbrc	r21, 7
    1d14:	07 d0       	rcall	.+14     	; 0x1d24 <__divmodsi4_neg2>
    1d16:	0e 94 61 0e 	call	0x1cc2	; 0x1cc2 <__udivmodsi4>
    1d1a:	07 fc       	sbrc	r0, 7
    1d1c:	03 d0       	rcall	.+6      	; 0x1d24 <__divmodsi4_neg2>
    1d1e:	4e f4       	brtc	.+18     	; 0x1d32 <__divmodsi4_exit>
    1d20:	0c 94 9a 0e 	jmp	0x1d34	; 0x1d34 <__negsi2>

00001d24 <__divmodsi4_neg2>:
    1d24:	50 95       	com	r21
    1d26:	40 95       	com	r20
    1d28:	30 95       	com	r19
    1d2a:	21 95       	neg	r18
    1d2c:	3f 4f       	sbci	r19, 0xFF	; 255
    1d2e:	4f 4f       	sbci	r20, 0xFF	; 255
    1d30:	5f 4f       	sbci	r21, 0xFF	; 255

00001d32 <__divmodsi4_exit>:
    1d32:	08 95       	ret

00001d34 <__negsi2>:
    1d34:	90 95       	com	r25
    1d36:	80 95       	com	r24
    1d38:	70 95       	com	r23
    1d3a:	61 95       	neg	r22
    1d3c:	7f 4f       	sbci	r23, 0xFF	; 255
    1d3e:	8f 4f       	sbci	r24, 0xFF	; 255
    1d40:	9f 4f       	sbci	r25, 0xFF	; 255
    1d42:	08 95       	ret

00001d44 <__tablejump2__>:
    1d44:	ee 0f       	add	r30, r30
    1d46:	ff 1f       	adc	r31, r31

00001d48 <__tablejump__>:
    1d48:	05 90       	lpm	r0, Z+
    1d4a:	f4 91       	lpm	r31, Z
    1d4c:	e0 2d       	mov	r30, r0
    1d4e:	09 94       	ijmp

00001d50 <do_rand>:
    1d50:	8f 92       	push	r8
    1d52:	9f 92       	push	r9
    1d54:	af 92       	push	r10
    1d56:	bf 92       	push	r11
    1d58:	cf 92       	push	r12
    1d5a:	df 92       	push	r13
    1d5c:	ef 92       	push	r14
    1d5e:	ff 92       	push	r15
    1d60:	cf 93       	push	r28
    1d62:	df 93       	push	r29
    1d64:	ec 01       	movw	r28, r24
    1d66:	68 81       	ld	r22, Y
    1d68:	79 81       	ldd	r23, Y+1	; 0x01
    1d6a:	8a 81       	ldd	r24, Y+2	; 0x02
    1d6c:	9b 81       	ldd	r25, Y+3	; 0x03
    1d6e:	61 15       	cp	r22, r1
    1d70:	71 05       	cpc	r23, r1
    1d72:	81 05       	cpc	r24, r1
    1d74:	91 05       	cpc	r25, r1
    1d76:	21 f4       	brne	.+8      	; 0x1d80 <do_rand+0x30>
    1d78:	64 e2       	ldi	r22, 0x24	; 36
    1d7a:	79 ed       	ldi	r23, 0xD9	; 217
    1d7c:	8b e5       	ldi	r24, 0x5B	; 91
    1d7e:	97 e0       	ldi	r25, 0x07	; 7
    1d80:	2d e1       	ldi	r18, 0x1D	; 29
    1d82:	33 ef       	ldi	r19, 0xF3	; 243
    1d84:	41 e0       	ldi	r20, 0x01	; 1
    1d86:	50 e0       	ldi	r21, 0x00	; 0
    1d88:	0e 94 83 0e 	call	0x1d06	; 0x1d06 <__divmodsi4>
    1d8c:	49 01       	movw	r8, r18
    1d8e:	5a 01       	movw	r10, r20
    1d90:	9b 01       	movw	r18, r22
